S0200000526F626F74436F6E74726F6C50726F6772616D2076302E322E737265631F
S21440000098EE0020154D4000FD4C4000FD4C400051
S214400010FD4C4000FD4C4000FD4C40000000000000
S2144000200000000000000000000000008D5040006E
S214400030FD4C400000000000095140004551400082
S214400040FD4C4000FD4C4000FD4C4000FD4C400047
S214400050FD4C4000FD4C4000FD4C4000FD4C400037
S214400060FD4C4000FD4C400000000000F94A4000B6
S2144000700D4B4000214B4000FD4C4000FD4C4000E5
S2144000800000000000000000FD4C4000FD4C400019
S214400090FD4C4000FD4C4000FD4C4000FD4C4000F7
S2144000A0FD4C4000FD4C4000FD4C4000FD4C4000E7
S2144000B0FD4C4000FD4C4000FD4C4000FD4C4000D7
S2144000C0FD4C4000FD4C4000FD4C400010B5054C3A
S2144000D0237833B9044B13B10448AFF300800123AF
S2144000E0237010BDD008002000000000481A4100D0
S2144000F0084B10B51BB108490848AFF300800848C4
S214400100036803B910BD074B002BFBD0BDE8104079
S214400110184700BF00000000D4080020481A4100DD
S214400120481A410000000000F0B4C2F30725002939
S21440013052D00E460178A94247D105E0074610F84E
S2144001400C4BAC4243D100E00746002B57D03C68EE
S2144001507868B9681C6058609960D98811B1598828
S21440016000294CD1120E02F00301032913D8DFE810
S21440017001F002060A0E4FF48061598032E04FF4D7
S214400180006159802EE04FF4805159802AE04FF4A8
S2144001900051598026E002F03002102A0AD001DCD5
S2144001A02AB11BE0202A08D0302A0AD016E0402286
S2144001B0DA8024E08022DA8021E04FF48072DA8010
S2144001C01DE04FF40072DA8019E00C300021013156
S2144001D08E42B3D1082013E0082011E000200FE043
S2144001E000200DE002F03002102AE3D002DC002AA4
S2144001F0DDD0F5E7202AE0D0302AE2D0F0E7002034
S214400200F0BC704783889B02C08893FBF0F080B2B6
S214400210704700BFC28883889B0293FBF2F39BB271
S2144002209202408892FBF0F000FB03F0704700BF5C
S21440023082881005110B7047C3889B02408893FB49
S214400240F0F07047C0888002704700BF4088704713
S21440025040884009704700BF437803F00103002BF5
S21440026014BF1020082070474088B0F5007F8CBF30
S21440027000200120704700BFC36870221A7043698F
S214400280187800F04100402814BF00200120704735
S21440029038B54D25024C2846A0470028FBD038BD2F
S2144002A065474000F8B506460D46084B984760B18E
S2144002B00446074F3046B84710283369EAB20CBFA9
S2144002C01A801A702D0A240AF4D1F8BD150240008F
S2144002D05902400070B505460E461446194B9847DD
S2144002E0102801D02CBB70BD46EA040313F0010F62
S2144002F013D0721C24F00100002103E002311B0AD7
S21440030002F8023C8C421CD96B691B889BB202F8EF
S214400310013C0232814214D0F0E7620811D006EB6D
S214400320420132466B691B8822F8023B8A42F9D169
S21440033070BD334632196869007803F8010B934262
S214400340F9D170BD5902400070B505460E461446B8
S2144003501B4B9847102801D044BB70BD46EA0403A7
S21440036013F0010F16D04CB301210022B35C8C422F
S2144003700AD90232705C03EB00239BB268690380A3
S21440038002319442F2D870BDA3F580739BB26A697D
S214400390138070BD620811D006EB420032466B698E
S2144003A032F8021B19809042F9D170BD334632199B
S2144003B0686913F8014B04709A42F9D170BD00BFCA
S2144003C059024000F8B506460D460D4B9847044680
S2144003D030460C4B9847102808BF6D08022C0DD9A4
S2144003E0084F3046B84710283369EAB20CBF1A8027
S2144003F01A70C4F30F242D0A022CF2D8F8BD00BFA1
S2144004004D0240005902400010B504464E20054BB0
S2144004109847E368FF221A70034B98474E20034BD9
S214400420984710BD9D4740009102400081474000DC
S21440043010B504464E200E4B9847E36890221A703B
S214400440236900221A7009200A4B98476169087888
S2144004500C780A78120442EA042440EA04030C7832
S21440046043EA04644E20044B9847204610BD00BF24
S2144004709D47400001000020814740002DE9F041A3
S21440048004460E4690461F460A201F4DA8470D209C
S214400490A84701201D4B98471D4D4FF001220021D3
S2144004A028461C4B98471C4A002128461B4B984719
S2144004B01B4A002128461B4B98470322002128460A
S2144004C0194B9847C4F80C802761069B6361204609
S2144004D0164B984742F27C10154B98476EB920460B
S2144004E0144B9847234602463A211348134CA047DC
S2144004F0002818BF0820BDE8F08196E8070084E889
S21440050007000020BDE8F081A14C400005084000EF
S21440051000000E40E507400002030404ED074000DB
S21440052004000700F5074000FD07400009044000AE
S21440053001000020310440002CF740002901400013
S2144005402DE9F047044689460225DFF86C80144FB3
S214400550144E2046C04700FB09FA4E20B847E368D1
S21440056060221A7051462046B047E368D0221A707F
S21440057046F273400C4B98470C4B984720460C4B22
S214400580984728B14E200B4B98470020BDE8F0878F
S2144005904E20084B9847013DDBD10C20BDE8F08744
S2144005A09D474000A5024000010000209102400007
S2144005B07902400081474000390240002DE9F0476B
S2144005C004468A4615461E46324B98478046204685
S2144005D0314B984707462046304B98478146204641
S2144005E02F4B984700FB0A554E202E4B9847002E1F
S2144005F04AD1B8F1000F11D01FB9E3680021197035
S21440060003E0E36850221A70394689B22046264BEA
S214400610984729462046254B98470EE03946E368DA
S21440062000221A7089B220461F4B9847294620461A
S2144006301E4B9847E36830221A704FF481701C4B6B
S21440064098471C4B984796B1E36800221A700920D9
S214400650174B98473A4631462046174B9847089BD3
S2144006606BB14A4619462046134B984707E0E36865
S21440067000221A704A46089920460F4B98474E204B
S2144006800E4B9847BDE8F087B8F1000FB5D1002172
S214400690C5E700BF690240004D02400051024000DD
S2144006A0390240009D474000C5034000A502400077
S2144006B00100002091024000D502400081474000E2
S2144006C02DE9F04F87B004468846914601930225AF
S2144006D0DFF808B1DFF808A1374E2046D847029029
S2144006E02046D04703902046B04700FB08974E2050
S2144006F0324B9847019B002B46D0E36880221A7005
S214400700002120462E4B9847394620462D4B984789
S214400710029A019920462C4B9847109B2BB1039A7E
S21440072019462046284B984705E002220DF116014F
S2144007302046264B9847E36810221A70244B984769
S2144007402046244B984700282BD02EE0E368802292
S2144007501A70029920461A4B984739462046194B3C
S2144007609847039A10992046174B9847E3681022FB
S2144007701A70174B98472046164B984740B10BE0E7
S214400780013DAAD10C2014E0109B002BDED103E0E3
S2144007904E20114B9847F3E74E200F4B98470020CA
S2144007A007E04E200C4B9847EAE74E200A4B984706
S2144007B0002007B0BDE8F08F390240009D4740005A
S2144007C0C5034000A502400049034000D502400052
S2144007D09102400079024000814740004D024000AF
S2144007E05102400009014250704700BF00EB011122
S2144007F04A60704700EB01118A60704700EB0111B8
S214400800CA607047014BC3F81C01704700020E4097
S2144008102DE9F04782B00021294B19802948016014
S21440082041608160C160016141614FF0C043009307
S21440083003F50013244A254CA04728B12448254BED
S21440084098474FF0FF3A04E02348224B98474FF032
S214400850000A1C4C2046214B9847DFF8B890C9F850
S214400860000020461E4B9847DFF8AC80C8F80000D2
S21440087020461C4B98471C4F386020461B4B9847D9
S2144008801B4E306020461B4B98471B4D2860D9F8BE
S21440089000101A480F4CA047D8F800101848A04738
S2144008A039681848A0470A211748A04731681748B2
S2144008B0A04729681648A047504602B0BDE8F087D2
S2144008C058AD0020F0080020000040607D04400045
S2144008D070FB40005D72400088FB400031024000E3
S2144008E04502400005024000080900204D02400035
S2144008F0100900203902400014090020ACFB4000DB
S214400900DCFB400018FC40004CFC400084FC4000EF
S214400910BCFC4000EC0800200C0900202DE9F04308
S21440092083B005460C464FF0FF32274B1A602748E7
S214400930274B9847274800F8014B22462946264B26
S21440094098470023254A1380254A1360194698463F
S214400950244D254E1C4C89B22846B04720600C28B2
S21440096005D11F4B19682148194B98471FE01C4F6B
S214400970DFF868903A68B9F800101D48144B98475D
S214400980B9F80020398800230093124B2846194FA7
S214400990B847206020B9124B1A68174B1A800EE0F1
S2144009A00F4B1A680D4B19881448094B98470C4B47
S2144009B01968013119604FF0FF080929CBD94FFA61
S2144009C088F003B0BDE8F083A0B50020F0FC4000FE
S2144009D05D724000A8B5002015784000A4B5002000
S2144009E05CAD0020F00800204105400014FD4000AA
S2144009F034FD4000C106400058AD002070FD400068
S214400A002DE9F04383B0804600231D4A13601D4AFB
S214400A1013801D4B1A881D4B1A60092A25D8194D7C
S214400A20DFF888901A4E29884846B0472A88174BE0
S214400A301988184C0094184B1848194FB847237813
S214400A40FF2B04D1114B1A680F4B1A800DE04FF064
S214400A50FF320B4B1A600D4C226829881148B0476C
S214400A60226801322260092ADDD90B4911F8014B70
S214400A70224640460C4B9847204603B0BDE8F083DC
S214400A80A0B50020A4B5002058AD00205CAD0020E5
S214400A905D72400060AD0020A0AD0020F008002050
S214400AA0BD054000D4FD400015784000B0FD400034
S214400AB010B584B00223ADF8003040F62773ADF889
S214400AC00230030E43EA0062030203F47F0313433B
S214400AD0000A00F47F4018430190184B98470021C5
S214400AE01748184B9847184B93F90030002B22DADA
S214400AF0002201210220154B9847134B18700028FE
S214400B0004DA1348134B9847134B9847102269460C
S214400B100D4B93F90000114B984700280BDA10480C
S214400B200C4B9847084C94F900000E4B9847FF230F
S214400B302370094B984704B010BD00BFB93B400036
S214400B40D50C4000FD3B40000D000020113C40000D
S214400B5010FE40005D724000E9264000ED3D40003A
S214400B6048FE40008940400000B585B00E4B98478F
S214400B7000210E480E4B98470022022108460D4B96
S214400B8098470D4B18700223ADF8003048F21363B7
S214400B90ADF802300023019310226946074B984770
S214400BA005B05DF804FB00BFB93B4000D50C4000E3
S214400BB0FD3B4000113C40000E000020F13C400050
S214400BC000B585B00F4B984700210F480F4B98470C
S214400BD00022012102200E4B98470E4B1870002829
S214400BE00CDB0223ADF8003048F21373ADF8023048
S214400BF00023019310226946074B984705B05DF8DD
S214400C0004FB00BFB93B4000D50C4000FD3B400014
S214400C10113C40000F000020F13C400070B5C6B0CB
S214400C2006460C461B4B984700211B481B4B9847D3
S214400C300022022108461A4B98471A4B1870002883
S214400C4026DB05460223ADF80831174B1A88130AEF
S214400C5043EA0223ADF80A31230E43EA0462230234
S214400C6003F47F031343240A04F47F441C43439451
S214400C70FF242246314602A80C4B98471023019386
S214400C8042AB00930023224602A92846084CA047C0
S214400C9046B070BDB93B4000D50C4000FD3B40001F
S214400CA0113C40000C000020BCBD002015784000E0
S214400CB02D3F400008B50122034B1A70034B98475E
S214400CC0034B984708BD00BFA8BD0020690B4000F5
S214400CD0C10B40002DE9F04182B01546984B93F980
S214400CE00040844270D1052942D1002A33D092F97F
S214400CF00130002B2FDB9348934B9847DFF8D48284
S214400D0041F2863241466846904FB8478C4E0023A3
S214400D100422694696F900008D4DA84741F2873275
S214400D2041466846B84700230422694696F90000C3
S214400D30A84741F2853241466846B8470023042218
S214400D40694696F90000A8470023042281492046B8
S214400D50814CA0476DE181487B4B9847784C94F98D
S214400D6000007F4B9847FF2323707E4B984760E1F7
S214400D70062940F05E81D2B1B2F90430002B16DD70
S214400D807948714CA0470A2200217248774B984711
S214400D90774B188081B27748A047694C94F9000099
S214400DA06F4B9847FF232370734B984741E1734836
S214400DB0654B9847624C94F90000694B9847FF236F
S214400DC02370684B984734E16D4B93F9003083426B
S214400DD02FD101290BD192F9003023B9FF2269495E
S214400DE0694CA0471CE06948574B984718E00629CD
S214400DF001D0092914D12B6893B1B5F90430002BE2
S214400E000EDD6348504B9847B5F90430FF2B07D1A9
S214400E105C4C21465F484C4B984720465E4B984773
S214400E200023FF225749564890F90000564CA047E9
S214400E30FFE05A4B93F90030834252D1012911D139
S214400E4092F900301BB90021554B9847F1E05548C0
S214400E503D4B9847514C94F90000414B9847FF232F
S214400E602370E6E0022919D16AB192F9003053B9ED
S214400E704D48354B984700221146484B93F90000A1
S214400E804A4B9847D5E0364B9847FF22434B1A705B
S214400E9047482D4B9847474B9847CAE0042940F0AF
S214400EA0C8809AB14448284B9847002211463B4B8D
S214400EB093F900003D4B984795F900003F4B18705A
S214400EC00023FF223E49244CA047B2E0244B9847DB
S214400ED0FF22324B1A703B481B4B9847354B98477E
S214400EE0A7E0364B93F90030834240F08E800629C7
S214400EF040F09F801368002B00F09B80B2F90430CE
S214400F00002B40F396802E4C21462F480E4B984798
S214400F102046214B984700285ED12C4B93E803008F
S214400F200090ADF804102A48074B98470023062245
S214400F306946224890F90000054CA0475DE000BF96
S214400F400D00002084FE40005D724000717B400032
S214400F508D3E4000180B0020E53F4000B8FE4000A4
S214400F6089404000E9264000E4FE40001D974000CE
S214400F70BCBD002010FF4000B50C400030FF4000D4
S214400F800E000020180A00200D41400058FF400087
S214400F907CFF4000A4FF4000A11240000F0000204C
S214400FA0693D4000D0FF4000FCFF4000C93D400086
S214400FB02C004100C10B400068004100100000209A
S214400FC01809002098004100C4004100F800410084
S214400FD000014100B4FE4000174B93E80300009028
S214400FE0ADF804101548164B98470023062269466C
S214400FF0144890F90000144CA047124C94F9000095
S214401000124B9847FF23237013E0114B93F900309F
S21440101083420ED108290CD10E48094B98470C4BF9
S21440102093F90000002804DD084B9847FF22084B40
S2144010301A7002B0BDE8F0814801410050014100FD
S2144010405D724000100000208D3E40008940400008
S2144010500C000020A001410008B5FF22154B1A7075
S214401060154B93F90000002804DD144B9847FF22E7
S214401070114B1A70124B93F90000002804DD0F4BF9
S2144010809847FF220E4B1A700E4B93F9000000282B
S21440109004DD0A4B9847FF220A4B1A700A4B93F915
S2144010A00000002804DD054B9847FF22064B1A70C7
S2144010B008BD00BFA8BD00200D00002089404000AC
S2144010C00E0000200F0000201000002030B583B036
S2144010D00C462C2802D0322811D036E00B78012B53
S2144010E002D11B4B984730E0002B2ED10022194BE3
S2144010F01A701948194B9847194B984725E0012212
S214401100144B1A701748154DA847A3786278217873
S214401110E07800901448A847A37962792179E0796D
S21440112000901248A847124D21796279130443EA89
S2144011300162E3791343A27943EA02232B600D4808
S2144011400D4B984728680D4B984703B030BD00BFFD
S214401150092740001C0B0020C40141005D7240007E
S21440116059104000DC014100F00141000C024100F2
S214401170ACBD002037140D0001000020B10A40002D
S21440118008B50520054B984710B10548054B9847CC
S214401190054B19680548034B984708BD0D27400086
S2144011A0340241005D724000B8BD00205C02410040
S2144011B02DE9F04100AF05460C461C4B19681C4B08
S2144011C0984700282DD0E84604F1140323F007037F
S2144011D0ADEB030D174B07CB0090019102921B78A5
S2144011E08DF80C30224629460DF10D00124B9847DB
S2144011F06846124B9847C1B26846114B984718B19B
S2144012001048114B9847FEE7084E30680F4B9847FA
S21440121020460F4B9847306022462946064B984753
S214401220C5460020BD46BDE8F08100BFB8BD0020E1
S214401230A97C40008C02410015784000817F400028
S214401240712740009C0241005D724000957240004C
S2144012508572400000B587B0002301930293039344
S21440126004930593084B00936846084B984720B173
S21440127001460748074B9847FEE709210648074BB3
S214401280984707B05DF804FBCD104000E1254000CC
S214401290D00241005D724000FC024100B1114000A6
S2144012A02DE9F04FC5B001460190FF2204A89B4BA4
S2144012B098479B4904A89B4B9847002800F0A78076
S2144012C0994904A8994B98470746002800F09C8007
S2144012D04FF0000844464FF0FF3A954EDFF8BCB258
S2144012E0C1463A213846B047451C00F08480582114
S2144012F03846B04790B1494628468E4B98470190AD
S2144013008D4FB847024629468C488D4B98470198E2
S214401310B8478DF80C000134E4B23FE05921384616
S214401320B04790B149462846824B98470190824F35
S214401330B847024629468348814B98470198B847A4
S2144013408DF80D000134E4B228E07F493846754BED
S214401350984778B149462846764B9847764B984703
S214401360024629467948764B984708F101085FFAC5
S21440137088F813E0764938466A4B984770B1494634
S21440138028466C4B98476C4B98470246294671480E
S2144013906B4B984708F101085FFA88F8022C12D187
S2144013A04B464A4603A9DBF800006B4DA847012888
S2144013B004D16A48624B9847CA461CE0D8B9684888
S2144013C05F4B984717E0B8F1020F12D14B464A469A
S2144013D003A9DBF80000604DA847012804D15F4808
S2144013E0574B9847CA4606E028B95D48544B98473D
S2144013F001E06FF0010A4C4948464C4B9847074677
S21440140000287FF46EAFCDE04FF0FF3ACAE0554972
S21440141004A8444B9847002871D0434904A8434B3E
S2144014209847044600286DD04FF0FF3AD146D34641
S2144014300026DFF8FC803B4F3A212046C047451C3B
S21440144028D049492046B84718BB48492046B8479F
S21440145038B10A2200212846454B98474FFA80FB70
S21440146018E044492046B84738B10A2200212846A9
S2144014703F4B98474FFA80F90CE03F492046B84723
S21440148040B10A2200212846394B98474FFA80FA45
S21440149000E02E4624490020244B98470446002866
S2144014A0CAD1002E31D0BBF1000F31DBB9F1000FAD
S2144014B031DBBAF1000F73DBFF2101982F4B9847C1
S2144014C030462F4B9847411CC9B230462D4B984763
S2144014D028B12D481A4B98476FF0020A62E0314611
S2144014E02A48174CA04759462948A0474946294804
S2144014F0A04751462848A0474FF0000A52E04FF018
S214401500FF3A4FE06FF0020A4CE06FF0020A49E003
S2144015106FF0020A46E06FF0020A43E0157840009A
S214401520080341001D84400010034100819540009F
S214401530BD7B40004D954000C17140001403410002
S2144015405D724000240341003403410038034100EB
S214401550480341004C034100115540005C034100E4
S214401560700341008003410088034100900341001E
S2144015701D9740009C034100A80341001D09400000
S214401580817F4000B1114000B8034100D8034100BC
S214401590E80341000804410024044100B4BD002093
S2144015A06FF0020A504645B0BDE8F08F2DE9F04F87
S2144015B083B000AF05460C4690469B46B7F8309041
S2144015C0BE8EFF220021804B9847804B18682860CB
S2144015D09B88AB803B23AB716CB17D4B1868C5F8DC
S2144015E007003A23EB722288A378AA81AB733B2389
S2144015F0EB73102400E00724B8F1000F31D0C7F891
S21440160004D02A19734B1868285199889B79918081
S2144016109371E31DDBB23A22EA540834E4B2B8F1DF
S214401620630F92BF4FF0020A4FF0030A4FF0640870
S2144016304FEA8A030A3323F00703ADEB030D424615
S21440164065496846654B9847524669462819644B33
S21440165098475444E4B23B232B550134E4B2D7F8C0
S21440166004D0BBF1000F17D02B195E4A10682851E2
S21440167092889A80A31DDBB23A22EA54E31DDBB27D
S214401680BBF1000FB4BF30223122EA540834E4B232
S2144016903B232B550134E4B2B9F1000F42D0002E63
S2144016A000F08680E8462A194F4B186828511B7967
S2144016B01371631DDBB23A22EA540634E4B2092EB3
S2144016C00DD9632E0ED9B6F57A7F0ED342F20F7A35
S2144016D0564594BF4FF0040A4FF0050A07E04FF016
S2144016E0010A04E04FF0020A01E04FF0030A4FEA15
S2144016F08A030A3323F00703ADEB030D4A46364907
S2144017006846364B9847524669462819344B9847A0
S2144017105444E4B23B232B55631CDBB2C546B1456B
S21440172049D902E0002E46D148E0E84605EB030ED4
S2144017302E4A03CAE850CEF8041013788EF80830C4
S21440174004F10A03DBB23A22EA540B34E4B2092E1F
S2144017500DD9632E0ED9B6F57A7F0ED342F20F79A5
S2144017604E4594BF4FF004094FF0050907E04FF08F
S214401770010904E04FF0020901E04FF003094FEA87
S21440178089030A3323F00703ADEB030D32461249B3
S2144017906846124B98474A4669462819104B984760
S2144017A04C44E4B23B232B550134E4B2C54605E035
S2144017B04FF0FF3003E04FF0FF3000E060B20C37F0
S2144017C0BD46BDE8F08F00BF497940003C0441006B
S2144017D08803410044044100B4FE4000717B400051
S2144017E0157840004C044100540441005C0441001C
S2144017F00B2807D1022905D108B5034B1B6803B156
S214401800984708BD704700BF200B002048B170B510
S214401810044642F27C16034D3046A847013CFBD1B5
S21440182070BD70470100002038B50620084CA04720
S2144018301820A0476420074CA0470620064DA8471E
S2144018400A20A0471820A8470A20A04738BD00BF56
S2144018509D4740000D1840008147400038B50022A3
S2144018600E4B1A600E4D294618200E4CA0472946AE
S2144018700620A04729461920A04701210B20A04753
S2144018800B20094B9847094B1B6813F0010F1CBFF0
S214401890064B1B68064B9847002038BD200B00209F
S2144018A001000030B94740008147400010E000E0AA
S2144018B02918400010B5114B18600B20104B984764
S2144018C04FF0205101200F4B98470F4C0122022128
S2144018D020460E4B98470E4A102101200D4B984744
S2144018E020460D4B9847022120460C4B9847002235
S2144018F00B2120460A4B984710BD00BF200B002006
S214401900A14C4000B9474000000E0E402D46400016
S214401910F1174000B14A40005D474000554740003F
S214401920354B400010B540B1064C2046064B984714
S21440193002212046054B984710BD02210148044B22
S214401940984710BD000E0E405D474000554740008A
S21440195059474000F8B5294D29460C20284CA04749
S21440196029460D20A04729460E20A0474FF060513B
S2144019700B20A047234E244B33604FF400651D6375
S214401980224C2046224B9847022323608023236024
S214401990636843F001036360636843F01003636069
S2144019A0636823F002036360002211462046194B09
S2144019B09847012200212046174B9847002211469F
S2144019C02046164B9847032200212046144B984742
S2144019D000231A4619462046124FB8470123236073
S2144019E01148124B186040F20221114B9847114B98
S2144019F0984733681D630020F8BD00BF010000080B
S214401A00B9474000C0BD0020000E0E400080004098
S214401A101D4340002D4340004D4340006D43400071
S214401A2081434000A943400000810040240B002031
S214401A300D4340002918400010B584B003282DD12E
S214401A404B680A890968009102930192039213B980
S214401A504FF480030293184B1B684FF400625A639E
S214401A60164C002269462068154B9847002202A96A
S214401A702068144B9847216840F201130B62124AC3
S214401A80136913F0400FFBD00B4B1B684FF40062FA
S214401A901A6340F202230B6200200AE0D6220B496A
S214401AA00B480C4CA0470C48A0470C48A0474FF0AA
S214401AB0FF3004B010BD00BFC0BD0020240B002086
S214401AC0DD424000F5424000008000409004410066
S214401AD0680441005D7240007C04410030FD4000D7
S214401AE0002070473AB10139821811F8013F00F8DA
S214401AF0013B9042F9D1704722B1821800F8011B91
S214401B009042FBD1704700BF704700BF10B582B00F
S214401B1001A941F270000A4B9847044660B9019902
S214401B2041F00201019141F27000064B984704468D
S214401B3010B90120044B9847204602B010BD00BFA4
S214401B405D2C4000692C40002519400038B50B4CF0
S214401B500023224619460A4800680A4DA8470A4A02
S214401B6013780133DBB213700020084B9847236884
S214401B70012B01D1064B984738BD00BF480B0020CB
S214401B80B0BD002031564000300B002025194000E3
S214401B90AD50400008B5114B1B7813F0FF0F15D120
S214401BA00F4B1B78DBB2032B04D00D4B1B78DBB2FC
S214401BB0042B0BD10B4B9847034668B945F2786126
S214401BC041F27400084B9847034628B9034A1378F5
S214401BD00133DBB213700023184608BD500B0020BB
S214401BE03C0B0020E5274000692C400000B583B040
S214401BF01D4B1B7813F0FF0F04D01B4A1378013B94
S214401C00DBB21370184B1B7813F0FF0F25D1174B20
S214401C101B78DBB2032B04D0144B1B78DBB2042BAF
S214401C201DD10023019344F2213141F27400104B40
S214401C3098470346A0B901A901200E4B9847034692
S214401C4070B9019911F0020F0AD021F002010191FA
S214401C500120074B9847034602E0002300E000239C
S214401C60184603B05DF804FB500B00203C0B0020E8
S214401C70692C40005D2C40002DE9F04F87B080462F
S214401C800F4692469946109CBDF84460BDF84850B1
S214401C9001F07F038DF815308DF814000823ADF859
S214401CA0163044B1BDF8163016FA83F32B449BB277
S214401CB0ADF8163006E0BDF8163019FA83F39BB23D
S214401CC0ADF81630574B98478346002840F095802D
S214401CD000230393ADF806300293029B48EA0303C1
S214401CE00293029B43EA07270297BDF81620029B01
S214401CF043EA02430293029941F28C004A4B9847CA
S214401D008346002840F08A8000230293029B43F0DB
S214401D1002030293029941F27800434B9847834668
S214401D2000287BD100230393ADF80630BDF806307B
S214401D309BB2B3F57A7F1ED241F278083B4F02A998
S214401D404046B847B8B9029B13F0020F07D103A923
S214401D503748364B984770B1002303930BE0BDF8E5
S214401D60063001339BB2ADF80630BDF806309BB264
S214401D70B3F57A7FE3D3039B002B4DD0039B0493AC
S214401D80BDF816309BB2ADF816300498082205A967
S214401D90284B98478346002840D1049B0833049339
S214401DA0BAF1000F0AD004984A465146214B98474C
S214401DB08346002832D1049B4B44049374B1049B61
S214401DC0C9EB05051D440495049832462146194B37
S214401DD09847834610BB049B1E440496039B9B0077
S214401DE00293029B43F002030293029941F26C0075
S214401DF00D4B9847834688B90AE040F2AB120E492D
S214401E000E480F4CA0470F48A0470F48A04705E094
S214401E100E4B9847834601E06FF0020B584607B0DA
S214401E20BDE8F08F951B4000692C40005D2C4000BB
S214401E3000041500D52C4000080741006804410006
S214401E405D724000C404410030FD4000ED1B400080
S214401E502DE9F04387B0DFF8FC92A34FDFF8F88215
S214401E60A24E7BE199F80030013BDBB289F80030A6
S214401E70B8470446002840F01A8103A941F2700092
S214401E809B4B98470446002840F00681039B13F07E
S214401E90010F00F0F580974B9847039921F0010118
S214401EA0039141F27000944B98470446002840F056
S214401EB00E810022914B1A70039DC5F38B05002DB1
S214401EC000F0D18006A941F8042D41F28400884BE9
S214401ED09847044668B14FF4ED7241463046884D07
S214401EE0A8478848A8478848A8470120814B984774
S214401EF0EBE0042204A90598844B9847BDF81230BD
S214401F009BB2ADF81230044668B14FF4F1724146C8
S214401F1030467B4DA8477E48A8477B48A8470120C7
S214401F20744B9847D1E0BDF812309BB29D421ED00C
S214401F30BDF812309BB2EB1A042B18DD40F2EB12C0
S214401F40414630466E4CA047BDF812209DF81030F2
S214401F509DF81110009192B229466E48A0476A48F3
S214401F60A0470120634B98476FF00504ADE09DF80D
S214401F701030DBB2012B0DD1674B1B68002B60D0B5
S214401F809DF81100BDF812100839059A083289B23A
S214401F90984756E09DF81030DBB2022B0DD15F4BD0
S214401FA01B68002B4DD09DF81100BDF81210083963
S214401FB0059A083289B2984743E09DF81030DBB264
S214401FC0042B0DD1564B1B68002B3AD09DF81100C0
S214401FD0BDF812100839059A083289B2984730E0A1
S214401FE09DF81030DBB2062B0CD14E4B1B6843B32A
S214401FF09DF81100BDF812100839059A083289B2CA
S21440200098471EE09DF81030DBB2072B0CD1464BAC
S2144020101B68B3B19DF81100BDF812100839059A37
S214402020083289B298470CE040F20E2241463046CC
S214402030334CA0473D48A0473348A0476FF00504BF
S21440204043E02E4B1B7813F0FF0F3BD140F2152296
S214402050414630462A4CA0473548A0472A48A04724
S214402060344B98472EE040F21D2241463046244CE1
S214402070A0473148A0472448A0476FF0010426E017
S2144020804FF40972414630461D4CA04703992B48F1
S214402090A0471D48A04715E040F22A224146304658
S2144020A0174DA8472648A8471748A8470FE04FF4BB
S2144020B00C7241463046124DA8472248A84712485F
S2144020C0A84704E0204B98470446002C46D040F2F0
S2144020D04F221E4930460A4DA84721461C48A8476D
S2144020E00948A847C4E600BF951B40006804410065
S2144020F05D2C400025194000692C4000440B002010
S2144021005D724000E404410030FD4000752C400004
S2144021100C054100240541002C0B0020400B0020FC
S2144021204C0B0020280B0020380B00206405410093
S2144021307C0541000D1B4000A0054100B405410050
S214402140D0054100F4054100ED1B4000F806410073
S21440215014064100300B0020AC04410099F80030D2
S21440216013F0FF0F7FF47EAE002007B0BDE8F0838B
S2144021702DE9F04383B01C4620B10D46164607466F
S21440218001B1A2B934B10122314B1A70314B984794
S214402190034658E040F275222F493048304CA0475D
S2144021A03048A0473048A0476FF00B034BE06946E5
S2144021B041F270002D4B98470346002843D1DDF886
S2144021C0008001A941F28400284B98470346002826
S2144021D039D1C8F38B0846450ED940F286221E49AF
S2144021E01E481F4CA047424631462148A0471E483D
S2144021F0A0476FF00B0326E0019B9F4204D307EBFA
S2144022000609434499450CD94FF4237212491348A2
S214402210134CA0471748A0471348A0476FF00B033E
S21440222011E0324629463846134B9847034650B984
S214402230019A4244914500D02CB10122044B1A70B9
S214402240044B98470346184603B0BDE8F08300BFEA
S214402250440B00200D1B4000A004410068044100D0
S2144022605D7240004406410030FD40005D2C400059
S21440227064064100A8064100752C400038B5431E50
S214402280062B1DD8DFE803F00804100C1C141800B9
S214402290134B1960002038BD124B1960002038BD22
S2144022A0114B1960002038BD104B1960002038BD16
S2144022B00F4B1960002038BD0E4B1960002038BD0A
S2144022C0044640F2C5220C490C480D4DA84721460D
S2144022D00C48A8470C48A8476FF00B0038BD00BF15
S2144022E0400B00202C0B00204C0B0020340B002011
S2144022F0280B0020380B0020B4044100680441003D
S2144023005D724000EC06410030FD400010B50024F0
S214402310094B1C60094B1C60094B1C70094B1C7018
S214402320094B1C7009480A4B98470A4903200A4B38
S2144023309847204610BD00BF2C0B0020400B0020C5
S214402340500B00203C0B0020300B00204D1B400063
S214402350B5184000091B40007D22400030B59FB0B4
S21440236015462C2811D10023042203A92846904C58
S214402370A047002840F019818E4B1B68002B00F0C8
S214402380148103A92C2098470FE104461B2811D13D
S2144023900023082203A92846854CA047002840F081
S2144023A00481844B1B68002B00F0FF8003A91B2090
S2144023B09847FAE0062811D10123302203A928467F
S2144023C07B4CA047002840F0F0807A4B1B68002BDF
S2144023D000F0EB8003A906209847E6E00E2800F0C0
S2144023E0E480322811D10023102203A92846704CDD
S2144023F0A047002840F0D9806E4B1B68002B00F0A9
S214402400D48003A932209847CFE02F2816D16422E3
S214402410002103A8684B98470023642203A9284656
S214402420634CA047002840F0C080624B1B68002BDE
S21440243000F0BB8003A92F209847B6E0342820D16F
S2144024400023042203A92846594CA047002840F000
S214402450AC805A485A4CA04703990B0E0093C1F3E0
S2144024600743C1F30722C9B25648A0475648A0477B
S214402470504B1B68002B00F0988000213420984772
S21440248093E0112816D10023504A1370042203A962
S2144024902846474CA047002840F087809DF80C20EF
S2144024A04B4B1A70434B1B68002B7ED003A9112060
S2144024B098477AE013280FD100232C2203A92846F8
S2144024C03B4CA047002870D13A4B1B68002B6CD081
S2144024D003A91320984768E004280FD1002304225C
S2144024E01CA92846324CA04700285ED1314B1B68B9
S2144024F0002B5AD01CA90420984756E065280FD1D7
S214402500002304221CA92846294CA04700284CD169
S214402510284B1B68002B48D01CA96520984744E0F0
S21440252009280FD10123642203A92846204CA0473E
S21440253000283AD11F4B1B68002B36D003A9092030
S214402540984732E02A280DD10123042203A92846C1
S214402550174CA04748BB174B1B6833B303A92A2028
S214402560984722E0202815D10023082203A92846B0
S2144025700F4CA047C8B90123BDF81020039905F1B8
S2144025800800A04788B90B4B1B6873B103A92020ED
S21440259098470AE04FF495720E490F48084DA847F1
S2144025A021460E48A8470848A8471FB030BD00BF80
S2144025B071214000540B0020F91A400040074100AA
S2144025C05D7240004C07410030FD4000580B002033
S2144025D0590B002014074100680441006C07410075
S2144025E0F0B58BB001238DF8073000284ED0026836
S2144025F0294B1A600022294B1A700DF10700284B10
S21440260098470446002843D1264B9847044600285E
S21440261038D125490120254B984702A8244B984796
S2144026200446244F3846244DA8479DF80E309DF862
S2144026300D209DF80C102148A847214E3046A8474B
S2144026403846A8479DF811309DF810209DF80F1089
S2144026501C48A8473046A8473846A84700230322C8
S21440266013211948A8473046A84714F10D0F0FD13B
S21440267040F2D51215491648A8471648A84730468E
S214402680A84705E00020144B984701E06FF00B0484
S21440269020460BB0F0BD00BF540B0020580B002066
S2144026A0E12D40000D2340005D2340007D22400088
S2144026B0352D4000400741005D724000240841002F
S2144026C030FD4000400841005C08410030074100B2
S2144026D06804410078084100A92E400008B5014B27
S2144026E0984708BD511E400010B584B000220292A3
S2144026F00192009213462B210120024CA04704B0C1
S21440270010BD00BF791C40000020704710B586B051
S2144027100A2812D840F22143C34013F0010F0CD0D0
S21440272006AA02F8040D00230293019300930423A3
S2144027305B210120084CA0470BE04FF44B72074941
S2144027400748084CA0470848A0470848A0476FF0ED
S2144027500B0006B010BD00BF791C400020074100AA
S214402760680441005D724000DC09410030FD4000D5
S21440277010B590B0302928BF30214A1CD2B201464D
S21440278004A8074B984700230293019300933023F5
S21440279004AA07210120034CA04710B010BD00BF7B
S2144027A0E51A4000791C4000F0B583B004464FF46B
S2144027B0A5550A4E0A4F21462846B04754B102A9AD
S2144027C0002341F8043D2846B8470028F3D1019B32
S2144027D09C42F0D1002003B0F0BD00BF692C400001
S2144027E05D2C40002DE9F04F83B001203D4B9847CB
S2144027F001A901203C4B9847824648B172223B498A
S2144028003B483C4CA0473C48A0473C48A04764E077
S21440281000244FF00108DFF8F890324D384F019908
S21440282041F002014046C8474046A8476946354BF6
S21440283018682D4B984718B9009B0BB1314E37E0BE
S214402840304E0E2333604046A84769463068264BD4
S214402850984710B9009B002BF0D12A4E13233360C3
S2144028604046A847694630681F4B984706460028AA
S214402870E4D096221D491E481E4CA0472248A04739
S2144028801E48A047B24628E00220A847694630685E
S214402890154B9847009B13F0040F09D1AA22134901
S2144028A01348DFF850B0D8471848D8471348D84799
S2144028B0009B13F0040F10D10134A7FB04235B08E0
S2144028C003EB43039C42DFD0019941F002014046AE
S2144028D0C847009B13F0040FA1D0504603B0BDE894
S2144028E0F08F00BF0D1840005D2C4000680A410084
S2144028F0680441005D724000780A410030FD4000A7
S214402900ABAAAAAA18000020980A4100B80A4100BB
S214402910692C400000B583B001A941F20840154B30
S2144029209847E0B9019941F48071019141F208401D
S214402930114B9847B0B901A94FF4D0500D4B98476A
S21440294098B9019941F4803101914FF4D0500A4B27
S2144029509847002814BF6FF00500002007E06FF08E
S214402960050004E06FF0050001E06FF0050003B0DD
S2144029705DF804FB5D2C4000692C400010B582B029
S214402980244B1C68002C40D119464FF48050224BF3
S214402990984718B100221F4B1A6038E001A941F24F
S2144029A0F4301D4B984718B100221A4B1A602EE09F
S2144029B0184B1B68194A934206D1019B012B1DD028
S2144029C00132144B1A6019E0154A934209D1019B13
S2144029D0032B13D0042B0CBF0132124A0D4B1A6046
S2144029E00CE0114A934209D10A494FF46C100A4B45
S2144029F0984718B10022074B1A6008E0054A13684A
S214402A0023F4702343F4A0231360024B1C68204633
S214402A1002B010BD5C0B00205D2C4000A0021000F0
S214402A20B0021000B2021000F0001000F8B50746E1
S214402A3041F21405244C254E2846A047002802DBC8
S214402A400120B047F8E722481F4B984710F0010F87
S214402A5009D11E4E1C4D1F4C0120B0474FF00C10A4
S214402A60A847A042F8D1022F0AD11B491B481C4C4C
S214402A70A0474FF4801141F28C00A04700240FE09D
S214402A80032F09D114491548154CA047002141F29F
S214402A908C00A047002403E0042F14BF00248024A9
S214402AA0104B9847C0F30B00B0F5687F0CBF44F05E
S214402AB0020020460C4B98470C494FF00C10084B30
S214402AC098470020F8BD00BF512C40000D1840002C
S214402AD0BC0702009ED0AD107DD51C3CAC07020062
S214402AE0692C40007D294000A9274000612F52EF05
S214402AF0F0B583B041F28C030193184B0093023833
S214402B00C0B2012810D8164B0193A3F12253A3F567
S214402B101113A3F2E953009306E03846B0470198F4
S214402B20A847013C06D113E04FF0FF3400200227AF
S214402B300C4E0D4D009B9842EFD1009A074B9A429F
S214402B4009D1002141F28C00084B9847002003E051
S214402B506FF0040000E0002003B0F0BD36265302BC
S214402B60AC0702000D184000512C4000692C400074
S214402B70F0B583B002A9002341F8043D4FF4A050BD
S214402B80244B984748B140F22F2223492348244CEF
S214402B90A0472448A0472448A047019921F48061D3
S214402BA001914FF4A050214B9847054658B140F24A
S214402BB03522194919481A4CA0471D48A0471A48BB
S214402BC0A047284624E00A24124E184F01A94FF485
S214402BD0A050B047054658B14FF40F720E490F4803
S214402BE00F4CA0471348A0470F48A04728460FE081
S214402BF0019911F4806F0AD021F4806101914FF45D
S214402C00A050B847631E13F0FF04DFD100E0002059
S214402C1003B0F0BD5D2C4000980B410068044100B5
S214402C205D724000040B410030FD4000692C4000BE
S214402C30200B41003C0B410008B5014B984708BDAE
S214402C405519400008B5014B984708BDE11A4000A9
S214402C5008B5014B984708BDA134400008B5014B64
S214402C60984708BDB934400008B5014B984708BDA1
S214402C70D13440002DE9F047074689461546134BA8
S214402C80B3F80080A8F108081FFA88F8424508D82B
S214402C900026AAB209EB060138460D4B9847034674
S214402CA010E044460026DFF828A0424609EB06011D
S214402CB03846D047034628B92D1B26442744A5420C
S214402CC0F3D8E6E71846BDE8F08700BF14000020BA
S214402CD0F53540002DE9F047074689461546134B23
S214402CE0B3F80080A8F108081FFA88F8424508D8CB
S214402CF00026AAB209EB060138460D4B9847034614
S214402D0010E044460026DFF828A0424609EB0601BC
S214402D103846D047034628B92D1B26442744A542AB
S214402D20F3D8E6E71846BDE8F08700BF1400002059
S214402D30C136400030B583B0044602A9002341F8AE
S214402D40043D2348234B98470546019A224B9A4216
S214402D5005D101A941F248001E4B98470546019B04
S214402D601A0C1112E171C2F30311217202F00F0224
S214402D7062721A122271C3F30312627103F00F03D8
S214402D80A371164B984720602279A37903F00F036E
S214402D9043EA022263791B01DBB21343E179627A8C
S214402DA002F00F0242EA0121227A1201D2B20A430D
S214402DB041F230318A4288BF6FF00C0541F22F3223
S214402DC093428CBF28466FF00C0003B030BD00BF66
S214402DD0AC0702005D2C4000C3C15DD77D29400092
S214402DE038B530B10478631EDBB2042B28BF01240B
S214402DF000E0012400201D4B9847054650B14FF493
S214402E0092721B491B481C4CA0471C48A0471C48B4
S214402E10A04729E01B48184DA8471B4B984701463A
S214402E201A48A8471648A847194B98472046194BB2
S214402E3098470546B0B92046174B9847054688B987
S214402E40023CE4B2012C0FD9144B9847054658B1C2
S214402E504FF4AE7206490748074CA0471048A047B3
S214402E600748A0470F4B9847284638BD392C4000A6
S214402E70500C4100680441005D724000A40B4100C4
S214402E8030FD4000400741007D294000C00B410016
S214402E90E93440002D2A4000F12A40001529400020
S214402EA0D00B4100452C400038B5194B984758B1D7
S214402EB004464FF4BA7217491748184DA8471848A1
S214402EC0A8471848A84720E00020174B98470446D4
S214402ED050B140F27B120F490F48104DA847134897
S214402EE0A8471048A84710E0114B9847044650B1F1
S214402EF040F2811207490848084DA8470D48A847A0
S214402F000848A84701E00C4B9847204638BD00BF0C
S214402F10712B40005C0C4100680441005D7240002B
S214402F20F00B410030FD4000B9414000100C41001C
S214402F30452C4000340C41009534400000B585B027
S214402F40002301930290ADF80C1001A90320024B18
S214402F50984705B05DF804FB391A4000F0B583B0D9
S214402F600546CF2804D000F13B03DBB2012B06D840
S214402F7001210DF10700224B984700283AD10B2437
S214402F8001271F4E39460DF10700B04758B140F2B1
S214402F9027121C491C481D4CA0471D48A0471D48E9
S214402FA0A047002029E09DF80730AB4205D0631EBD
S214402FB013F0FF04E6D10B2400E00B240126104D4D
S214402FC031460DF10700A84758B140F235120D4979
S214402FD00D480E4CA0470E48A0470E48A04700207C
S214402FE00BE09DF807303BB1631E13F0FF04E7D1BA
S214402FF0012002E0002000E0012003B0F0BD00BF49
S2144030003D2F400074114100680441005D7240004D
S214403010B80C410030FD40002DE9F04F83B08246A9
S214403020894693464FF00008354DB9F5005F94BF8A
S2144030300FFA89F74FF400570A24012631460DF15E
S2144030400300A84758B140F257122E492E482F4C3D
S214403050A0472F48A0472F48A04700204DE09DF8A6
S21440306003301B090F2B05D0013C24B2B4F1FF3FBF
S214403070E4D101E0002C0DDC40F2631221492248E5
S214403080224CA0479DF803102348A0472148A0475C
S214403090002032E0BFB239460AEB0800A84758B1D4
S2144030A04FF4B67217491848184CA0471B48A0471B
S2144030B01848A047002020E0BBF1000F12D1184B63
S2144030C01B787BB9022101A8A84758B140F2771275
S2144030D00C490D480D4CA0471248A0470D48A04744
S2144030E000200AE0B8440FFA88F8C7EB09071FFA31
S2144030F087F9B9F1000F98D1012003B0BDE8F08FF1
S2144031003D2F40008C124100680441005D72400033
S214403110EC0C410030FD4000200D4100500D4100B8
S214403120600B0020840D410000B585B0019000235F
S2144031300293ADF80C1001A90320024B984705B046
S2144031405DF804FB391A400070B584B09DF8204005
S2144031508DF80400C1380E2800F2AE80DFE800F09B
S2144031603E3E5F12232C4D4D7808ACACACAC3500DF
S2144031700B0C8DF805300B0A8DF806308DF80710CD
S2144031800521A4E0C1F3072314B98DF8053003E008
S21440319063F07F038DF805308DF8061000238DF818
S2144031A00730052193E000238DF805308DF8063072
S2144031B08DF8073005218AE000238DF805308DF81C
S2144031C006308DF80730052181E0FF238DF8053065
S2144031D08DF806308DF80730052178E00A0C8DF81A
S2144031E005200A0A8DF806208DF807101A0A8DF871
S2144031F008208DF80930072169E00A0C8DF8052073
S2144032000A0A8DF806208DF807101A0C8DF808204B
S2144032101A0A8DF809208DF80A30082157E0C1F3C4
S214403220072314B98DF8053003E063F07F038DF86B
S21440323005308DF80610130E8DF80730130C8DF8F8
S2144032400830130A8DF809308DF80A2008213EE030
S2144032500B0C8DF805300B0A8DF806308DF80710EC
S214403260130E8DF80830130C8DF80930130A8DF8BC
S2144032700A308DF80B20092129E012F8013B83EA39
S2144032804003E05C9542F8D104AB1E44430006F888
S2144032900C3C01E00139C9B201A8104B984768B10F
S2144032A04FF484720E490F480F4CA0470F48A04772
S2144032B00F48A04700200FE000200DE001200BE063
S2144032C04E1E01AB9D197F201A460A4CD5E70A4B85
S2144032D01B78002BDED1F3E704B070BD29314000E7
S2144032E06C114100680441005D724000BC0D410015
S2144032F030FD40008C114100600B002070B582B05C
S2144033000446312835BF01230023C325C925009331
S21440331004230A4601462846164EB04701280CD0DC
S21440332040F2EB1214491548154DA847214615485A
S214403330A8471548A84700201AE02846134B984748
S214403340012814D040F2F1120B490C480C4DA84706
S21440335021460F48A8470C48A84700240094234617
S21440336022462146CF20034DA847204600E00120B4
S21440337002B070BD49314000880C410068044100ED
S2144033805D724000E80D410030FD40005D2F40007A
S214403390140E41002DE9F04184B004468846B0F54D
S2144033A0807F35BF01260026C425CA250096042303
S2144033B00022014628462D4FB84701280CD040F23F
S2144033C045222B492B482C4DA84721462B48A84739
S2144033D02B48A847002045E028462A4B9847012816
S2144033E014D040F24B2222492248234DA84721467A
S2144033F02548A8472248A84700240094234622464A
S2144034002146CF20194DA84720462BE032460421BE
S21440341003A81E4B9847012813D040F25322144964
S2144034201448154CA0471A48A0471548A047002402
S2144034300094234622462146CF200C4DA8472046DE
S21440344010E09DF80D109DF80E20130443EA01226B
S2144034509DF80C3013439DF80F2043EA0263C8F8EA
S2144034600030012004B0BDE8F08100BF4931400083
S214403470980C4100680441005D7240004C0E4100CB
S21440348030FD40005D2F4000780E4100193040006E
S214403490AC0E41000020014B18707047600B0020B6
S2144034A000B583B001A9034B9847019803B05DF877
S2144034B004FB00BF9533400008B5044B98470128ED
S2144034C00CBF00206FF0050008BD00BF95334000DC
S2144034D008B5044B984701280CBF00206FF0050044
S2144034E008BD00BFFD32400030B583B0002302A9BE
S2144034F041F8083D324A13704EF62400314B984747
S214403500F0B901222E4B1A7040F2C5222E492F48A0
S2144035102F4CA0472F48A0472F48A04769464EF655
S2144035202400284B9847044650B94FF43272264937
S2144035302648274DA8472948A8472748A8473CE09B
S2144035401F4B1B78CBB9009921F07C0141F050010C
S21440355000914EF62400224B9847044650B940F25C
S214403560D222194919481A4DA8471E48A8471A4852
S214403570A84722E00122124B1A7001A94FF480504E
S214403580104B984760B94FF437720F490F48104CAC
S214403590A0471548A0471048A0476FF005040CE028
S2144035A04EF62400114B984720F0700141F0500130
S2144035B04EF624000E4B98470024204603B030BDFC
S2144035C0600B0020953340006C0C410068044100BD
S2144035D05D724000CC0E410030FD40001C0F4100A3
S2144035E0FD3240004C0F4100800F4100A1344000A6
S2144035F0D1344000F0B583B004460F46154600224D
S21440360000922B460146C820234EB04701280BD0D7
S2144036104FF41D7221492248224DA8472146224890
S214403620A8472248A84732E0C820214B984701289F
S21440363012D040F27A22194919481A4DA847214615
S2144036401C48A8471948A847002100910B460A463F
S214403650CF20114CA0471AE0002229463846164B88
S2144036609847012811D04FF421720C490C480D4C54
S214403670A0471248A0470D48A047002100910B469E
S2144036800A46CF20044CA04701E0002001E06FF03E
S214403690050003B0F0BD00BF493140008011410035
S2144036A0680441005D724000A80F410030FD4000B4
S2144036B05D2F4000D80F41001930400010104100E7
S2144036C02DE9F04385B00446884615460022009210
S2144036D02B460146C7204C4EB04701280BD040F23F
S2144036E00F224A494A484B4DA84721464A48A847D0
S2144036F04A48A84782E0C720494B9847012812D03D
S21440370040F2152241494248424DA8472146454885
S214403710A8474248A847002100910B460A46CF20BA
S214403720394CA0476AE00024ADF80C403E4FDFF825
S21440373010912E46B5F5005F28BF4FF400562CB9C1
S214403740B5F5005F94BF0323012304E0B5F5005FA1
S21440375094BF0323022363F00F038DF80B3001213F
S2144037600DF10B00B84750B14FF4D4722F4928489A
S214403770284CA0472E48A0472848A04728E0314676
S21440378008EB0400B84750B140F2B1122749204830
S214403790204CA0472748A0472048A04718E099F863
S2144037A0003073B9022103A8B84750B140F2BB12AB
S2144037B01E491748174CA0471F48A0471748A04720
S2144037C006E0344424B2AD1BADB2002DB1D113E0B7
S2144037D040F226220D490E480E4CA0471748A047F7
S2144037E00E48A04700240094234622462146CF2078
S2144037F0054DA847204603E0002001E06FF0050095
S21440380005B0BDE8F08300BF49314000A80C410038
S214403810680441005D7240003810410030FD4000B1
S2144038205D2F40006810410029314000780C41006F
S214403830A0104100D81041000C1141004411410035
S214403840600B00202DE9F84FBDF82840002C47D0EB
S21440385081460E469246984603012249CB58002B95
S2144038603ED001EB00139B889BB2002B38D001EB77
S21440387000139B7ADBB2012B32D1F48001EB0017A8
S214403880DFF878B0BB88E31A1BB2002B03DDBD8897
S214403890ADB2002301E02546012339682A4640465A
S2144038A0D847A8B93B683360B580F3885B1BF38084
S2144038B00D4B1B682BB10C4B1B6832465146484695
S2144038C09847641BA4B2A844002CDBD1BDE8F88F0F
S2144038D00648074DA84721460648A8470648A84731
S2144038E0BDE8F88FC8BD002078BE002040074100E4
S2144038F05D7240009C12410030FD40007121400046
S214403900F0B599B01446412819D10023042207A9DE
S2144039102046A24CA047002840F03E819DF81D302E
S2144039208DF80C309E4B1B68002B00F035819C4B6D
S2144039301B6803AA01219DF91C0098472CE10D46FF
S214403940422819D10023042207A92046934CA047B9
S214403950002840F021819DF81D308DF80C30904BAA
S2144039601B68002B00F018818D4B1B6803AA0221B0
S2144039709DF91C0098470FE143283FD100230C22B5
S2144039800DEB02012046854CA047002840F00481FC
S2144039909DF91530002B19DB824A02EB03120021F9
S2144039A0D1720121917280490A88013292B20A800E
S2144039B00A8892B21AB90A88013292B20A807A4AC2
S2144039C0118889B2774A02EB0312D1808DF81C30F9
S2144039D00223ADF82030BDF80E30ADF82230049BFF
S2144039E009936F4B1B68002B00F0D6806C4B1B680E
S2144039F007AA04219DF914009847CDE0442801D039
S214403A004B2824D10023042207A92046634CA04714
S214403A10002840F0C1809DF91C008DF80C009DF9EF
S214403A201D308DF80D303BB9BDF81E30083B9BB2BB
S214403A305C4A02EB00121381594B1B68002B00F0C6
S214403A40AB80574B1B6803AA05219847A4E04A2839
S214403A5013D10023442207A92046504CA0470028F3
S214403A6040F09A80514B1B68002B00F095804F4BDE
S214403A701B68179907A898478EE0462805D048281F
S214403A8005D04D2848D1062702E0062700E0092742
S214403A900023102203A92046404EB04700287BD181
S214403AA09DF91800BDF81A103E4A02EB001200239A
S214403AB01373BDF914E0BDF81630BDF80E60ADF8CE
S214403AC02660049E0A96D28892B291421BD1BEF1DD
S214403AD0000F0ADDAE4508DA1FFA8EF20092234444
S214403AE03A4607A9324CA04756E0ADF820E00023FE
S214403AF007932B4B1B68002B4ED0294B1B6807AAFD
S214403B003946984748E0102D46D9012300221146F1
S214403B101046224CA0473FE0452805D0472805D010
S214403B204C2824D1072502E0072500E0082500237D
S214403B30082207A92046194CA04700282CD19DF9F9
S214403B401C00BDF82020BDF81E30ADF80C30154BDB
S214403B5003EB0013DB889BB29A421DD1104B1B68C7
S214403B60D3B10F4B1B6803AA2946984714E0522846
S214403B7012D10123142207A92046084CA04758B961
S214403B800C4B089A1A601B6833B10A4B1B689DF8A9
S214403B902C2009990798984719B0F0BD712140002C
S214403BA078BE0020C8BD0020620B002080BE0020EA
S214403BB0453840007CBE002008B50A4B1B7813F001
S214403BC0FF0F0ED1B02200210748084B98470849FE
S214403BD00220084B98470122024B1A700022064BDF
S214403BE01A8008BD610B0020C8BD0020F91A4000AD
S214403BF0013940007D224000620B0020024B1860D5
S214403C00024B1960704700BF78BE002080BE00207F
S214403C1070B586B002284CD101294DD0022918BF74
S214403C204FF0FF3459D14AE0254600EB04139B7A07
S214403C3013F0FF0F36D12A4800EB04101646102228
S214403C400021284B9847264B03EB051301229A7216
S214403C50254A138801339BB2138013889BB21BB945
S214403C60138801339BB213801F4B1A8892B21C4BA9
S214403C7003EB0513DA8064B216F0010F2DD006AAC6
S214403C8002F8044D164B03EB05152123EB72002377
S214403C90029301930093042350210220134DA8471A
S214403CA01BE00F480134E4B28C42BDD34FF0FF34E2
S214403CB013E04FF0FF3410E00721002401E00B2111
S214403CC007242546064B03EB04139B7A13F0FF0F9D
S214403CD0E7D1034800EB0410B0E7204606B070BDBD
S214403CE0C8BD0020F91A4000620B0020791C400035
S214403CF039B310B588B0002826DB184B03EB001309
S214403D009B7ADBB2012B22D122B304468DF81C00ED
S214403D10082205A8124B9847104800EB0410C388A9
S214403D20ADF81E3000230293019300930C2305AA9E
S214403D30412102200B4CA047002818BF6FF0080016
S214403D400AE06FF0050070476FF0050004E06FF082
S214403D50050001E06FF0050008B010BDC8BD0020AA
S214403D60E51A4000791C4000002821DB144B03EB89
S214403D7000139B7ADBB2012B1DD110B586B08DF8AF
S214403D8014008DF815100E4B03EB0010C388ADF8E9
S214403D9016300023029301930093042305AA422180
S214403DA00220084CA047002818BF6FF0080005E026
S214403DB06FF0050070476FF00500704706B010BD05
S214403DC0C8BD0020791C400000280ADB064B03EBE8
S214403DD00010837ADBB2012B14BF6FF00500002081
S214403DE070476FF005007047C8BD0020002838DBDC
S214403DF0002939D0224B03EB00139B7ADBB2012B10
S214403E0035D1002A36D030B589B01D4B03EB0013B0
S214403E10DB7A13F0010F07D0194B03EB0013DB7A64
S214403E208DF81D304B2500E0442504468DF81C00D7
S214403E30082205A8134B9847114800EB0410C38886
S214403E40ADF81E3000230293019300930C2305AA7D
S214403E50294602200C4CA047002818BF6FF00800E7
S214403E600BE06FF0050070476FF0050070476FF08D
S214403E70050070476FF00500704709B030BD00BFC1
S214403E80C8BD0020E51A4000791C400000283BDBF6
S214403E9000293CD0B2F5AF6F3CD8224B03EB001361
S214403EA09B7ADBB2012B38D110B588B08DF8100064
S214403EB0ADF812201B4B03EB0013DB88ADF81C302B
S214403EC00728B4BF50244424164B03EB0013DB7A78
S214403ED013F0010F06D0134B03EB00100489A4B275
S214403EE04C2000E0452002940192009110230DEBF7
S214403EF0030240F0800102200B4CA04700280CBF74
S214403F0000206FF00D000BE06FF0050070476FF07B
S214403F10050070476FF0050070476FF0050070476A
S214403F2008B010BDC8BD0020791C4000F0B589B06F
S214403F300E9D00283FDB002940D0B2F5AF6F40D839
S214403F40254B03EB00139B7ADBB2012B3CD1224B73
S214403F5003EB00139B7A13F0FF0F38D00446164647
S214403F600F46102200210DEB02001C4B98478DF89F
S214403F701040ADF81260184800EB0410C388ADF846
S214403F801C303DB12B88ADF814306B88ADF8163038
S214403F906B680693442302930196009710230DEB1B
S214403FA00302C72102200E4CA04700280CBF002069
S214403FB06FF00D000DE06FF005000AE06FF00500B1
S214403FC007E06FF0050004E06FF0050001E06FF0D9
S214403FD0050009B0F0BD00BFC8BD0020F91A40007A
S214403FE0791C400000283CDB00293DD0002A3ED00A
S214403FF070B586B0224C04EB0014A47AE4B2012CCF
S21440400038D11F4E050174197151A280227B12F0DF
S214404010FF0F32D106EB001201211173D27A0A400B
S214404020002A0CBF46214D211BB94FF0FF330493A5
S21440403000E004938DF81400114B03EB0010C38886
S214404040ADF816300023029301930093082304AA88
S21440405002200C4CA04700280CBF00206FF00D003B
S2144040600CE06FF0050070476FF0050070476FF08A
S214404070050070476FF0050000E0002006B070BDF8
S214404080C8BD0020791C400030B587B000282EDB24
S2144040901B4B03EB00139B7ADBB2012B2AD1044661
S2144040A08DF81400164B03EB0013DA88ADF8162093
S2144040B000229A72DA80DB7A03F00103934202927E
S2144040C0019200924FF0040305AA0CBF49214E21ED
S2144040D002200C4DA847051E18BF6FF00805102299
S2144040E00021074800EB0410074B984704E06FF0A8
S2144040F0050501E06FF00505284607B030BD00BF56
S214404100C8BD0020791C4000F91A400000283EDB5C
S21440411000293FD0002A40D070B586B0244C04EB2E
S2144041200014A47AE4B2012C3AD1214C04EB0014DA
S214404130A47A14F0FF0F36D01D4E05017419715144
S214404140A280227B12F0FF0F2FD106EB0012012136
S21440415011731BB94FF0FF33049300E004938DF8BE
S2144041601400134B03EB0010C388ADF81630002341
S214404170029301930093082304AA482102200D4C81
S214404180A04700280CBF00206FF00D000EE06FF037
S214404190050070476FF0050070476FF005007047E8
S2144041A06FF0050002E0002000E0002006B070BD81
S2144041B0C8BD0020791C400070B582B005462E4B25
S2144041C09847C0F30B00B0F5687F50D301A941F281
S2144041D010402A4B98470446002849D1019921F0BF
S2144041E0EE6121F4EE2141F0887141F4883101916D
S2144041F041F21040224B9847B5B100212148204D4E
S214404200A847AB212048A84701212048A8470021BD
S2144042101F48A84781211F48A8471F4E1F4D3046BC
S214404220A8470128FBD115E000211648144DA847A1
S214404230B9211548A84701211448A8470021144829
S214404240A84781211348A847134E144D3046A84727
S2144042500128FBD1019921F0EE6121F4EE2141F4D1
S2144042608031019141F21040054B984700E0002410
S214404270204602B070BD00BF7D2940005D2C400046
S214404280692C4000080201000C02010014020100E3
S2144042901C0201000402010018020100512C4000DB
S2144042A090B92DE9F0410C469046002A0FDD8F1854
S2144042B0084E094D306821462B6898470134A7427E
S2144042C0F8D14046BDE8F0814FF0FF3070470020FF
S2144042D0BDE8F0818CBE002084BE00200B4619B19C
S2144042E0096881605B68C3601AB11368836153686C
S2144042F0C36170470B4619B1096801605B6843604B
S2144043001AB11368036153684361704721F4FE7124
S21440431021F001018905890D0162704708B5152015
S214404320014B984708BD00BFA14C400032B100EB9E
S2144043308100036B43F001030363704700EB810089
S214404340036B23F001030363704700BF32B100EBF9
S2144043508100036B43F002030363704700EB810068
S214404360036B23F002030363704700BF00EB810139
S2144043700B6B23F0F0030B630B6B1A430A63704717
S2144043806AB110B4144600EB81010B6B23F47F43F3
S2144043900B630A6B42EA04220A63002002E04FF0F5
S2144043A0FF30704710BC704710B400EB8101086BBB
S2144043B080B208630C6B44EA036343EA02420A6332
S2144043C010BC7047436913F0020F1DBFC1F30801CC
S2144043D0C161002001207047436913F0010F05D0EA
S2144043E08369C3F308030B600020704701207047C1
S2144043F00138022815D82DE9F0410E4614469AB1E8
S2144044000D46DFF838800C4FD8F8000015F8011B31
S2144044103B68984700280ADBA81B013CF4D1BDE85E
S214404420F0814FF0FF3070470020BDE8F0814FF03C
S214404430FF30BDE8F08100BF88BE00208CBE002063
S21440444010B4AC2303600B684A68B3FBF2F31B0955
S2144044505C1E4FF6FE7294420AD803628B68436035
S21440446040F20223C0F8203150230360002000E0D1
S214404470012010BC704700BF436913F0020F1ABFFB
S214404480C161002001207047436913F0010F1DBF32
S21440449083690B7000200120704700BF10B50E489E
S2144044A00E4B98473E2100200D4B98470D4CA04799
S2144044B00028FCD00C4B98470C4A0D4B9A620D4C8A
S2144044C0A0470028FCD010200B4B98470B4B984732
S2144044D00148024B984710BD000E2707D94E4000B2
S2144044E01D4C4000714C4000814C4000013F132061
S2144044F000040E40914C4000B54B4000C54D400076
S214404500F8B54048404B98470B20404CA0470C20FD
S214404510A0470D20A0473E4B4FF400021A631A6195
S214404520C3F8A0203B4C04276761C4F8A0706766B8
S214404530C4F8907067656762C4F88070226F22F096
S21440454004022267626F22F0040262674FF4801210
S2144045501A631A61C3F8A0204FF4803222632261A6
S214404560C4F8A0204FF480021A631A61C3F8A02052
S2144045704FF000620C212848284B9847284E314679
S2144045800320284DA84731463846A8476766C4F8F2
S214404590907067656762C4F88070236F23F00403E9
S2144045A02367636F23F00403636731464920A847B7
S2144045B031464A20A84731465120A8473146502028
S2144045C0A84731464020A84731464120A8473146B3
S2144045D04220A84731464320A84731464420A847B2
S2144045E031464520A84731464620A8473146472011
S2144045F0A8474FF060514E20A8470B494D20A8478A
S214404600F8BD00BF50140E40F54C4000A14C400091
S21440461000120E40000E0E4000100E40DD484000D6
S21440462001000008B9474000010000280AB1416671
S21440463070470166704700BF4264B1F1C05F2FD03B
S21440464007D8B1F1006F14D0B1F1805F1ED039B9F0
S2144046507047B1F1205F36D004D8B1F1005F29D061
S21440466042607047B1F1405F2DD0B1F1605F2AD013
S214404670F6E710B4046F016FD34321401940016739
S214404680446F416F21400B4043671AE0036F13436A
S2144046900367416F436F0B4023EA02034367DFE73C
S2144046A0016F036F0B4023EA02030367436F134314
S2144046B04367D5E7036F13430367436F134343676B
S2144046C0CEE7426010BC7047416412F0010F14BF41
S2144046D04166016612F00A0F14BF0162416212F091
S2144046E0020F02D0C0F8801004E012F0080F18BF86
S2144046F0C0F8841041610160704700BF10B4416447
S214404700019C0CB1416600E001660BB1016500E01A
S21440471041650AB1016300E041630161016010BC7C
S214404720704700BF12F0100F10D0C0F8B01012F053
S214404730200F14BFC0F8D410C0F8D01012F0400FAD
S21440474014BFC0F8C010C0F8C4107047C0F8B4100A
S214404750704700BF0164704741647047C06C704743
S214404760806C7047430903F5001303F207735B023E
S214404770DB6B00F01F0023FA00F000F001007047EA
S214404780430903F5001303F207735B0200F01F00B2
S214404790012202FA00F01863704700BF430903F590
S2144047A0001303F207735B0200F01F00012202FAB7
S2144047B000F05863704700BF70B582B00D4643099D
S2144047C003F5001303F207735C0201F0F043B3F104
S2144047D0005F47D009D8B3F1805F21D0B3F1C05F06
S2144047E02FD0B3F1006F6FD109E0B3F1405F55D0E1
S2144047F0B3F1605F52D0B3F1205F44D064E000F084
S2144048001F000126864032464FF000612046304B5E
S214404810984715F0010F14BF66662666012054E0DF
S21440482000F01F000126864032464FF08051204659
S214404830274B984715F0010F14BF66662666012081
S21440484043E000F01F000126864032464FF0C0513C
S21440485020461F4B984715F0010F14BF6666266624
S214404860012032E000F01F000126864032464FF01D
S21440487000512046164B984715F0010F14BF666648
S2144048802666012021E000F01F0101262A4606FA8E
S21440489001F120460F4B9847304616E005F060522F
S2144048A000F01F01012605EA06030093C5F38003C6
S2144048B0B2F1605F14BF0022012206FA01F12046E1
S2144048C0054CA047304600E0002002B070BD00BF57
S2144048D039464000C9464000FD46400070B582B0AB
S2144048E005460E46144602F0F043B3F1005F38D05A
S2144048F009D8B3F1805F1CD0B3F1C05F25D0B3F1C7
S214404900006F50D109E0B3F1405F3AD0B3F1605F39
S21440491037D0B3F1205F30D045E00A464FF0006113
S214404920224B984714F0010F14BF6E662E66012086
S2144049303AE00A464FF080511C4B984714F0010F5E
S21440494014BF6E662E6601202EE00A464FF0C05118
S214404950164B984714F0010F14BF6E662E66012062
S21440496022E00A464FF00051104B984714F0010FD2
S21440497014BF6E662E66012016E00D4B9847012048
S21440498012E004F0605204F001030093C4F3800385
S214404990B2F1605F14BF0022012231462846054C22
S2144049A0A047012000E0002002B070BD394640001C
S2144049B0C9464000FD464000400900F5001000F2A0
S2144049C007704002704700BF40090B30704700BF79
S2144049D000F01F00012303FA00F070472DE9F8436A
S2144049E081468846124B984705464846114B98479D
S2144049F0054013D0104C04F160062368434508D1A7
S214404A006168294205D0E36840469847636825EACE
S214404A100305B44202D01034002DEED1074B1B687C
S214404A2023B1074B1B680BB148469847BDE8F8834F
S214404A305D474000614740006C0B002090BE002060
S214404A40680B0020F8B5174C2668062E28D84FF07D
S214404A50000C6446144FA64625017D598D4204D16C
S214404A6007EB04156D68954204D00134E4B2A446C1
S214404A70A642F0D20C4D4FEA0E1E05EB0E0445F84A
S214404A800E106260A3600699E1600136664504BF79
S214404A9004490E6011461A46044B98470020F8BD5C
S214404AA00120F8BD640B00206C0B00202547400019
S214404AB02DE9F04182B004460F4690460A4B98478F
S214404AC005462046094B984706462046084B9847D9
S214404AD0CDF800803B46024631462846054CA04766
S214404AE002B0BDE8F08100BFB9494000C949400066
S214404AF0D1494000454A400008B50B210148024BC9
S214404B00984708BD000E0E40DD49400008B50C2110
S214404B100148024B984708BD00100E40DD49400052
S214404B2008B50D210148024B984708BD00120E40BB
S214404B30DD494000F8B505460C461746184B9847E1
S214404B4006464FF0FF312846164B98472846164BE8
S214404B509847E2B202F01F030121994063099B0087
S214404B6003F1604303F56143C3F88010C3F8801136
S214404B70002C06DA02F00F023F01FFB20B488754C2
S214404B8007E03F01FFB204F1604404F5614484F855
S214404B900073196031462846054B9847F8BD00BF5C
S214404BA061474000594740005D47400014ED00E033
S214404BB055474000184A136B23F0700318431063A0
S214404BC0936E13F0080F03D009E0013B03D11EE0BB
S214404BD04FF4006310498A6E12F0080FF5D00E4A63
S214404BE0136B23F0030343F002031363906E10F03D
S214404BF0080004D000207047013B03D109E04FF481
S214404C00006305498A6E12F0080FF5D07047012000
S214404C1070470120704700BF00040E4038B111496C
S214404C200B6A114A1A40114B13430B6270470D48EA
S214404C30026A090289B222F45C1323F0030343F4A8
S214404C405C1343F001030B4303620246936E13F07A
S214404C50010FFBD0034A136A43F09B7343F480333F
S214404C601362704700040E40FCFFC8FE0200370186
S214404C70024B986E00F48030704700BF00040E4030
S214404C804FF00052014B9A62704700BF00040E403E
S214404C90024B986E00F00200704700BF00040E40C2
S214404CA022281ED81F280CD8114B9A69012383400E
S214404CB0934318D0012303FA00F00D4B18610020EF
S214404CC0704720380A4BD3F808210123834093438A
S214404CD00BD0012303FA00F0054BC3F80001002077
S214404CE0704701207047002070470020704700BF83
S214404CF000040E404FF400434360704782B042F2D7
S214404D000F730193EFF305830193009B01330093E8
S214404D10FBE700BF08B5204B204A9A4212D9204BE9
S214404D201D4A9A421ED21146013B9B1A23F00303AA
S214404D3004331A4A134452F8040B41F8040B9A42BF
S214404D40F9D10FE0144B154A9A420BD2144B124A33
S214404D509A1A144811182AB151F8042943F8042D18
S214404D608142F9D100BF104B104A9A420BD2131D14
S214404D700F4AD21A22F003021A44043B002143F899
S214404D80041B9A42FBD10B4B0B4A9A600B4B98473D
S214404D900B4B9847FEE700BF00000020481A410032
S214404DA0D0080020441A410098BE0020D0080020B9
S214404DB09BBE002000ED00E0000040000D72400069
S214404DC0616740003D4B1B6B03F00303032B5DD82C
S214404DD0DFE803F0020E2B2B394B5B6913F0800F94
S214404DE014BF4FF400424FF4FA42364B1A604DE07F
S214404DF0324B1B6A13F0807F03D0334A314B1A6024
S214404E0044E0324A2F4B1A602C4B1B6A03F0700367
S214404E10102B02D0202B04D038E02D4A294B1A60A4
S214404E2034E0294A274B1A6030E0244B1B6A13F0C3
S214404E30807F03D0244A234B1A6012E0234A214B3A
S214404E401A601E4B1B6A03F07003102B02D0202BF7
S214404E5004D006E01E4A1B4B1A6002E01A4A194B61
S214404E601A60164B1B6B03F00303022B134A07BF53
S214404E70936A926AD36AD26A1248C3F30A410368B5
S214404E8001FB0333D2B2B3FBF2F303600B4B1B6B55
S214404E9003F07003702B07D10A4A13680D49A1FB33
S214404EA003135B0813607047044B1B6B0549C3F341
S214404EB002120B68D3400B60704700BF00040E40E0
S214404EC010140E401C000020001BB70000093D00D7
S214404ED000127A00ABAAAAAA1A4B984207D84FF0FB
S214404EE08063194A136002F5007213607047174BCF
S214404EF0984206D8164B144A136002F500721360A7
S214404F007047144B984206D8134B0F4A136002F56D
S214404F10007213607047114B984206D8104B0A4AED
S214404F20136002F50072136070470E4B984294BFB0
S214404F304FF004230C4B044A136002F500721360D2
S214404F40704700BFFF2C3101000A0E40FF59620235
S214404F5000010004FF86930300020004FFB3C4046C
S214404F6000030004FFE0F50500050004094B1B683C
S214404F7013B9094A074B1A60064B1B681A180749AB
S214404F80914204DB1046034A1060184670474FF0C3
S214404F90FF307047DC0B002098EE0020FC7F02209C
S214404FA04FF0FF30704700BF4FF400534B60002077
S214404FB0704700BF012070470020704700F108038B
S214404FC043604FF0FF328260C3600361002303609A
S214404FD0704700BF00230361704700BF43685A68AC
S214404FE04A6042688A605A689160596041600861C8
S214404FF0036801330360704710B40C68B4F1FF3F98
S21440500001D103690AE000F10803C26812689442BD
S21440501004D35B685A6812689442FAD25A684A6067
S21440502091608B605960086103680133036010BC6F
S214405030704700BF436882689A60836842685A60D7
S21440504003695A68904204BF82685A60002202612F
S2144050501A68013A1A601868704700BF034800682B
S214405060006880F3088862B600DF00BF08ED00E005
S2144050704FF0807340F8043C40F8081C002340F88A
S2144050800C3C40F8202C4038704700BF064B19684F
S2144050900868B0E8F00F80F309884FF0000080F30E
S2144050A011884EF00D0E7047A4AC00204FF0805291
S2144050B0014B1A60704700BF04ED00E0EFF311802B
S2144050C04FF0A00181F311887047002008B5034BCC
S2144050D09847034A13680133136008BDBD5040002B
S2144050E02000002080F31188704700BF08B5044AAE
S2144050F01368013B136013B90020024B984708BD64
S21440510020000020E5504000EFF309800C4B1A6861
S21440511020E9F00F10602DE908404FF0A00080F322
S214405120118800F093FE4FF0000080F31188BDE830
S214405130084019680868B0E8F00F80F3098870479F
S214405140A4AC002008B54FF08052054B1A60054BC2
S2144051509847054B98470020044B984708BD00BF2A
S21440516004ED00E0BD5040005D5B4000E55040006F
S214405170034A044B1A600722043B1A60704700BF7C
S214405180BFD4010014E000E010B5094B1A6842F4A1
S21440519070021A601A6842F070421A60054B9847CF
S2144051A00024054B1C60054B9847204610BD00BFA9
S2144051B020ED00E071514000200000205D5040008E
S2144051C0124A00E01A4613688342FBD310B4516873
S2144051D05418A04203D140680144516010464168CB
S2144051E04418A3420CD10A4B1B689C4206D0636805
S2144051F01944416013681B68036002E0046000E0E5
S2144052000360904218BF106010BC7047E4AB0020AB
S214405210E0AB002038B504462B4B98472B4B1B6819
S2144052209BB92B4A2B4B13600021516049F6F07214
S2144052309818264D286049F6F475595199505A6089
S2144052401860254A1368103B1360002C37D004F1D1
S214405250100212F0070F1CBF22F007020832511E40
S21440526049F6FE73994227D819490C6801E0214651
S2144052701C4663689A4202D92368002BF7D1134B29
S2144052801B689C4218D00D68103523680B60636815
S2144052909B1A202B04D9A018436062600F4B984796
S2144052A00D4A136861685B1A13600D4B98474DB9F9
S2144052B00C4B9847002505E0094B9847F8E7084B04
S2144052C09847F5E7284638BD2D5B4000E0AB002008
S2144052D0E4AB0020E00B002024000020C151400039
S2144052E07D5C40005167400080B110B50446084BD5
S2144052F09847084A54F80C1C13680B441360A4F1F2
S2144053001000054B9847054B984710BD704700BFA7
S2144053102D5B400024000020C15140007D5C4000D1
S21440532010B50446036C3BB903681BBB4068134B7F
S2144053309847002363601DE06AB91A468068104BA0
S2144053409847A268236C1344A3606268934211D3C3
S2144053502368A3600EE01A46C068094B9847236C42
S2144053605B42E2681A44E26021688A4202D262687E
S2144053701344E360A36B0133A36310BD7D6140001B
S2144053801578400038B50346006858B11A6CDC689A
S2144053901444DC605D68AC4228BFD8600846D968D3
S2144053A0014B984738BD00BF15784000F8B5044615
S2144053B01E4B9847A36C002B13DD636A1BB910E0A5
S2144053C0636A23B90DE004F12406194D194F30469F
S2144053D0A84700B1B847A36C013BA364A36C002B5D
S2144053E0EEDC4FF0FF33A364134B98470F4B9847C0
S2144053F0636C002B13DD23691BB910E0236923B9C6
S2144054000DE004F110060A4D0A4F3046A84700B199
S214405410B847636C013B6364636C002BEEDC4FF073
S214405420FF336364044B9847F8BD00BFCD5040003F
S214405430955F4000C5604000ED50400038B518B953
S214405440174B984700BFFDE70D460446154B984757
S2144054502268216CE36B03FB01F3D01860600020E8
S214405460A063A2605B1A1344E3604FF0FF336364AB
S214405470A36455B923697BB104F110000A4B9847E1
S214405480012809D1094B984706E004F11000084D61
S214405490A84704F12400A847064B9847012038BD8A
S2144054A0BD504000CD504000955F4000AD5040009C
S2144054B0BD4F4000ED504000F8B5A0B10D46174630
S2144054C0064650200E4B9847044660B105FB06F052
S2144054D001300B4B9847206040B92046094B98470F
S2144054E001E000BFFDE7084B9847FAE7E66325640E
S2144054F001212046054B984784F84D702046F8BD5C
S21440550015524000E9524000BD5040003D54400016
S2144055102DE9F04F85B00192009318B9384B984763
S21440552000BFFDE78A46044629B9036C2BB1344BCD
S214405530984700BFFDE7002700E00027314EDFF820
S214405540ECB0314DB047A26BE36B9A4212D2009A50
S214405550514620462D4B9847636A3BB104F12400E0
S2144055602B4B9847012801D12A4B9847264B984702
S214405570012042E0019B1BB9234B984700203CE0AA
S21440558017B902A8D8470127A847234B9847B047E2
S214405590636CB3F1FF3F04BF00236364A36CB3F1B5
S2144055A0FF3F04BF0023A364A84701A902A81B4BE2
S2144055B09847E0B9B047D4F83890D4F83C80A8472C
S2144055C0C1450ED1019904F11000154B984720466D
S2144055D0144B9847144B98470028B3D10D4B984727
S2144055E0B0E720460F4B98470F4B9847AAE7204610
S2144055F00C4B98470C4B9847002005B0BDE8F08F01
S214405600BD504000CD504000ED504000215340007A
S214405610955F4000AD5040002D5B4000416040002B
S214405620F15E4000AD5340007D5C40001960400094
S2144056302DE9F04118B91E4B984700BFFDE70E46CE
S21440564015469846044629B9036C1BB1184B984733
S21440565000BFFDE7164B98470746A26BE36B9A429E
S21440566018D2424631462046124B9847A36CB3F1B7
S214405670FF3F0AD1636A7BB104F124000E4B984782
S21440568060B16DB101242C600BE0A36C0133A364C0
S214405690012406E0002404E0012402E0012400E0A6
S2144056A001243846054B98472046BDE8F08100BFA8
S2144056B0BD50400021534000955F4000E5504000FB
S2144056C02DE9F04F85B0019218B9464B984700BF78
S2144056D0FDE789469A46044629B9036C2BB1414BEF
S2144056E0984700BFFDE7002700E000273E4EDFF862
S2144056F028B13E4DB047A36B43B3E56849462046C4
S2144057003B4B9847BAF1000F12D1A36B013BA36302
S214405710236813B9374B98476060236993B104F107
S2144057201000354B984701280CD1344B984709E078
S214405730E560636A33B104F124002F4B984708B103
S2144057402E4B9847294B9847012048E0019B1BB9B0
S214405750264B9847002042E017B902A8D8470127B1
S214405760A847274B9847B047636CB3F1FF3F04BF49
S21440577000236364A36CB3F1FF3F04BF0023A3641C
S214405780A84701A902A81F4B984710BBB047D4F8BA
S2144057903880A847B8F1000F15D1236823B9B04721
S2144057A06068194B9847A847019904F12400174BA5
S2144057B098472046164B9847164B9847002899D14D
S2144057C00E4B984796E72046114B9847114B984703
S2144057D090E720460E4B98470E4B9847002005B062
S2144057E0BDE8F08FBD504000CD504000ED50400029
S2144057F085534000D1604000955F4000AD5040006A
S2144058002D5B400041604000FD604000F15E40007E
S214405810AD5340007D5C40001960400038B50446FA
S2144058200D460D4B9847636CB3F1FF3F04BF002312
S2144058306364A36CB3F1FF3F04BF0023A364074B2C
S2144058409847A36B23B9294604F12400044B984794
S2144058502046044B984738BDCD504000ED504000A0
S214405860515F4000AD53400010B50F4B1B68586069
S2144058700E4B1B68984207D20D4B18680A4B1968A6
S21440588004310C4B984710BD04460B4B1868064B2A
S21440589019680431074B9847084B1B689C423CBF2D
S2144058A0064B1C6010BD00BFA4AC0020C0AC00205E
S2144058B0C4AC0020F94F400000AC00202800002077
