:020000040040BA
:1000000010EF0020F1554000D9554000D95540006F
:10001000D9554000D9554000D95540000000000096
:1000200000000000000000000000000069594000CE
:10003000D955400000000000E5594000215A400019
:10004000D9554000D9554000D9554000D9554000F8
:10005000D9554000D9554000D9554000D9554000E8
:10006000D9554000D955400000000000D55340004C
:10007000E9534000FD534000D9554000D955400098
:100080000000000000000000D9554000D955400094
:10009000D9554000D9554000D9554000D9554000A8
:1000A000D9554000D9554000D9554000D955400098
:1000B000D9554000D9554000D9554000D955400088
:1000C000D9554000D9554000D955400010B5054CD0
:1000D000237833B9044B13B10448AFF300800123F4
:1000E000237010BDD008002000000000082D410042
:1000F000084B10B51BB108490848AFF30080084809
:10010000036803B910BD074B002BFBD0BDE81040BE
:10011000184700BF00000000D4080020082D41004F
:10012000082D410000000000F0B4C2F307250029AB
:1001300052D00E460178A94247D105E0074610F893
:100140000C4BAC4243D100E00746002B57D03C6833
:100150007868B9681C6058609960D98811B159886D
:1001600000294CD1120E02F00301032913D8DFE855
:1001700001F002060A0E4FF48061598032E04FF41C
:10018000006159802EE04FF4805159802AE04FF4ED
:100190000051598026E002F03002102A0AD001DC1A
:1001A0002AB11BE0202A08D0302A0AD016E04022CB
:1001B000DA8024E08022DA8021E04FF48072DA8055
:1001C0001DE04FF40072DA8019E00C30002101319B
:1001D0008E42B3D1082013E0082011E000200FE088
:1001E00000200DE002F03002102AE3D002DC002AE9
:1001F000DDD0F5E7202AE0D0302AE2D0F0E7002079
:10020000F0BC704783889B02C08893FBF0F080B2FB
:10021000704700BFC28883889B0293FBF2F39BB2B6
:100220009202408892FBF0F000FB03F0704700BFA1
:1002300082881005110B7047C3889B02408893FB8E
:10024000F0F07047C0888002704700BF4088704758
:1002500040884009704700BF437803F00103002B3A
:1002600014BF1020082070474088B0F5007F8CBF75
:1002700000200120704700BFC36870221A704369D4
:10028000187800F04100402814BF0020012070477A
:1002900038B54D25024C2846A0470028FBD038BD74
:1002A00041504000F8B506460D46084B984760B1EE
:1002B0000446074F3046B84710283369EAB20CBFEE
:1002C0001A801A702D0A240AF4D1F8BD15024000D4
:1002D0005902400070B505460E461446194B984722
:1002E000102801D02CBB70BD46EA040313F0010FA7
:1002F00013D0721C24F00100002103E002311B0A1C
:1003000002F8023C8C421CD96B691B889BB202F834
:10031000013C0232814214D0F0E7620811D006EBB2
:10032000420132466B691B8822F8023B8A42F9D1AE
:1003300070BD334632196869007803F8010B9342A7
:10034000F9D170BD5902400070B505460E461446FD
:100350001B4B9847102801D044BB70BD46EA0403EC
:1003600013F0010F16D04CB301210022B35C8C4274
:100370000AD90232705C03EB00239BB268690380E8
:1003800002319442F2D870BDA3F580739BB26A69C2
:10039000138070BD620811D006EB420032466B69D3
:1003A00032F8021B19809042F9D170BD33463219E0
:1003B000686913F8014B04709A42F9D170BD00BF0F
:1003C00059024000F8B506460D460D4B98470446C5
:1003D00030460C4B9847102808BF6D08022C0DD9E9
:1003E000084F3046B84710283369EAB20CBF1A806C
:1003F0001A70C4F30F242D0A022CF2D8F8BD00BFE6
:100400004D0240005902400010B504464E20054BF5
:100410009847E368FF221A70034B98474E20034B1E
:10042000984710BD79504000910240005D50400057
:1004300010B504464E200E4B9847E36890221A7080
:10044000236900221A7009200A4B984761690878CD
:100450000C780A78120442EA042440EA04030C7877
:1004600043EA04644E20044B9847204610BD00BF69
:1004700079504000010000205D5040002DE9F0411E
:1004800004460E4690461F460A201F4DA8470D20E1
:10049000A84701201D4B98471D4D4FF00122002118
:1004A00028461C4B98471C4A002128461B4B98475E
:1004B0001B4A002128461B4B98470322002128464F
:1004C000194B9847C4F80C802761069B636120464E
:1004D000164B984742F27C10154B98476EB9204650
:1004E000144B9847234602463A211348134CA04721
:1004F000002818BF0820BDE8F08196E8070084E8CE
:1005000007000020BDE8F0817D554000050840004F
:1005100000000E40E507400002030404ED07400020
:1005200004000700F5074000FD07400009044000F3
:100530000100002031044000700A41002901400000
:100540002DE9F047044689460225DFF86C80144FF8
:10055000144E2046C04700FB09FA4E20B847E36816
:1005600060221A7051462046B047E368D0221A70C4
:1005700046F273400C4B98470C4B984720460C4B67
:10058000984728B14E200B4B98470020BDE8F087D4
:100590004E20084B9847013DDBD10C20BDE8F08789
:1005A00079504000A5024000010000209102400067
:1005B000790240005D504000390240002DE9F047CB
:1005C00004468A4615461E46324B984780462046CA
:1005D000314B984707462046304B98478146204686
:1005E0002F4B984700FB0A554E202E4B9847002E64
:1005F0004AD1B8F1000F11D01FB9E368002119707A
:1006000003E0E36850221A70394689B22046264B2F
:10061000984729462046254B98470EE03946E3681F
:1006200000221A7089B220461F4B9847294620465F
:100630001E4B9847E36830221A704FF481701C4BB0
:1006400098471C4B984796B1E36800221A7009201E
:10065000174B98473A4631462046174B9847089B18
:100660006BB14A4619462046134B984707E0E368AA
:1006700000221A704A46089920460F4B98474E2090
:100680000E4B9847BDE8F087B8F1000FB5D10021B7
:10069000C5E700BF690240004D0240005102400022
:1006A0003902400079504000C5034000A5024000D7
:1006B0000100002091024000D50240005D50400042
:1006C0002DE9F04F87B004468846914601930225F4
:1006D000DFF808B1DFF808A1374E2046D84702906E
:1006E0002046D04703902046B04700FB08974E2095
:1006F000324B9847019B002B46D0E36880221A704A
:10070000002120462E4B9847394620462D4B9847CE
:10071000029A019920462C4B9847109B2BB1039AC3
:1007200019462046284B984705E002220DF1160194
:100730002046264B9847E36810221A70244B9847AE
:100740002046244B984700282BD02EE0E3688022D7
:100750001A70029920461A4B984739462046194B81
:100760009847039A10992046174B9847E368102240
:100770001A70174B98472046164B984740B10BE02C
:10078000013DAAD10C2014E0109B002BDED103E028
:100790004E20114B9847F3E74E200F4B984700200F
:1007A00007E04E200C4B9847EAE74E200A4B98474B
:1007B000002007B0BDE8F08F3902400079504000BA
:1007C000C5034000A502400049034000D502400097
:1007D00091024000790240005D5040004D0240000F
:1007E0005102400009014250704700BF00EB011167
:1007F0004A60704700EB01118A60704700EB0111FD
:10080000CA607047014BC3F81C01704700020E40DC
:10081000F0B48CB007460E4601AC114D0FCD0FC49D
:100820000FCD0FC495E8070084E8070001AA002057
:1008300052F8043BB6FBF3F3B3FBF7F3B3F5807F59
:1008400005D901300B28F3D14FF6FF7005E00A28D7
:1008500094BF43EA00204FF6FF700CB0F0BC704725
:10086000B40E410070B506460C46086840B1896870
:100870000E4B984705464FF6FF73984201D10EE0A4
:100880000025606840B1A168084B98474FF6FF7398
:10089000984207D045EA00453560002070BD4FF60C
:1008A000FF7070BD4FF6FF7070BD00BF11084000B3
:1008B00070B40B684A6802F00F028C8A22430C89DC
:1008C00022438C7A42EA44228C7D42EA0442CC7D67
:1008D00042EA44420C7E42EA844200EB4314C4F8EC
:1008E0000022CA68C4F804220A69C4F80C228A7D6E
:1008F0003AB18C8B4A8B42EA044200EB4314C4F8B1
:100900001822846C4FF001129A40D24304EA020587
:10091000CC7F04FA03F68C7F9C4044EA06442C43C7
:100920008464446C224091F8214004FA03F591F864
:1009300020409C4044EA05442243426401229A40FC
:1009400091F822401CB1046A1443046203E0046A73
:1009500024EA0204046291F82440012C846E0CBF46
:1009600014439443846691F82540012C846E0CBF97
:1009700044EA024224EA02428266DB00C46EFF229D
:100980009A4024EA020291F8231001FA03F3134378
:10099000C366002070BC70470B69934207D30B6895
:1009A000CA6000EB4310C0F80822002070474FF6E1
:1009B000FF707047012303FA01F14160704700BFE7
:1009C000012303FA01F18160704700BF10B489016F
:1009D0004318022444504FF0FF319962196A5A605B
:1009E00010BC7047890105234350704700EB81110B
:1009F0004A61704700EB81118A61704700EB8111F9
:100A0000CA6170472DE9F04782B00021294B198057
:100A10002948016041608160C160016141614FF01E
:100A2000C043009303F50013244A254CA04728B186
:100A30002448254B98474FF0FF3A04E02348224BC7
:100A400098474FF0000A1C4C2046214B9847DFF88E
:100A5000B890C9F8000020461E4B9847DFF8AC80DC
:100A6000C8F8000020461C4B98471C4F38602046B1
:100A70001B4B98471B4E306020461B4B98471B4D25
:100A80002860D9F800101A480F4CA047D8F8001079
:100A90001848A04739681848A0470A211748A047B6
:100AA00031681748A04729681648A047504602B049
:100AB000BDE8F08758AD0020F0080020000040603D
:100AC0007D044000E00E410001874000F80E410027
:100AD00031024000450240000502400008090020A4
:100AE0004D02400010090020390240001409002086
:100AF0001C0F41004C0F4100880F4100BC0F41000A
:100B0000F40F41002C104100EC0800200C090020DB
:100B10002DE9F04383B005460C464FF0FF32274BDA
:100B20001A602748274B9847274800F8014B224670
:100B30002946264B98470023254A1380254A1360EF
:100B400019469846244D254E1C4C89B22846B0477C
:100B500020600C2805D11F4B19682148194B984774
:100B60001FE01C4FDFF868903A68B9F800101D4884
:100B7000144B9847B9F80020398800230093124B92
:100B80002846194FB847206020B9124B1A68174BF6
:100B90001A800EE00F4B1A680D4B19881448094B48
:100BA00098470C4B1968013119604FF0FF0809296B
:100BB000CBD94FFA88F003B0BDE8F083A0B5002090
:100BC0006010410001874000A8B50020B98C4000AA
:100BD000A4B500205CAD0020F008002041054000D5
:100BE00084104100A4104100C106400058AD00200F
:100BF000E01041002DE9F04383B0804600231D4AF8
:100C000013601D4A13801D4B1A881D4B1A60092A58
:100C100025D8194DDFF888901A4E29884846B047E4
:100C20002A88174B1988184C0094184B1848194FEC
:100C3000B8472378FF2B04D1114B1A680F4B1A8049
:100C40000DE04FF0FF320B4B1A600D4C22682988E3
:100C50001148B047226801322260092ADDD90B49C8
:100C600011F8014B224640460C4B9847204603B0F2
:100C7000BDE8F083A0B50020A4B5002058AD002049
:100C80005CAD00200187400060AD0020A0AD0020D9
:100C9000F0080020BD05400044114100B98C40001F
:100CA0002011410010B584B00223ADF8003040F6A9
:100CB0002773ADF80230030E43EA0062030203F427
:100CC0007F031343000A00F47F4018430190184B40
:100CD000984700211748184B9847184B93F9003054
:100CE000002B22DA002201210220154B9847134BDA
:100CF0001870002804DA1348134B9847134B984791
:100D0000102269460D4B93F90000114B98470028BB
:100D10000BDA10480C4B9847084C94F900000E4B26
:100D20009847FF232370094B984704B010BD00BFBC
:100D300095444000C90E4000D94440000F000020F7
:100D4000ED444000A011410001874000C52F400044
:100D5000C9464000DC1141006549400000B585B03E
:100D60000E4B984700210E480E4B98470022022157
:100D700008460D4B98470D4B18700223ADF8003014
:100D800048F21363ADF80230002301931022694644
:100D9000074B984705B05DF804FB00BF9544400041
:100DA000C90E4000D9444000ED4440000D00002031
:100DB000CD45400000B585B00F4B984700210F4846
:100DC0000F4B98470022012102200E4B98470E4BF3
:100DD000187000280CDB0223ADF8003048F21373C2
:100DE000ADF802300023019310226946074B984763
:100DF00005B05DF804FB00BF95444000C90E4000FB
:100E0000D9444000ED4440000E000020CD45400094
:100E100070B5C6B006460C461B4B984700211B48D0
:100E20001B4B98470022022108461A4B98471A4B41
:100E30001870002826DB05460223ADF80831174B51
:100E40001A88130A43EA0223ADF80A31230E43EA53
:100E50000462230203F47F031343240A04F47F444F
:100E60001C434394FF242246314602A80C4B98476A
:100E70001023019342AB00930023224602A9284687
:100E8000084CA04746B070BD95444000C90E4000D4
:100E9000D9444000ED4440000C00002030BE00204A
:100EA000B98C40000948400008B50122034B1A7074
:100EB000034B9847034B984708BD00BFB0BD0020C7
:100EC0005D0D4000B50D40002DE9F041C4B0154660
:100ED000984B93F90040844240F08380052956D115
:100EE000002A47D092F90130002B43DBDFF8D8828B
:100EF00041F28632414603A88F4FB8478D4E0023FA
:100F0000042203A996F900008C4DA84741F28732CC
:100F1000414603A8B8470023042203A996F900001C
:100F2000A84741F28532414603A8B847002304226E
:100F300003A996F90000A84700230422804920460F
:100F4000804CA047804B93F90030804A92F90020F2
:100F50007F4909687F480078009004A87E4CA0472C
:100F6000002800F060810023FF2204A996F9000008
:100F7000A84758E179487A4B98476E4C94F900009D
:100F8000784B9847FF232370774B98474BE106290E
:100F900040F04981C2B1B2F90430002B14DD0A22BD
:100FA00000216748714B9847714B188081B2714896
:100FB0006B4B98475F4C94F900006A4B9847FF23AE
:100FC00023706D4B98472EE16C48654B9847594C00
:100FD00094F90000634B9847FF232370624B9847B6
:100FE00021E1674B93F90030834228D101290BD1CD
:100FF00092F9003023B9FF226249634CA04715E003
:101000006248574B984711E0062901D009290DD1B4
:101010002B685BB1B5F90430FF2B07D1594C214641
:101020005B484F4B984720465A4B98470023FF2276
:101030005449534890F90000534CA047F3E0564BF5
:1010400093F90030834246D1012911D192F9003041
:101050001BB90021514B9847E5E05148404B984758
:101060004D4C94F900003F4B9847FF232370DAE082
:10107000022913D13AB192F9003023B90022114666
:10108000484B9847CFE0374B9847FF22424B1A70A6
:101090004548334B9847454B9847C4E0042940F0F6
:1010A000C2806AB1002211463E4B984795F9000074
:1010B0003F4B18700023FF223E49224CA047B2E06C
:1010C000284B9847FF22344B1A703B48244B9847D3
:1010D000364B9847A7E0364B93F90030834240F0F7
:1010E0008E80062940F09F801368002B00F09B80C3
:1010F000B2F90430002B40F396802E4C21462F4845
:10110000174B98472046234B984700285ED12C4B1D
:1011100093E803000490ADF814102A48104B984748
:101120000023062204A9224890F90000034CA0479E
:101130005DE000BF0F0000201590400069474000AF
:10114000180B0020C1484000FCBD0020CCBD002091
:1011500028BE0020B8BD0020391B400020124100ED
:101160000187400065494000C52F4000DDAB4000CD
:1011700030BE002050124100A90E40007412410000
:101180000D00002018090020E9494000A412410088
:10119000CC124100091540000E00002045464000D9
:1011A000FC124100A54640002C134100B50D400043
:1011B00010000020180A00206C1341009C1341000D
:1011C000D4134100DC1341001C124100174B93E87B
:1011D00003000490ADF814101548164B98470023EF
:1011E000062204A9144890F90000144CA047124CA0
:1011F00094F90000124B9847FF23237013E0114B22
:1012000093F9003083420ED108290CD10E48094BC6
:1012100098470C4B93F90000002804DD084B9847D1
:10122000FF22084B1A7044B0BDE8F0812814410039
:101230003014410001874000100000206947400041
:10124000654940000C0000208414410008B5FF22CD
:10125000154B1A70154B93F90000002804DD144B50
:101260009847FF22114B1A70124B93F90000002887
:1012700004DD0F4B9847FF220E4B1A700E4B93F96B
:101280000000002804DD0A4B9847FF220A4B1A7021
:101290000A4B93F90000002804DD054B9847FF2214
:1012A000064B1A7008BD00BFB0BD00200F00002023
:1012B000654940000D0000200E00002010000020B5
:1012C00030B583B00C462C2802D0322811D036E03D
:1012D0000B78012B02D11B4B984730E0002B2ED10D
:1012E0000022194B1A701948194B9847194B984707
:1012F00025E00122144B1A701748154DA847A37812
:1013000062782178E07800901448A847A379627940
:101310002179E07900901248A847124D217962792D
:10132000130443EA0162E3791343A27943EA0223F7
:101330002B600D480D4B984728680D4B984703B01C
:1013400030BD00BFE52F40001C0B0020AC14410055
:10135000018740004D124000C8144100E0144100D4
:1013600000154100B4BD002037140D00010000201D
:10137000A50C400000B587B00023019302930393AE
:1013800004930593064B00936846064B984720B19B
:1013900001460548054B9847FEE707B05DF804FB9A
:1013A000C1124000BD2E40002C15410001874000B5
:1013B00008B50520054B984710B10548054B9847DF
:1013C000054B19680548034B984708BDE92F4000B5
:1013D000581541000187400028BE002084154100B7
:1013E0002DE9F04100AF05460C461C4B19681C4B1B
:1013F000984700282DD0E84604F1140323F0070392
:10140000ADEB030D174B07CB0090019102921B78B7
:101410008DF80C30224629460DF10D00124B9847ED
:101420006846124B9847C1B26846114B984718B1AD
:101430001048114B9847FEE7084E30680F4B98470D
:1014400020460F4B9847306022462946064B984766
:10145000C5460020BD46BDE8F08100BF28BE002083
:1014600049914000B8154100B98C400041944000BA
:101470004D304000C81541000187400039874000C9
:101480002987400008B5642828BF642088B14FF43C
:10149000E16303FB00F00B4A82FB0032C017C0EB94
:1014A000621202F5167240F6B8316420064B984776
:1014B00008BD4FF4967240F6B8316420024B98474D
:1014C00008BD00BF1F85EB51651D400008B56428AD
:1014D00028BF642070B14FF4E16303FB00F0084BB8
:1014E00083FB0023C017C0EB631000F51670054B9B
:1014F000984708BD4FF49670024B984708BD00BF4F
:101500001F85EB51ED1D40002DE9F04FCDB0014698
:101510000190FF220CA8894B984789490CA8894B58
:101520009847002800F0988087490CA8874B984777
:101530000546002800F08D804FF0000A54464FF019
:10154000FF38834FDFF8589256463A212846B8476D
:1015500010F1010B74D058212846B84750B13146DC
:1015600058467C4B98477C4B98478DF80C000134CB
:10157000E4B231E059212846B84750B131465846C7
:10158000744B9847744B98478DF80D000134E4B2C2
:1015900022E0724928466B4B984760B13146584665
:1015A0006C4B98476C4B98478DF810000AF1010A74
:1015B0005FFA8AFA10E06A492846624B984758B1A8
:1015C00031465846634B9847634B98478DF8110056
:1015D0000AF1010A5FFA8AFA3146D9F80000614B34
:1015E0009847012820D8022C0DD13346324603A952
:1015F000D9F800005C4DA84701281BD000BB5B4810
:101600005B4B98471CE0BAF1020F15D133463246C6
:1016100004A9D9F80000544DA84701280FD078B983
:101620005248534B98470BE05248514B98476FF044
:10163000010805E0B04603E06FF0010800E0B046A5
:1016400041493046414B9847054600287FF47DAF1D
:1016500021E14FF0FF381EE147490CA8394B98476C
:10166000002800F0FD8038490CA8384B9847044604
:10167000002800F0F8804FF0FF3AD146D34600260C
:10168000DFF8CC802F4F3A212046C047451C28D098
:101690003A492046B84718BB39492046B84738B1BF
:1016A0000A2200212846374B98474FFA80FB18E062
:1016B00035492046B84738B10A2200212846314B27
:1016C00098474FFA80F90CE030492046B84740B1BE
:1016D0000A22002128462B4B98474FFA80FA00E057
:1016E0002E4619490020194B984704460028CAD1B4
:1016F000002E00F0BB80BBF1000FC0F2BA80B9F140
:10170000000FC0F2B980BAF1000FC0F2B8803046C5
:101710001F4B9847411CC9B230461E4B98470028C2
:1017200000F0B0801C48124B98476FF00208B2E0FE
:1017300001231A4A13708DF80C3038E0B98C400040
:1017400000164100DD9840000816410041AA400003
:10175000619040000DAA4000198640000C1641001F
:1017600010164100195D4000ED5D40001416410067
:101770000187400030164100541641005C164100BC
:1017800064164100DDAB4000701641007C1641003C
:1017900041944000E11340008C164100CCBD002074
:1017A000C4BD0020FF233E4A13708DF80C30BBF1FE
:1017B000000FCCBF0123FF233A4A13708DF80D3080
:1017C000394B83F800A08DF80EA00021374B186824
:1017D000374B984701281BD83046364CA04701307C
:1017E0008DF810003046A047421C31460DF1110023
:1017F000314B984700231A4604A92C4800682F4C07
:10180000A04758B92E482F4B98474FF0FF3807E0B4
:101810002D482C4B98474FF0FF3801E04FF000085F
:1018200000212A4B1868224B984701280FD100232A
:101830001A4603A925480068204CA04701280CD06F
:1018400048BB23481F4B98474FF0FF3823E01E4802
:101850001C4B98474FF0FF381DE04FF000081AE08E
:101860004FF0FF3817E06FF0020814E06FF0020845
:1018700011E06FF002080EE06FF002080BE06FF06D
:10188000020808E0FF210198124B9847B9F1000FB8
:101890003FF74EAF86E740464DB0BDE8F08F00BF42
:1018A000CCBD0020FCBD0020B8BD0020ACBD002098
:1018B000195D400041944000B98C4000ED5D40004E
:1018C000AC1641000187400030164100BCBD00202D
:1018D000C8164100110B40002DE9F04F83B000AF56
:1018E00005468A4690469B46B7F83090BE8EFF224A
:1018F0000021864B9847864B186828609B88AB80F0
:101900003B23AB71BAF1000F17D0824B1868C5F8B2
:1019100007003A23EB7250467F4B9847C4B22246E9
:10192000514605F10C007D4B984704F10C03DBB2E6
:101930003B22EA540D34E4B200E00724B8F1000F72
:1019400031D0C7F804D02A19754B186828519988E6
:101950009B7991809371E31DDBB23A22EA540834FB
:10196000E4B2B8F1630F92BF4FF0020A4FF0030ADE
:101970004FF064084FEA8A030A3323F00703ADEB04
:10198000030D424667496846674B98475246694689
:101990002819624B98475444E4B23B232B55013439
:1019A000E4B2D7F804D0BBF1000F17D02B195F4A6F
:1019B0001068285192889A80A31DDBB23A22EA541B
:1019C000E31DDBB2BBF1000FB4BF30223122EA5479
:1019D0000834E4B23B232B550134E4B2B9F1000FD3
:1019E00042D0002E00F08680E8462A19504B186835
:1019F00028511B791371631DDBB23A22EA54063475
:101A0000E4B2092E0DD9632E0ED9B6F57A7F0ED326
:101A100042F20F7A564594BF4FF0040A4FF0050A80
:101A200007E04FF0010A04E04FF0020A01E04FF036
:101A3000030A4FEA8A030A3323F00703ADEB030DD1
:101A40004A4638496846384B9847524669462819ED
:101A5000324B98475444E4B23B232B55631CDBB212
:101A6000C546B14549D902E0002E46D148E0E846D6
:101A700005EB030E2F4A03CAE850CEF80410137882
:101A80008EF8083004F10A03DBB23A22EA540B3430
:101A9000E4B2092E0DD9632E0ED9B6F57A7F0ED396
:101AA00042F20F794E4594BF4FF004094FF00509FB
:101AB00007E04FF0010904E04FF0020901E04FF0A8
:101AC00003094FEA89030A3323F00703ADEB030D43
:101AD000324614496846144B98474A4669462819C5
:101AE0000E4B98474C44E4B23B232B550134E4B2EF
:101AF000C54605E04FF0FF3003E04FF0FF3000E057
:101B000060B20C37BD46BDE8F08F00BFED8D4000E0
:101B1000E81641005C16410041944000B98C400039
:101B2000F01641001C12410015904000F8164100CB
:101B300000174100081741002DE9F84F00AF80461B
:101B40000D4616461C4697F82890FF2200215E4B52
:101B500098475E4B1868C8F800009B88A8F80430C6
:101B60003B2388F806300DB32846594B98471E286A
:101B70001FD8584B1868C8F807003A2388F80B306C
:101B80002846534B98475FFA80FA5246294608F197
:101B90000C00514B98470AF10C03DBB23B2208F8CA
:101BA00003200AF10D03DBB2002505E00723002521
:101BB00002E007234FF0FF3516B308EB030E474A48
:101BC00003CA48F803007046CEF8041012788EF865
:101BD000082003F10902D2B23A2108F8021003F1F9
:101BE0000A02D2B2002EB4BF3021312108F802100F
:101BF00003F10B02D2B23B2108F802100C33DBB226
:101C0000ECB108EB0306364A03CA48F803007160DA
:101C100003F10802D2B23A2108F8021003F10902D6
:101C2000D2B2002CB4BF3021312108F8021003F1E8
:101C30000A02D2B23B2108F802100B33DBB2B9F131
:101C4000000F3AD06E4608EB030E264C07CC48F83E
:101C50000300CEF80410CEF8082003F10C02D2B233
:101C60003A2108F802100D33DCB2B9F1090F07D997
:101C7000B9F1640F34BF4FF0020A4FF0030A01E0DC
:101C80004FF0010A4FEA8A030A3323F00703ADEB52
:101C9000030D4A4614496846144B98475246694614
:101CA00008EB04000C4B98470AEB0403DBB23B2221
:101CB00008F803200133DBB2B546002DACBF58B2A3
:101CC0002846BD46BDE8F88FED8D40005416410012
:101CD000419440005C164100B98C400070164100F0
:101CE000641641007C1641001C1241001590400012
:101CF00010B582B0FF238DF804308DF80530012334
:101D00008DF806300021114B1868114B98470128B7
:101D10000FD100231A4601A90C4800680D4CA047BA
:101D200001280CD068B90C480C4B98474FF0FF3095
:101D300009E00B48094B98474FF0FF3003E00020C3
:101D400001E04FF0FF3002B010BD00BFBCBD00206D
:101D5000195D4000ED5D4000C8164100018740005C
:101D6000301641002DE9F04184B005460E469046FC
:101D70004FF080515320144B98471F20134B984726
:101D8000134C01212046134B984706FB05F501959E
:101D900000270297104B039301A920460F4B984749
:101DA0000F4901250D600F818D720B234B600E6171
:101DB000C1F80C8020460B4B9847294620460A4B19
:101DC000984704B0BDE8F081955040007D55400033
:101DD00000000240C1094000000E270765084000CE
:101DE000D0BD0020B1084000B509400008B5044945
:101DF00001230B6002460348034B984708BD00BF10
:101E0000D0BD002000000240990940002DE9F843B0
:101E100007460E4615464FF07E5130462D4B9847EB
:101E200030B9002130462C4B984718B1002601E00C
:101E30004FF07E564FF07E512846264B984730B9DA
:101E400000212846244B984718B1002501E04FF0A7
:101E50007E554FF080515A20204CA0474FF08051C2
:101E60005B20A0471B201E4B98471E4C1E4A012199
:101E700020461E4B98471E4AB2FBF7F21D4F3A60B0
:101E8000012120461C4B984738681C4B98478046D8
:101E9000DFF8809031464FF07E50C847184F4146DA
:101EA000B847184EB047024601212046164B9847C6
:101EB00029464FF07E50C8474146B847B0470246D2
:101EC00001212046114B984701212046104B98478D
:101ED000BDE8F88305864000C98540009550400064
:101EE0007D5540000040014003C40909CD09400070
:101EF0001C4E0E00A8BD0020FD094000DD81400001
:101F00008D82400065864000ED094000F5094000E3
:101F1000E50940007980400038B504464FF07E5115
:101F2000104B984730B9002120460F4B984718B105
:101F3000002401E04FF07E540C4B18680C4B98477E
:101F4000054621464FF07E500A4B984701462846E9
:101F5000094B9847094B9847024601210848094B0D
:101F6000984738BD05864000C9854000A8BD0020BF
:101F7000DD814000798040008D8240006586400010
:101F800000400140ED09400038B504464FF07E5155
:101F9000104B984730B9002120460F4B984718B195
:101FA000002401E04FF07E540C4B18680C4B98470E
:101FB000054621464FF07E500A4B98470146284679
:101FC000094B9847094B9847024601210848094B9D
:101FD000984738BD05864000C9854000A8BD00204F
:101FE000DD814000798040008D82400065864000A0
:101FF00000400140F509400008B503490A46322077
:10200000024B984708BD00BF9A99993D0D1E4000AC
:1020100010B5B42828BFB4200D4B98470AA3D3E9C4
:1020200000230C4CA04700220B4B0C4CA04706A3EE
:10203000D3E900230A4CA0470A4B98470A4B98471C
:1020400010BD00BFAFF300809A9999999999A93F63
:1020500065794000317A400000806640857C400010
:10206000CD764000D17F4000191F400000000000E5
:1020700010B5B42828BFB4200D4B98470AA3D3E964
:1020800000230C4CA04700220B4B0C4CA04706A38E
:10209000D3E900230A4CA0470A4B98470A4B9847BC
:1020A00010BD00BFAFF300809A9999999999A93F03
:1020B00065794000317A400000806640857C4000B0
:1020C000CD764000D17F4000891F40000B2807D10A
:1020D000022905D108B5034B1B6803B1984708BD19
:1020E000704700BF200B002048B170B5044642F293
:1020F0007C16034D3046A847013CFBD170BD7047AC
:102100000100002038B50620084CA0471820A04741
:102110006420074CA0470620064DA8470A20A04788
:102120001820A8470A20A04738BD00BF79504000BA
:10213000E92040005D50400038B500220E4B1A6087
:102140000E4D294618200E4CA04729460620A047D0
:1021500029461920A04701210B20A0470B20094B3D
:102160009847094B1B6813F0010F1CBF064B1B68F7
:10217000064B9847002038BD200B0020010000309E
:10218000955040005D50400010E000E00521400007
:1021900010B5114B18600B20104B98474FF0205191
:1021A00001200F4B98470F4C0122022120460E4B75
:1021B00098470E4A102101200D4B984720460D4BA1
:1021C0009847022120460C4B984700220B212046BD
:1021D0000A4B984710BD00BF200B00207D554000E2
:1021E00095504000000E0E40094F4000CD204000A9
:1021F0008D53400039504000315040001154400090
:1022000010B540B1064C2046064B984702212046A7
:10221000054B984710BD02210148044B984710BD5B
:10222000000E0E4039504000315040003550400003
:10223000F8B5294D29460C20284CA04729460D20E9
:10224000A04729460E20A0474FF060510B20A04721
:10225000234E244B33604FF400651D63224C20460F
:10226000224B98470223236080232360636843F056
:1022700001036360636843F010036360636823F0E5
:1022800002036360002211462046194B9847012241
:1022900000212046174B9847002211462046164B36
:1022A0009847032200212046144B984700231A46E2
:1022B00019462046124FB847012323601148124B9C
:1022C000186040F20221114B9847114B9847336830
:1022D0001D630020F8BD00BF0100000895504000BC
:1022E00034BE0020000E0E4000800040F94B40003C
:1022F000094C4000294C4000494C40005D4C4000D6
:10230000854C400000810040240B0020E94B400038
:102310000521400010B584B003282DD14B680A89EF
:102320000968009102930192039213B94FF480035C
:102330000293184B1B684FF400625A63164C00223C
:1023400069462068154B9847002202A92068144B63
:102350009847216840F201130B62124A136913F087
:10236000400FFBD00B4B1B684FF400621A6340F226
:1023700002230B6200200AE0D6220B490B480C4CCA
:10238000A0470C48A0470C48A0474FF0FF3004B0CE
:1023900010BD00BF34BE0020240B0020B94B40000C
:1023A000D14B40000080004040174100141741000D
:1023B00001874000281741003C174100002070476A
:1023C0003AB10139821811F8013F00F8013B9042FF
:1023D000F9D1704722B1821800F8011B9042FBD15D
:1023E000704700BF704700BF10B582B001A941F22D
:1023F00070000A4B9847044660B9019941F0020108
:10240000019141F27000064B9847044610B9012033
:10241000044B9847204602B010BD00BF393540003C
:10242000453540000122400038B50B4C00232246C0
:1024300019460A4800680A4DA8470A4A137801332A
:10244000DBB213700020084B98472368012B01D1A1
:10245000064B984738BD00BF340B0020C0BD00209C
:102460000D5F4000300B00200122400089594000E0
:1024700008B5114B1B7813F0FF0F15D10F4B1B78CC
:10248000DBB2032B04D00D4B1B78DBB2042B0BD13A
:102490000B4B9847034668B945F2786141F27400E6
:1024A000084B9847034628B9034A13780133DBB237
:1024B00013700023184608BD500B0020400B00206D
:1024C000C13040004535400000B583B01D4B1B783E
:1024D00013F0FF0F04D01B4A1378013BDBB21370DB
:1024E000184B1B7813F0FF0F25D1174B1B78DBB26D
:1024F000032B04D0144B1B78DBB2042B1DD100231B
:10250000019344F2213141F27400104B9847034685
:10251000A0B901A901200E4B9847034670B9019953
:1025200011F0020F0AD021F0020101910120074BA6
:102530009847034602E0002300E00023184603B05A
:102540005DF804FB500B0020400B00204535400097
:10255000393540002DE9F04F87B080460F4692464E
:102560009946109CBDF84460BDF8485001F07F03C7
:102570008DF815308DF814000823ADF8163044B1ED
:10258000BDF8163016FA83F32B449BB2ADF8163023
:1025900006E0BDF8163019FA83F39BB2ADF8163099
:1025A000574B98478346002840F0958000230393BB
:1025B000ADF806300293029B48EA03030293029BA4
:1025C00043EA07270297BDF81620029B43EA02431D
:1025D0000293029941F28C004A4B984783460028A7
:1025E00040F08A8000230293029B43F0020302938F
:1025F000029941F27800434B9847834600287BD1EB
:1026000000230393ADF80630BDF806309BB2B3F556
:102610007A7F1ED241F278083B4F02A94046B84764
:10262000B8B9029B13F0020F07D103A93748364B04
:10263000984770B1002303930BE0BDF806300133D7
:102640009BB2ADF80630BDF806309BB2B3F57A7F89
:10265000E3D3039B002B4DD0039B0493BDF81630AE
:102660009BB2ADF816300498082205A9284B98476C
:102670008346002840D1049B08330493BAF1000F2D
:102680000AD004984A465146214B98478346002871
:1026900032D1049B4B44049374B1049BC9EB0505F0
:1026A0001D440495049832462146194B98478346A9
:1026B00010BB049B1E440496039B9B000293029B49
:1026C00043F002030293029941F26C000D4B9847CC
:1026D000834688B90AE040F2AB120E490E480F4C0F
:1026E000A0470F48A0470F48A04705E00E4B98476A
:1026F000834601E06FF0020B584607B0BDE8F08F4B
:102700007124400045354000393540000004150073
:10271000B1354000B819410014174100018740004D
:10272000841741003C174100C92440002DE9F043C3
:1027300087B0DFF8FC92A34FDFF8F882A24E7BE16E
:1027400099F80030013BDBB289F80030B847044605
:10275000002840F01A8103A941F270009B4B984772
:102760000446002840F00681039B13F0010F00F09F
:10277000F580974B9847039921F00101039141F2AD
:102780007000944B98470446002840F00E810022C8
:10279000914B1A70039DC5F38B05002D00F0D1807D
:1027A00006A941F8042D41F28400884B984704465D
:1027B00068B14FF4ED7241463046884DA8478848CD
:1027C000A8478848A8470120814B9847EBE004229E
:1027D00004A90598844B9847BDF812309BB2ADF818
:1027E0001230044668B14FF4F172414630467B4DD9
:1027F000A8477E48A8477B48A8470120744B9847C4
:10280000D1E0BDF812309BB29D421ED0BDF812300F
:102810009BB2EB1A042B18DD40F2EB124146304616
:102820006E4CA047BDF812209DF810309DF8111095
:10283000009192B229466E48A0476A48A0470120FD
:10284000634B98476FF00504ADE09DF81030DBB2A4
:10285000012B0DD1674B1B68002B60D09DF8110038
:10286000BDF812100839059A083289B2984756E027
:102870009DF81030DBB2022B0DD15F4B1B68002B93
:102880004DD09DF81100BDF812100839059A083294
:1028900089B2984743E09DF81030DBB2042B0DD18C
:1028A000564B1B68002B3AD09DF81100BDF8121052
:1028B0000839059A083289B2984730E09DF81030FF
:1028C000DBB2062B0CD14E4B1B6843B39DF81100B5
:1028D000BDF812100839059A083289B298471EE0EF
:1028E0009DF81030DBB2072B0CD1464B1B68B3B1FF
:1028F0009DF81100BDF812100839059A083289B206
:1029000098470CE040F20E2241463046334CA04737
:102910003D48A0473348A0476FF0050443E02E4BE5
:102920001B7813F0FF0F3BD140F215224146304691
:102930002A4CA0473548A0472A48A047344B98471F
:102940002EE040F21D2241463046244CA04731483B
:10295000A0472448A0476FF0010426E04FF4097215
:10296000414630461D4CA04703992B48A0471D48BF
:10297000A04715E040F22A2241463046174DA847AD
:102980002648A8471748A8470FE04FF40C72414665
:102990003046124DA8472248A8471248A84704E0ED
:1029A000204B98470446002C46D040F24F221E4947
:1029B00030460A4DA84721461C48A8470948A84761
:1029C000C4E600BF712440001417410039354000AF
:1029D0000122400045354000480B0020018740009F
:1029E000A41741003C17410051354000CC1741006D
:1029F000E41741002C0B0020440B00204C0B00205E
:102A0000280B00203C0B0020241841003C184100FA
:102A1000E9234000601841007418410090184100FB
:102A2000B4184100C924400068174100D41841007F
:102A3000300B00206017410099F8003013F0FF0FB1
:102A40007FF47EAE002007B0BDE8F0832DE9F043AF
:102A500083B01C4620B10D461646074601B1A2B907
:102A600034B10122314B1A70314B9847034658E07C
:102A700040F275222F493048304CA0473048A047DB
:102A80003048A0476FF00B034BE0694641F27000FD
:102A90002D4B98470346002843D1DDF8008001A95B
:102AA00041F28400284B98470346002839D1C8F3E7
:102AB0008B0846450ED940F286221E491E481F4CFF
:102AC000A047424631462148A0471E48A0476FF024
:102AD0000B0326E0019B9F4204D307EB0609434406
:102AE00099450CD94FF4237212491348134CA0474F
:102AF0001748A0471348A0476FF00B0311E0324678
:102B000029463846134B9847034650B9019A424428
:102B1000914500D02CB10122044B1A70044B984708
:102B20000346184603B0BDE8F08300BF480B002001
:102B3000E923400078174100141741000187400045
:102B4000041941003C174100393540002419410067
:102B5000681941005135400038B5431E062B1DD879
:102B6000DFE803F00804100C1C141800134B196064
:102B7000002038BD124B1960002038BD114B196080
:102B8000002038BD104B1960002038BD0F4B196074
:102B9000002038BD0E4B1960002038BD044640F2BD
:102BA000C5220C490C480D4DA84721460C48A847A2
:102BB0000C48A8476FF00B0038BD00BF440B002045
:102BC0002C0B00204C0B0020380B0020280B002081
:102BD0003C0B0020501741001417410001874000B2
:102BE000AC1941003C17410010B50024094B1C6092
:102BF000094B1C60094B1C70094B1C70094B1C7065
:102C000009480A4B98470A4903200A4B984720462F
:102C100010BD00BF2C0B0020440B0020500B0020E7
:102C2000400B0020300B002029244000912140005F
:102C3000E5234000592B400030B59FB015462C28A5
:102C400011D10023042203A92846904CA047002854
:102C500040F019818E4B1B68002B00F0148103A9F2
:102C60002C2098470FE104461B2811D1002308228D
:102C700003A92846854CA047002840F00481844BD6
:102C80001B68002B00F0FF8003A91B209847FAE087
:102C9000062811D10123302203A928467B4CA047E6
:102CA000002840F0F0807A4B1B68002B00F0EB808E
:102CB00003A906209847E6E00E2800F0E4803228B9
:102CC00011D10023102203A92846704CA0470028E8
:102CD00040F0D9806E4B1B68002B00F0D48003A914
:102CE00032209847CFE02F2816D16422002103A874
:102CF000684B98470023642203A92846634CA047E9
:102D0000002840F0C080624B1B68002B00F0BB80A5
:102D100003A92F209847B6E0342820D100230422AD
:102D200003A92846594CA047002840F0AC805A48D7
:102D30005A4CA04703990B0E0093C1F30743C1F30C
:102D40000722C9B25648A0475648A047504B1B68B7
:102D5000002B00F0988000213420984793E0112840
:102D600016D10023504A1370042203A92846474C69
:102D7000A047002840F087809DF80C204B4B1A702C
:102D8000434B1B68002B7ED003A9112098477AE0A3
:102D900013280FD100232C2203A928463B4CA0471F
:102DA000002870D13A4B1B68002B6CD003A913206C
:102DB000984768E004280FD1002304221CA9284664
:102DC000324CA04700285ED1314B1B68002B5AD0F3
:102DD0001CA90420984756E065280FD1002304223F
:102DE0001CA92846294CA04700284CD1284B1B6819
:102DF000002B48D01CA96520984744E009280FD132
:102E00000123642203A92846204CA04700283AD178
:102E10001F4B1B68002B36D003A90920984732E0CE
:102E20002A280DD10123042203A92846174CA047C4
:102E300048BB174B1B6833B303A92A20984722E0ED
:102E4000202815D10023082203A928460F4CA047AB
:102E5000C8B90123BDF81020039905F10800A04767
:102E600088B90B4B1B6873B103A9202098470AE06F
:102E70004FF495720E490F48084DA84721460E4859
:102E8000A8470848A8471FB030BD00BF4D2A4000E2
:102E9000540B0020D5234000F01941000187400069
:102EA000FC1941003C174100580B0020590B002031
:102EB000C4194100141741001C1A4100F0B58BB031
:102EC00001238DF8073000284ED00268294B1A6084
:102ED0000022294B1A700DF10700284B9847044631
:102EE000002843D1264B98470446002838D125496D
:102EF0000120254B984702A8244B98470446244FAD
:102F00003846244DA8479DF80E309DF80D209DF8B9
:102F10000C102148A847214E3046A8473846A847FC
:102F20009DF811309DF810209DF80F101C48A847FF
:102F30003046A8473846A8470023032213211948E2
:102F4000A8473046A84714F10D0F0FD140F2D51213
:102F500015491648A8471648A8473046A84705E02F
:102F60000020144B984701E06FF00B0420460BB093
:102F7000F0BD00BF540B0020580B0020BD364000B0
:102F8000E92B4000392C4000592B400011364000FD
:102F9000F019410001874000D41A41003C1741005C
:102FA000F01A41000C1B4100E019410014174100C8
:102FB000281B41008537400008B5014B984708BDE4
:102FC0002D27400010B584B0002202920192009299
:102FD00013462B210120024CA04704B010BD00BFB6
:102FE000552540000020704710B586B00A2812D839
:102FF00040F22143C34013F0010F0CD006AA02F89F
:10300000040D002302930193009304235B2101200C
:10301000084CA0470BE04FF44B7207490748084C97
:10302000A0470848A0470848A0476FF00B0006B02B
:1030300010BD00BF55254000D019410014174100B4
:10304000018740008C1C41003C17410010B590B036
:10305000302928BF30214A1CD2B2014604A8074BB0
:1030600098470023029301930093302304AA072179
:103070000120034CA04710B010BD00BFC123400089
:1030800055254000F0B583B004464FF4A5550A4ECF
:103090000A4F21462846B04754B102A9002341F8FF
:1030A000043D2846B8470028F3D1019B9C42F0D14B
:1030B000002003B0F0BD00BF453540003935400069
:1030C0002DE9F04F83B001203D4B984701A9012025
:1030D0003C4B9847824648B172223B493B483C4CA6
:1030E000A0473C48A0473C48A04764E000244FF07C
:1030F0000108DFF8F890324D384F019941F0020194
:103100004046C8474046A8476946354B18682D4B8E
:10311000984718B9009B0BB1314E37E0304E0E2363
:1031200033604046A84769463068264B984710B937
:10313000009B002BF0D12A4E132333604046A84752
:10314000694630681F4B984706460028E4D096220F
:103150001D491E481E4CA0472248A0471E48A047B4
:10316000B24628E00220A84769463068154B9847C8
:10317000009B13F0040F09D1AA2213491348DFF86A
:1031800050B0D8471848D8471348D847009B13F089
:10319000040F10D10134A7FB04235B0803EB4303A6
:1031A0009C42DFD0019941F002014046C847009B94
:1031B00013F0040FA1D0504603B0BDE8F08F00BF5C
:1031C000E920400039354000181D41001417410026
:1031D00001874000281D41003C174100ABAAAAAA64
:1031E00018000020481D4100681D41004535400081
:1031F00000B583B001A941F20840154B9847E0B9EA
:10320000019941F48071019141F20840114B9847B6
:10321000B0B901A94FF4D0500D4B984798B9019916
:1032200041F4803101914FF4D0500A4B9847002867
:1032300014BF6FF00500002007E06FF0050004E008
:103240006FF0050001E06FF0050003B05DF804FBCE
:10325000393540004535400010B582B0244B1C681C
:10326000002C40D119464FF48050224B984718B19A
:1032700000221F4B1A6038E001A941F2F4301D4BC7
:10328000984718B100221A4B1A602EE0184B1B68A1
:10329000194A934206D1019B012B1DD00132144BD8
:1032A0001A6019E0154A934209D1019B032B13D0F0
:1032B000042B0CBF0132124A0D4B1A600CE0114A6C
:1032C000934209D10A494FF46C100A4B984718B140
:1032D0000022074B1A6008E0054A136823F47023A4
:1032E00043F4A0231360024B1C68204602B010BDBB
:1032F0005C0B002039354000A0021000B002100025
:10330000B2021000F0001000F8B5074641F21405B3
:10331000244C254E2846A047002802DB0120B04758
:10332000F8E722481F4B984710F0010F09D11E4EB5
:103330001C4D1F4C0120B0474FF00C10A847A04275
:10334000F8D1022F0AD11B491B481C4CA0474FF44F
:10335000801141F28C00A04700240FE0032F09D117
:1033600014491548154CA047002141F28C00A04794
:10337000002403E0042F14BF00248024104B98473E
:10338000C0F30B00B0F5687F0CBF44F0020020468C
:103390000C4B98470C494FF00C10084B98470020F5
:1033A000F8BD00BF2D354000E9204000BC070200F9
:1033B0009ED0AD107DD51C3CAC07020045354000C9
:1033C0005932400085304000612F52EFF0B583B094
:1033D00041F28C030193184B00930238C0B20128CC
:1033E00010D8164B0193A3F12253A3F51113A3F2A6
:1033F000E953009306E03846B0470198A847013CDE
:1034000006D113E04FF0FF34002002270C4E0D4D83
:10341000009B9842EFD1009A074B9A4209D10021B4
:1034200041F28C00084B9847002003E06FF0040045
:1034300000E0002003B0F0BD36265302AC070200C6
:10344000E92040002D35400045354000F0B583B0FF
:1034500002A9002341F8043D4FF4A050244B9847A3
:1034600048B140F22F2223492348244CA047244846
:10347000A0472448A047019921F4806101914FF4AD
:10348000A050214B9847054658B140F235221949C2
:1034900019481A4CA0471D48A0471A48A04728467B
:1034A00024E00A24124E184F01A94FF4A050B0474F
:1034B000054658B14FF40F720E490F480F4CA04704
:1034C0001348A0470F48A04728460FE0019911F480
:1034D000806F0AD021F4806101914FF4A050B84769
:1034E000631E13F0FF04DFD100E0002003B0F0BD45
:1034F00039354000481E4100141741000187400043
:10350000B41D41003C17410045354000D01D41002D
:10351000EC1D410008B5014B984708BD3122400021
:1035200008B5014B984708BDBD23400008B5014BC5
:10353000984708BD7D3D400008B5014B984708BD40
:10354000953D400008B5014B984708BDAD3D400092
:103550002DE9F047074689461546134BB3F800801E
:10356000A8F108081FFA88F8424508D80026AAB230
:1035700009EB060138460D4B9847034610E04446D8
:103580000026DFF828A0424609EB06013846D0475E
:10359000034628B92D1B26442744A542F3D8E6E765
:1035A0001846BDE8F08700BF14000020D13E40005F
:1035B0002DE9F047074689461546134BB3F80080BE
:1035C000A8F108081FFA88F8424508D80026AAB2D0
:1035D00009EB060138460D4B9847034610E0444678
:1035E0000026DFF828A0424609EB06013846D047FE
:1035F000034628B92D1B26442744A542F3D8E6E705
:103600001846BDE8F08700BF140000209D3F400031
:1036100030B583B0044602A9002341F8043D234895
:10362000234B98470546019A224B9A4205D101A99E
:1036300041F248001E4B98470546019B1A0C111297
:10364000E171C2F30311217202F00F0262721A12C9
:103650002271C3F30312627103F00F03A371164BBF
:10366000984720602279A37903F00F0343EA0222EE
:1036700063791B01DBB21343E179627A02F00F0236
:1036800042EA0121227A1201D2B20A4341F23031D8
:103690008A4288BF6FF00C0541F22F3293428CBFF3
:1036A00028466FF00C0003B030BD00BFAC0702002D
:1036B00039354000C3C15DD75932400038B530B10B
:1036C0000478631EDBB2042B28BF012400E0012430
:1036D00000201D4B9847054650B14FF492721B498C
:1036E0001B481C4CA0471C48A0471C48A04729E089
:1036F0001B48184DA8471B4B984701461A48A84736
:103700001648A847194B98472046194B9847054635
:10371000B0B92046174B9847054688B9023CE4B239
:10372000012C0FD9144B9847054658B14FF4AE728F
:1037300006490748074CA0471048A0470748A0473C
:103740000F4B9847284638BD15354000001F4100F3
:103750001417410001874000541E41003C174100EE
:10376000F019410059324000701E4100C53D400033
:1037700009334000CD334000F1314000801E41004C
:103780002135400038B5194B984758B104464FF4DD
:10379000BA7217491748184DA8471848A84718483B
:1037A000A84720E00020174B9847044650B140F24C
:1037B0007B120F490F48104DA8471348A8471048DF
:1037C000A84710E0114B9847044650B140F28112CF
:1037D00007490848084DA8470D48A8470848A84782
:1037E00001E00C4B9847204638BD00BF4D344000E7
:1037F0000C1F41001417410001874000A01E41002A
:103800003C174100954A4000C01E41002135400050
:10381000E41E4100713D400000B585B000230193D6
:103820000290ADF80C1001A90320024B984705B097
:103830005DF804FB15234000F0B583B00546CF28A2
:1038400004D000F13B03DBB2012B06D801210DF1BE
:103850000700224B984700283AD10B2401271F4E1E
:1038600039460DF10700B04758B140F227121C4904
:103870001C481D4CA0471D48A0471D48A0470020DC
:1038800029E09DF80730AB4205D0631E13F0FF041A
:10389000E6D10B2400E00B240126104D31460DF13A
:1038A0000700A84758B140F235120D490D480E4C9B
:1038B000A0470E48A0470E48A04700200BE09DF807
:1038C00007303BB1631E13F0FF04E7D1012002E093
:1038D000002000E0012003B0F0BD00BF1938400017
:1038E000242441001417410001874000681F410053
:1038F0003C1741002DE9F04F83B08246894693463C
:103900004FF00008354DB9F5005F94BF0FFA89F705
:103910004FF400570A24012631460DF10300A84751
:1039200058B140F257122E492E482F4CA0472F482D
:10393000A0472F48A04700204DE09DF803301B0909
:103940000F2B05D0013C24B2B4F1FF3FE4D101E0DC
:10395000002C0DDC40F2631221492248224CA04782
:103960009DF803102348A0472148A047002032E0DB
:10397000BFB239460AEB0800A84758B14FF4B672F7
:1039800017491848184CA0471B48A0471848A0479B
:10399000002020E0BBF1000F12D1184B1B787BB93F
:1039A000022101A8A84758B140F277120C490D48EE
:1039B0000D4CA0471248A0470D48A04700200AE040
:1039C000B8440FFA88F8C7EB09071FFA87F9B9F16D
:1039D000000F98D1012003B0BDE8F08F19384000E6
:1039E0003C25410014174100018740009C1F410005
:1039F0003C174100D01F410000204100600B002017
:103A00003420410000B585B0019000230293ADF849
:103A10000C1001A90320024B984705B05DF804FB88
:103A20001523400070B584B09DF820408DF8040047
:103A3000C1380E2800F2AE80DFE800F03E3E5F1293
:103A4000232C4D4D7808ACACACAC35000B0C8DF88C
:103A500005300B0A8DF806308DF807100521A4E01B
:103A6000C1F3072314B98DF8053003E063F07F0339
:103A70008DF805308DF8061000238DF807300521EC
:103A800093E000238DF805308DF806308DF807306F
:103A900005218AE000238DF805308DF806308DF879
:103AA0000730052181E0FF238DF805308DF80630C1
:103AB0008DF80730052178E00A0C8DF805200A0AF8
:103AC0008DF806208DF807101A0A8DF808208DF859
:103AD0000930072169E00A0C8DF805200A0A8DF8E3
:103AE00006208DF807101A0C8DF808201A0A8DF898
:103AF00009208DF80A30082157E0C1F3072314B9D3
:103B00008DF8053003E063F07F038DF805308DF804
:103B10000610130E8DF80730130C8DF80830130AB9
:103B20008DF809308DF80A2008213EE00B0C8DF845
:103B300005300B0A8DF806308DF80710130E8DF83E
:103B40000830130C8DF80930130A8DF80A308DF8FF
:103B50000B20092129E012F8013B83EA4003E05CD5
:103B60009542F8D104AB1E44430006F80C3C01E03A
:103B70000139C9B201A8104B984768B14FF484725B
:103B80000E490F480F4CA0470F48A0470F48A047C9
:103B900000200FE000200DE001200BE04E1E01ABE5
:103BA0009D197F201A460A4CD5E70A4B1B78002B3B
:103BB000DED1F3E704B070BD053A40001C2441009B
:103BC00014174100018740006C2041003C17410060
:103BD0003C244100600B002070B582B004463128BF
:103BE00035BF01230023C325C925009304230A46BA
:103BF00001462846164EB04701280CD040F2EB1281
:103C000014491548154DA84721461548A847154899
:103C1000A84700201AE02846134B9847012814D0E3
:103C200040F2F1120B490C480C4DA84721460F48B1
:103C3000A8470C48A8470024009423462246214662
:103C4000CF20034DA847204600E0012002B070BD00
:103C5000253A4000381F41001417410001874000F9
:103C6000982041003C17410039384000C4204100F1
:103C70002DE9F04184B004468846B0F5807F35BF19
:103C800001260026C425CA250096042300220146E9
:103C900028462D4FB84701280CD040F245222B4929
:103CA0002B482C4DA84721462B48A8472B48A8470E
:103CB000002045E028462A4B9847012814D040F2BE
:103CC0004B2222492248234DA84721462548A84790
:103CD0002248A84700240094234622462146CF20AC
:103CE000194DA84720462BE03246042103A81E4B5D
:103CF0009847012813D040F2532214491448154C18
:103D0000A0471A48A0471548A0470024009423461E
:103D100022462146CF200C4DA847204610E09DF8B2
:103D20000D109DF80E20130443EA01229DF80C307B
:103D300013439DF80F2043EA0263C8F800300120C6
:103D400004B0BDE8F08100BF253A4000481F4100A3
:103D50001417410001874000FC2041003C1741003E
:103D60003938400028214100F53840005C214100ED
:103D70000020014B18707047600B002000B583B025
:103D800001A9034B9847019803B05DF804FB00BFFD
:103D9000713C400008B5044B984701280CBF002037
:103DA0006FF0050008BD00BF713C400008B5044B32
:103DB000984701280CBF00206FF0050008BD00BF28
:103DC000D93B400030B583B0002302A941F8083D3B
:103DD000324A13704EF62400314B9847F0B9012255
:103DE0002E4B1A7040F2C5222E492F482F4CA04767
:103DF0002F48A0472F48A04769464EF62400284B7D
:103E00009847044650B94FF4327226492648274D48
:103E1000A8472948A8472748A8473CE01F4B1B78DC
:103E2000CBB9009921F07C0141F0500100914EF690
:103E30002400224B9847044650B940F2D222194937
:103E400019481A4DA8471E48A8471A48A84722E013
:103E50000122124B1A7001A94FF48050104B984761
:103E600060B94FF437720F490F48104CA0471548FE
:103E7000A0471048A0476FF005040CE04EF6240060
:103E8000114B984720F0700141F050014EF624008C
:103E90000E4B98470024204603B030BD600B002035
:103EA000713C40001C1F4100141741000187400075
:103EB0007C2141003C174100CC214100D93B40000E
:103EC000FC214100302241007D3D4000AD3D4000DD
:103ED000F0B583B004460F461546002200922B46EB
:103EE0000146C820234EB04701280BD04FF41D7265
:103EF00021492248224DA84721462248A847224866
:103F0000A84732E0C820214B9847012812D040F240
:103F10007A22194919481A4DA84721461C48A84732
:103F20001948A847002100910B460A46CF20114CA2
:103F3000A0471AE0002229463846164B9847012828
:103F400011D04FF421720C490C480D4CA047124877
:103F5000A0470D48A047002100910B460A46CF20FC
:103F6000044CA04701E0002001E06FF0050003B021
:103F7000F0BD00BF253A4000302441001417410035
:103F800001874000582241003C1741003938400069
:103F900088224100F5384000C02241002DE9F0435D
:103FA00085B0044688461546002200922B460146FD
:103FB000C7204C4EB04701280BD040F20F224A498F
:103FC0004A484B4DA84721464A48A8474A48A8476F
:103FD00082E0C720494B9847012812D040F21522B1
:103FE00041494248424DA84721464548A8474248D2
:103FF000A847002100910B460A46CF20394CA04724
:104000006AE00024ADF80C403E4FDFF810912E46D8
:10401000B5F5005F28BF4FF400562CB9B5F5005F29
:1040200094BF0323012304E0B5F5005F94BF03238D
:10403000022363F00F038DF80B3001210DF10B000B
:10404000B84750B14FF4D4722F492848284CA047A4
:104050002E48A0472848A04728E0314608EB040036
:10406000B84750B140F2B11227492048204CA04730
:104070002748A0472048A04718E099F8003073B9B6
:10408000022103A8B84750B140F2BB121E4917489D
:10409000174CA0471F48A0471748A04706E03444E4
:1040A00024B2AD1BADB2002DB1D113E040F22622F7
:1040B0000D490E480E4CA0471748A0470E48A04790
:1040C00000240094234622462146CF20054DA847D0
:1040D000204603E0002001E06FF0050005B0BDE8D8
:1040E000F08300BF253A4000581F410014174100DB
:1040F00001874000E82241003C1741003938400068
:1041000018234100053A4000281F41005023410078
:1041100088234100BC234100F4234100600B0020B0
:104120002DE9F84FBDF82840002C47D081460E46B7
:104130009246984603012249CB58002B3ED001EB12
:1041400000139B889BB2002B38D001EB00139B7AA5
:10415000DBB2012B32D1F48001EB0017DFF878B02D
:10416000BB88E31A1BB2002B03DDBD88ADB2002370
:1041700001E02546012339682A464046D847A8B9B8
:104180003B683360B580F3885B1BF3800D4B1B6885
:104190002BB10C4B1B683246514648469847641B6E
:1041A000A4B2A844002CDBD1BDE8F88F0648074D27
:1041B000A84721460648A8470648A847BDE8F88F03
:1041C0003CBE0020ECBE0020F019410001874000F9
:1041D0004C2541003C1741004D2A4000F0B599B0F4
:1041E0001446412819D10023042207A92046A24CD5
:1041F000A047002840F03E819DF81D308DF80C301E
:104200009E4B1B68002B00F035819C4B1B6803AA5A
:1042100001219DF91C0098472CE10D46422819D137
:104220000023042207A92046934CA047002840F011
:1042300021819DF81D308DF80C30904B1B68002BB0
:1042400000F018818D4B1B6803AA02219DF91C0008
:1042500098470FE143283FD100230C220DEB0201C8
:104260002046854CA047002840F004819DF9153078
:10427000002B19DB824A02EB03120021D1720121CB
:10428000917280490A88013292B20A800A8892B2F9
:104290001AB90A88013292B20A807A4A118889B220
:1042A000774A02EB0312D1808DF81C300223ADF85F
:1042B0002030BDF80E30ADF82230049B09936F4BCF
:1042C0001B68002B00F0D6806C4B1B6807AA0421EA
:1042D0009DF914009847CDE0442801D04B2824D103
:1042E0000023042207A92046634CA047002840F081
:1042F000C1809DF91C008DF80C009DF91D308DF8D2
:104300000D303BB9BDF81E30083B9BB25C4A02EB56
:1043100000121381594B1B68002B00F0AB80574BE8
:104320001B6803AA05219847A4E04A2813D100235B
:10433000442207A92046504CA047002840F09A800C
:10434000514B1B68002B00F095804F4B1B68179951
:1043500007A898478EE0462805D0482805D04D2864
:1043600048D1062702E0062700E009270023102293
:1043700003A92046404EB04700287BD19DF9180084
:10438000BDF81A103E4A02EB001200231373BDF968
:1043900014E0BDF81630BDF80E60ADF82660049E3E
:1043A0000A96D28892B291421BD1BEF1000F0ADD6B
:1043B000AE4508DA1FFA8EF2009223443A4607A966
:1043C000324CA04756E0ADF820E0002307932B4B7A
:1043D0001B68002B4ED0294B1B6807AA394698470B
:1043E00048E0102D46D90123002211461046224CE8
:1043F000A0473FE0452805D0472805D04C2824D1C8
:10440000072502E0072500E008250023082207A968
:104410002046194CA04700282CD19DF91C00BDF85E
:104420002020BDF81E30ADF80C30154B03EB001307
:10443000DB889BB29A421DD1104B1B68D3B10F4B46
:104440001B6803AA2946984714E0522812D1012379
:10445000142207A92046084CA04758B90C4B089ACB
:104460001A601B6833B10A4B1B689DF82C20099910
:104470000798984719B0F0BD4D2A4000ECBE0020C7
:104480003CBE0020620B0020F4BE00202141400011
:10449000F0BE002008B50A4B1B7813F0FF0F0ED1B9
:1044A000B02200210748084B984708490220084BD2
:1044B00098470122024B1A700022064B1A8008BD51
:1044C000610B00203CBE0020D5234000DD414000B0
:1044D000592B4000620B0020024B1860024B196000
:1044E000704700BFECBE0020F4BE002070B586B05F
:1044F00002284CD101294DD0022918BF4FF0FF34BA
:1045000059D14AE0254600EB04139B7A13F0FF0FC4
:1045100036D12A4800EB0410164610220021284B01
:104520009847264B03EB051301229A72254A1388FC
:1045300001339BB2138013889BB21BB913880133DC
:104540009BB213801F4B1A8892B21C4B03EB0513CE
:10455000DA8064B216F0010F2DD006AA02F8044DDD
:10456000164B03EB05152123EB72002302930193F5
:104570000093042350210220134DA8471BE00F484D
:104580000134E4B28C42BDD34FF0FF3413E04FF05E
:10459000FF3410E00721002401E00B210724254609
:1045A000064B03EB04139B7A13F0FF0FE7D103488C
:1045B00000EB0410B0E7204606B070BD3CBE002002
:1045C000D5234000620B00205525400039B310B5BB
:1045D00088B0002826DB184B03EB00139B7ADBB274
:1045E000012B22D122B304468DF81C00082205A815
:1045F000124B9847104800EB0410C388ADF81E30EA
:1046000000230293019300930C2305AA4121022069
:104610000B4CA047002818BF6FF008000AE06FF0AD
:10462000050070476FF0050004E06FF0050001E041
:104630006FF0050008B010BD3CBE0020C123400053
:1046400055254000002821DB144B03EB00139B7A17
:10465000DBB2012B1DD110B586B08DF814008DF89A
:1046600015100E4B03EB0010C388ADF81630002375
:10467000029301930093042305AA42210220084CCF
:10468000A047002818BF6FF0080005E06FF0050094
:1046900070476FF00500704706B010BD3CBE0020AB
:1046A0005525400000280ADB064B03EB0010837AF7
:1046B000DBB2012B14BF6FF00500002070476FF0D4
:1046C000050070473CBE0020002838DB002939D0A7
:1046D000224B03EB00139B7ADBB2012B35D1002A6E
:1046E00036D030B589B01D4B03EB0013DB7A13F0E5
:1046F000010F07D0194B03EB0013DB7A8DF81D3047
:104700004B2500E0442504468DF81C00082205A82E
:10471000134B9847114800EB0410C388ADF81E30C6
:1047200000230293019300930C2305AA294602203B
:104730000C4CA047002818BF6FF008000BE06FF08A
:10474000050070476FF0050070476FF00500704777
:104750006FF00500704709B030BD00BF3CBE0020BF
:10476000C12340005525400000283BDB00293CD0F8
:10477000B2F5AF6F3CD8224B03EB00139B7ADBB250
:10478000012B38D110B588B08DF81000ADF812208B
:104790001B4B03EB0013DB88ADF81C300728B4BFBC
:1047A00050244424164B03EB0013DB7A13F0010F63
:1047B00006D0134B03EB00100489A4B24C2000E098
:1047C000452002940192009110230DEB030240F06A
:1047D000800102200B4CA04700280CBF00206FF086
:1047E0000D000BE06FF0050070476FF0050070479B
:1047F0006FF0050070476FF00500704708B010BDFE
:104800003CBE002055254000F0B589B00E9D002823
:104810003FDB002940D0B2F5AF6F40D8254B03EB0A
:1048200000139B7ADBB2012B3CD1224B03EB00132C
:104830009B7A13F0FF0F38D0044616460F4610221D
:1048400000210DEB02001C4B98478DF81040ADF88D
:104850001260184800EB0410C388ADF81C303DB15D
:104860002B88ADF814306B88ADF816306B68069362
:10487000442302930196009710230DEB0302C721F6
:1048800002200E4CA04700280CBF00206FF00D0046
:104890000DE06FF005000AE06FF0050007E06FF033
:1048A000050004E06FF0050001E06FF0050009B0BD
:1048B000F0BD00BF3CBE0020D52340005525400080
:1048C00000283CDB00293DD0002A3ED070B586B0E0
:1048D000224C04EB0014A47AE4B2012C38D11F4E10
:1048E000050174197151A280227B12F0FF0F32D1A1
:1048F00006EB001201211173D27A0A40002A0CBF84
:1049000046214D211BB94FF0FF33049300E004937F
:104910008DF81400114B03EB0010C388ADF816306E
:104920000023029301930093082304AA02200C4C55
:10493000A04700280CBF00206FF00D000CE06FF0C6
:10494000050070476FF0050070476FF00500704775
:104950006FF0050000E0002006B070BD3CBE0020F6
:104960005525400030B587B000282EDB1B4B03EBEC
:1049700000139B7ADBB2012B2AD104468DF8140078
:10498000164B03EB0013DA88ADF8162000229A725A
:10499000DA80DB7A03F001039342029201920092E3
:1049A0004FF0040305AA0CBF49214E2102200C4DF3
:1049B000A847051E18BF6FF0080510220021074800
:1049C00000EB0410074B984704E06FF0050501E089
:1049D0006FF00505284607B030BD00BF3CBE002083
:1049E00055254000D523400000283EDB00293FD05C
:1049F000002A40D070B586B0244C04EB0014A47A91
:104A0000E4B2012C3AD1214C04EB0014A47A14F046
:104A1000FF0F36D01D4E050174197151A280227B03
:104A200012F0FF0F2FD106EB0012012111731BB9F9
:104A30004FF0FF33049300E004938DF81400134B00
:104A400003EB0010C388ADF81630002302930193E6
:104A50000093082304AA482102200D4CA0470028F7
:104A60000CBF00206FF00D000EE06FF005007047E6
:104A70006FF0050070476FF0050070476FF005009C
:104A800002E0002000E0002006B070BD3CBE002027
:104A90005525400070B582B005462E4B9847C0F3AF
:104AA0000B00B0F5687F50D301A941F210402A4BAA
:104AB00098470446002849D1019921F0EE6121F47C
:104AC000EE2141F0887141F48831019141F21040AA
:104AD000224B9847B5B100212148204DA847AB2172
:104AE0002048A84701212048A84700211F48A8477F
:104AF00081211F48A8471F4E1F4D3046A847012857
:104B0000FBD115E000211648144DA847B9211548DE
:104B1000A84701211448A84700211448A84781212B
:104B20001348A847134E144D3046A8470128FBD11F
:104B3000019921F0EE6121F4EE2141F480310191DF
:104B400041F21040054B984700E00024204602B097
:104B500070BD00BF59324000393540004535400036
:104B6000080201000C020100140201001C020100F5
:104B700004020100180201002D35400090B92DE912
:104B8000F0410C469046002A0FDD8F18084E094D63
:104B9000306821462B6898470134A742F8D1404637
:104BA000BDE8F0814FF0FF3070470020BDE8F08194
:104BB00000BF0020F8BE00200B4619B109688160D3
:104BC0005B68C3601AB1136883615368C36170473F
:104BD0000B4619B1096801605B6843601AB113683C
:104BE000036153684361704721F4FE7121F00101B4
:104BF0008905890D0162704708B51520014B98475A
:104C000008BD00BF7D55400032B100EB8100036B51
:104C100043F001030363704700EB8100036B23F053
:104C200001030363704700BF32B100EB8100036BE7
:104C300043F002030363704700EB8100036B23F032
:104C400002030363704700BF00EB81010B6B23F08D
:104C5000F0030B630B6B1A430A6370476AB110B41D
:104C6000144600EB81010B6B23F47F430B630A6B4B
:104C700042EA04220A63002002E04FF0FF3070474E
:104C800010BC704710B400EB8101086B80B2086360
:104C90000C6B44EA036343EA02420A6310BC7047A8
:104CA000436913F0020F1DBFC1F30801C161002069
:104CB00001207047436913F0010F05D08369C3F3E6
:104CC00008030B600020704701207047013802285C
:104CD00015D82DE9F0410E4614469AB10D46DFF87D
:104CE00038800C4FD8F8000015F8011B3B68984736
:104CF00000280ADBA81B013CF4D1BDE8F0814FF08D
:104D0000FF3070470020BDE8F0814FF0FF30BDE874
:104D1000F08100BFFCBE002000BF002010B4AC2317
:104D200003600B684A68B3FBF2F31B095C1E4FF685
:104D3000FE7294420AD803628B68436040F20223F9
:104D4000C0F8203150230360002000E0012010BC97
:104D5000704700BF436913F0020F1ABFC161002002
:104D600001207047436913F0010F1DBF83690B7069
:104D700000200120704700BF10B50E480E4B984729
:104D80003E2100200D4B98470D4CA0470028FCD039
:104D90000C4B98470C4A0D4B9A620D4CA0470028CB
:104DA000FCD010200B4B98470B4B98470148024B07
:104DB000984710BD000E2707B5574000F954400032
:104DC0004D5540005D554000013F132000040E404A
:104DD0006D55400091544000A1564000F8B5404840
:104DE000404B98470B20404CA0470C20A0470D207B
:104DF000A0473E4B4FF400021A631A61C3F8A0208B
:104E00003B4C04276761C4F8A0706766C4F89070D3
:104E100067656762C4F88070226F22F0040222671F
:104E2000626F22F0040262674FF480121A631A6103
:104E3000C3F8A0204FF4803222632261C4F8A0207E
:104E40004FF480021A631A61C3F8A0204FF0006289
:104E50000C212848284B9847284E31460320284DDE
:104E6000A84731463846A8476766C4F8907067651A
:104E70006762C4F88070236F23F004032367636FB5
:104E800023F00403636731464920A84731464A208E
:104E9000A84731465120A84731465020A8473146FF
:104EA0004020A84731464120A84731464220A84724
:104EB00031464320A84731464420A8473146452083
:104EC000A84731464620A84731464720A8474FF01B
:104ED00060514E20A8470B494D20A847F8BD00BFA0
:104EE00050140E40D15540007D55400000120E4038
:104EF000000E0E4000100E40B951400001000008A5
:104F000095504000010000280AB1416670470166D3
:104F1000704700BF4264B1F1C05F2FD007D8B1F134
:104F2000006F14D0B1F1805F1ED039B97047B1F174
:104F3000205F36D004D8B1F1005F29D042607047BD
:104F4000B1F1405F2DD0B1F1605F2AD0F6E710B427
:104F5000046F016FD343214019400167446F416FD3
:104F600021400B4043671AE0036F13430367416F0F
:104F7000436F0B4023EA02034367DFE7016F036FD0
:104F80000B4023EA02030367436F13434367D5E7EC
:104F9000036F13430367436F13434367CEE74260D6
:104FA00010BC7047416412F0010F14BF41660166E6
:104FB00012F00A0F14BF0162416212F0020F02D018
:104FC000C0F8801004E012F0080F18BFC0F8841079
:104FD00041610160704700BF10B44164019C0CB195
:104FE000416600E001660BB1016500E041650AB170
:104FF000016300E041630161016010BC704700BFC4
:1050000012F0100F10D0C0F8B01012F0200F14BF23
:10501000C0F8D410C0F8D01012F0400F14BFC0F880
:10502000C010C0F8C4107047C0F8B410704700BF7B
:105030000164704741647047C06C7047806C704772
:10504000430903F5001303F207735B02DB6B00F007
:105050001F0023FA00F000F001007047430903F538
:10506000001303F207735B0200F01F00012202FA33
:1050700000F01863704700BF430903F5001303F203
:1050800007735B0200F01F00012202FA00F0586370
:10509000704700BF70B582B00D46430903F5001399
:1050A00003F207735C0201F0F043B3F1005F47D0F5
:1050B00009D8B3F1805F21D0B3F1C05F2FD0B3F135
:1050C000006F6FD109E0B3F1405F55D0B3F1605F7D
:1050D00052D0B3F1205F44D064E000F01F000126FD
:1050E000864032464FF000612046304B984715F01D
:1050F000010F14BF66662666012054E000F01F0011
:105100000126864032464FF080512046274B984773
:1051100015F0010F14BF66662666012043E000F01B
:105120001F000126864032464FF0C05120461F4BDB
:10513000984715F0010F14BF66662666012032E01D
:1051400000F01F000126864032464FF000512046F5
:10515000164B984715F0010F14BF666626660120AE
:1051600021E000F01F0101262A4606FA01F120463F
:105170000F4B9847304616E005F0605200F01F01D3
:10518000012605EA06030093C5F38003B2F1605FD0
:1051900014BF0022012206FA01F12046054CA04767
:1051A000304600E0002002B070BD00BF154F400047
:1051B000A54F4000D94F400070B582B005460E465D
:1051C000144602F0F043B3F1005F38D009D8B3F1D0
:1051D000805F1CD0B3F1C05F25D0B3F1006F50D118
:1051E00009E0B3F1405F3AD0B3F1605F37D0B3F17B
:1051F000205F30D045E00A464FF00061224B9847CF
:1052000014F0010F14BF6E662E6601203AE00A46C4
:105210004FF080511C4B984714F0010F14BF6E667D
:105220002E6601202EE00A464FF0C051164B9847DB
:1052300014F0010F14BF6E662E66012022E00A46AC
:105240004FF00051104B984714F0010F14BF6E66D9
:105250002E66012016E00D4B9847012012E004F065
:10526000605204F001030093C4F38003B2F1605F65
:1052700014BF0022012231462846054CA0470120D8
:1052800000E0002002B070BD154F4000A54F400067
:10529000D94F4000400900F5001000F207704002AD
:1052A000704700BF40090B30704700BF00F01F007F
:1052B000012303FA00F070472DE9F8438146884640
:1052C000124B984705464846114B9847054013D066
:1052D000104C04F160062368434508D161682942F7
:1052E00005D0E36840469847636825EA0305B44261
:1052F00002D01034002DEED1074B1B6823B1074BB1
:105300001B680BB148469847BDE8F8833950400008
:105310003D5040006C0B002004BF0020680B0020B3
:10532000F8B5174C2668062E28D84FF0000C6446B6
:10533000144FA64625017D598D4204D107EB041573
:105340006D68954204D00134E4B2A446A642F0D27E
:105350000C4D4FEA0E1E05EB0E0445F80E10626070
:10536000A3600699E1600136664504BF04490E60FA
:1053700011461A46044B98470020F8BD0120F8BD9D
:10538000640B00206C0B0020015040002DE9F0411F
:1053900082B004460F4690460A4B98470546204681
:1053A000094B984706462046084B9847CDF80080A1
:1053B0003B46024631462846054CA04702B0BDE8B0
:1053C000F08100BF95524000A5524000AD52400010
:1053D0002153400008B50B210148024B984708BDF6
:1053E000000E0E40B952400008B50C210148024B96
:1053F000984708BD00100E40B952400008B50D2175
:105400000148024B984708BD00120E40B9524000B7
:10541000F8B505460C461746184B984706464FF018
:10542000FF312846164B98472846164B9847E2B25C
:1054300002F01F030121994063099B0003F16043BF
:1054400003F56143C3F88010C3F88011002C06DA1D
:1054500002F00F023F01FFB20B48875407E03F0103
:10546000FFB204F1604404F5614484F800731960EC
:1054700031462846054B9847F8BD00BF3D504000D7
:10548000355040003950400014ED00E031504000EC
:10549000184A136B23F0700318431063936E13F0D4
:1054A000080F03D009E0013B03D11EE04FF4006375
:1054B00010498A6E12F0080FF5D00E4A136B23F0D4
:1054C000030343F002031363906E10F0080004D04E
:1054D00000207047013B03D109E04FF40063054908
:1054E0008A6E12F0080FF5D0704701207047012036
:1054F000704700BF00040E4038B111490B6A114AD1
:105500001A40114B13430B6270470D48026A09029F
:1055100089B222F45C1323F0030343F45C1343F0D9
:1055200001030B4303620246936E13F0010FFBD09D
:10553000034A136A43F09B7343F48033136270474A
:1055400000040E40FCFFC8FE02003701024B986EBB
:1055500000F48030704700BF00040E404FF000524E
:10556000014B9A62704700BF00040E40024B986ED8
:1055700000F00200704700BF00040E4022281ED831
:105580001F280CD8114B9A6901238340934318D0EC
:10559000012303FA00F00D4B1861002070472038FA
:1055A0000A4BD3F808210123834093430BD00123F6
:1055B00003FA00F0054BC3F80001002070470120FA
:1055C0007047002070470020704700BF00040E4065
:1055D0004FF400434360704782B042F20F7301936F
:1055E000EFF305830193009B01330093FBE700BFBA
:1055F00008B5204B204A9A4212D9204B1D4A9A42A4
:105600001ED21146013B9B1A23F0030304331A4AAE
:10561000134452F8040B41F8040B9A42F9D10FE0FD
:10562000144B154A9A420BD2144B124A9A1A144838
:1056300011182AB151F8042943F8042D8142F9D1F7
:1056400000BF104B104A9A420BD2131D0F4AD21AB8
:1056500022F003021A44043B002143F8041B9A423F
:10566000FBD10B4B0B4A9A600B4B98470B4B98475F
:10567000FEE700BF00000020082D4100D0080020F8
:10568000042D41000CBF0020D00800200FBF0020D7
:1056900000ED00E000004000B1864000A97240002B
:1056A0003D4B1B6B03F00303032B5DD8DFE803F0D6
:1056B000020E2B2B394B5B6913F0800F14BF4FF494
:1056C00000424FF4FA42364B1A604DE0324B1B6AEF
:1056D00013F0807F03D0334A314B1A6044E0324AE2
:1056E0002F4B1A602C4B1B6A03F07003102B02D057
:1056F000202B04D038E02D4A294B1A6034E0294A87
:10570000274B1A6030E0244B1B6A13F0807F03D0D4
:10571000244A234B1A6012E0234A214B1A601E4B85
:105720001B6A03F07003102B02D0202B04D006E07C
:105730001E4A1B4B1A6002E01A4A194B1A60164B9C
:105740001B6B03F00303022B134A07BF936A926A91
:10575000D36AD26A1248C3F30A41036801FB0333D8
:10576000D2B2B3FBF2F303600B4B1B6B03F070037D
:10577000702B07D10A4A13680D49A1FB03135B087C
:1057800013607047044B1B6B0549C3F302120B688F
:10579000D3400B60704700BF00040E4010140E4051
:1057A0001C000020001BB70000093D0000127A0019
:1057B000ABAAAAAA1A4B984207D84FF08063194A9D
:1057C000136002F5007213607047174B984206D8B9
:1057D000164B144A136002F5007213607047144BA5
:1057E000984206D8134B0F4A136002F500721360FB
:1057F0007047114B984206D8104B0A4A136002F5C5
:105800000072136070470E4B984294BF4FF0042310
:105810000C4B044A136002F500721360704700BF1E
:10582000FF2C3101000A0E40FF5962020001000402
:10583000FF86930300020004FFB3C40400030004C6
:10584000FFE0F50500050004094B1B6813B9094A80
:10585000074B1A60064B1B681A180749914204DB74
:105860001046034A1060184670474FF0FF307047EB
:10587000DC0B002010EF0020FC7F02204FF0FF30F7
:10588000704700BF4FF400534B600020704700BFCB
:10589000012070470020704700F1080343604FF07B
:1058A000FF328260C360036100230360704700BF62
:1058B00000230361704700BF43685A684A6042682A
:1058C0008A605A68916059604160086103680133D9
:1058D0000360704710B40C68B4F1FF3F01D1036955
:1058E0000AE000F10803C2681268944204D35B68BE
:1058F0005A6812689442FAD25A684A6091608B6082
:105900005960086103680133036010BC704700BF31
:10591000436882689A60836842685A6003695A687B
:10592000904204BF82685A60002202611A68013AFC
:105930001A601868704700BF03480068006880F369
:10594000088862B600DF00BF08ED00E04FF080730A
:1059500040F8043C40F8081C002340F80C3C40F898
:10596000202C4038704700BF064B19680868B0E823
:10597000F00F80F309884FF0000080F311884EF09B
:105980000D0E7047A4AC00204FF08052014B1A60FE
:10599000704700BF04ED00E0EFF311804FF0A0016D
:1059A00081F311887047002008B5034B9847034ADC
:1059B00013680133136008BD99594000200000208E
:1059C00080F31188704700BF08B5044A1368013B93
:1059D000136013B90020024B984708BD2000002037
:1059E000C1594000EFF309800C4B1A6820E9F00F11
:1059F00010602DE908404FF0A00080F3118800F0FE
:105A000093FE4FF0000080F31188BDE8084019684C
:105A10000868B0E8F00F80F309887047A4AC002054
:105A200008B54FF08052054B1A60054B9847054B5F
:105A300098470020044B984708BD00BF04ED00E0E4
:105A40009959400039644000C1594000034A044B51
:105A50001A600722043B1A60704700BFBFD40100E0
:105A600014E000E010B5094B1A6842F470021A60A5
:105A70001A6842F070421A60054B98470024054BA3
:105A80001C60054B9847204610BD00BF20ED00E08C
:105A90004D5A40002000002039594000124A00E0D1
:105AA0001A4613688342FBD310B451685418A042BD
:105AB00003D1406801445160104641684418A34234
:105AC0000CD10A4B1B689C4206D0636819444160A4
:105AD00013681B68036002E0046000E0036090420A
