:020000040040BA
:1000000020DE0020854140006D4140006D414000F0
:100010006D4140006D4140006D4140000000000016
:10002000000000000000000000000000FD4440004F
:100030006D4140000000000079454000B54540009A
:100040006D4140006D4140006D4140006D414000F8
:100050006D4140006D4140006D4140006D414000E8
:100060006D4140006D41400000000000693F4000CC
:100070007D3F4000913F40006D4140006D41400098
:1000800000000000000000006D4140006D41400094
:100090006D4140006D4140006D4140006D414000A8
:1000A0006D4140006D4140006D4140006D41400098
:1000B0006D4140006D4140006D4140006D41400088
:1000C0006D4140006D4140006D41400010B5054C50
:1000D000237833B9044B13B10448AFF300800123F4
:1000E000237010BDD008002000000000C8024100AD
:1000F000084B10B51BB108490848AFF30080084809
:10010000036803B910BD074B002BFBD0BDE81040BE
:10011000184700BF00000000D4080020C8024100BA
:10012000C80241000000000010B584B00223ADF801
:10013000003040F62773ADF80230030E43EA006248
:10014000030203F47F031343000A00F47F401843C3
:100150000190184B984700211748184B9847184BA7
:1001600093F90030002B22DA002201210220154BE6
:100170009847134B1870002804DA1348134B98471C
:10018000134B9847102269460D4B93F90000114B11
:10019000984700280BDA10480C4B9847084C94F904
:1001A00000000E4B9847FF232370094B984704B07B
:1001B00010BD00BFA13040004D034000E5304000BD
:1001C0000D000020F93040004CE84000295E40005E
:1001D000D11B4000D532400084E84000713540001A
:1001E00000B585B00E4B984700210E480E4B98473E
:1001F0000022022108460D4B98470D4B1870022330
:10020000ADF8003048F21363ADF8023000230193DB
:1002100010226946074B984705B05DF804FB00BF04
:10022000A13040004D034000E5304000F93040006F
:100230000E000020D931400000B585B00F4B984723
:1002400000210F480F4B98470022012102200E4B3E
:1002500098470E4B187000280CDB0223ADF80030D5
:1002600048F21373ADF8023000230193102269465F
:10027000074B984705B05DF804FB00BFA130400074
:100280004D034000E5304000F93040000F000020F1
:10029000D931400070B5C6B006460C461B4B984796
:1002A00000211B481B4B98470022022108461A4B8D
:1002B00098471A4B1870002826DB05460223ADF834
:1002C0000831174B1A88130A43EA0223ADF80A31A2
:1002D000230E43EA0462230203F47F031343240A38
:1002E00004F47F441C434394FF242246314602A871
:1002F0000C4B98471023019342AB009300232246F6
:1003000002A92846084CA04746B070BDA130400065
:100310004D034000E5304000F93040000C00002063
:1003200040AD0020515E40001534400008B5012268
:10033000034B1A70034B9847034B984708BD00BF07
:1003400030AD0020E1014000390240002DE9F041CC
:1003500082B01546984B93F90040844270D105292C
:1003600042D1002A33D092F90130002B2FDB934881
:10037000934B9847DFF8D48241F286324146684673
:10038000904FB8478C4E00230422694696F900002E
:100390008D4DA84741F2873241466846B847002351
:1003A0000422694696F90000A84741F28532414689
:1003B0006846B84700230422694696F90000A8471A
:1003C0000023042281492046814CA04754E1814802
:1003D0007B4B9847784C94F900007F4B9847FF235C
:1003E00023707E4B984747E1062940F04581D2B102
:1003F000B2F90430002B16DD7948714CA0470A226F
:1004000000217248774B9847774B188081B2774824
:10041000A047694C94F900006F4B9847FF23237065
:10042000734B984728E17348654B9847624C94F9A1
:100430000000694B9847FF232370684B98471BE1E6
:100440006D4B93F9003083422FD101290BD192F9E2
:10045000003023B9FF226949694CA0471CE0694874
:10046000574B984718E0062901D0092914D12B6869
:1004700093B1B5F90430002B0EDD6348504B98471B
:10048000B5F90430FF2B07D15C4C21465F484C4B3B
:10049000984720465E4B98470023FF22574956480D
:1004A00090F90000564CA047E6E05A4B93F9003013
:1004B000834252D1012911D192F900301BB9002198
:1004C000554B9847D8E055483D4B9847514C94F9C7
:1004D0000000414B9847FF232370CDE0022919D13A
:1004E0006AB192F9003053B94D48354B9847002214
:1004F0001146484B93F900004A4B9847BCE0364BF5
:100500009847FF22434B1A7047482D4B9847474B5B
:100510009847B1E0042940F0AF809AB14448284B95
:100520009847002211463B4B93F900003D4B9847FA
:1005300095F900003F4B18700023FF223E49244CE0
:10054000A04799E0244B9847FF22324B1A703B4852
:100550001B4B9847354B98478EE0364B93F900304C
:10056000834275D1062940F087801368002B00F084
:100570008380B2F90430002B7EDD2F4D29463048B0
:100580000F4CA0472F4B93E803000090ADF80410E8
:1005900028461F4B98472C48A047264C002306228C
:1005A000694694F90000084DA84794F900000A4BE9
:1005B0009847FF2323705FE00D000020C0E8400053
:1005C000295E40008161400075334000EC0A002044
:1005D000CD344000F4E8400071354000D11B4000AC
:1005E00020E940005D7A400040AD00204CE9400029
:1005F0002D0340006CE940000E000020EC090020B3
:10060000F535400094E94000B8E94000E0E94000D9
:100610004D0840000F000020513240000CEA40001D
:1006200038EA4000B132400068EA40003902400038
:10063000A4EA400010000020EC080020D4EA4000AA
:1006400000EB400034EB40003CEB4000F0E84000A1
:100650000B4B93F9003083420ED108290CD1094885
:10066000094B9847064B93F90000002804DD074B1F
:100670009847FF22024B1A7002B0BDE8F08100BF1C
:100680000C00002084EB4000295E400071354000E2
:1006900008B5FF22154B1A70154B93F9000000287E
:1006A00004DD144B9847FF22114B1A70124B93F93B
:1006B0000000002804DD0F4B9847FF220E4B1A70F4
:1006C0000E4B93F90000002804DD0A4B9847FF22E7
:1006D0000A4B1A700A4B93F90000002804DD054B01
:1006E0009847FF22064B1A7008BD00BF30AD0020AE
:1006F0000D000020713540000E0000200F0000208A
:100700001000002030B583B00C462C2802D03228CF
:1007100011D036E00B78012B02D11B4B984730E00B
:10072000002B2ED10022194B1A70194B98471948EB
:10073000194B984725E00122144B1A701748164DA3
:10074000A847A37862782178E07800901448A847F9
:10075000A37962792179E07900901248A847124D77
:1007600021796279130443EA0162E3791343A279A0
:1007700043EA02232B600D480D4B984728680D4B28
:10078000984703B030BD00BFF11B4000F00A0020C5
:1007900091064000A8EB4000295E4000C0EB4000FD
:1007A000D4EB4000F0EB400034AD002037140D00D6
:1007B000010000202901400000B587B0FF220F4B47
:1007C0001A700023019302930393049305930C4B37
:1007D000009368460B4B984720B101460A480B4BE3
:1007E0009847FEE715210A480A4B984718B10A486E
:1007F000064B9847FEE707B05DF804FB30AD0020DC
:1008000005074000C91A400018EC4000295E40006E
:1008100044EC4000591C40005CEC400008B5052049
:10082000054B984710B10548054B984705490648C0
:10083000034B984708BD00BFF51B400090EC4000FB
:10084000295E400044EC4000B8EC40002DE9F04344
:10085000C3B0FF22014602A8714B9847714902A814
:10086000714B9847002800F08880704902A8704BAF
:10087000984700238DF803300746002800F0CC800D
:100880006C4C6D4E1D463A213846A04710F10108C8
:100890006BD058213846A047B0B129464046674B37
:1008A00098478146664FB847024641466548664BC1
:1008B00098474846B8478DF804009DF80330013347
:1008C0005BB28DF803303BE059213846A047B0B108
:1008D00029464046594B98478146594FB8470246EA
:1008E00041465A48584B98474846B8478DF8050046
:1008F0009DF8033001335BB28DF8033020E054499A
:100900003846494B984758B1294640464B4B984783
:100910004B4B9847024641464E484B4B98470FE099
:100920004D493846404B984750B129464046434BC5
:100930009847434B9847024641464848424B9847A0
:100940009DF803305BB2022B0FD12B462A4601A93A
:100950003068434FB847012803D142483A4B984783
:1009600003E010B94048384B984730492846304B8F
:1009700098470746002886D14EE03C4902A82A4BFA
:100980009847002848D0294902A8294B984704468F
:10099000002841D0274FDFF8F880234E3A21204627
:1009A000B847451C31D041462046B04720B12946C2
:1009B0002F48254B984728E02E492046B04748B19C
:1009C0000A22002128462C4B9847C1B22B481E4BC7
:1009D00098471AE02A492046B04748B10A22002128
:1009E0002846254B9847C1B22648174B98470CE03C
:1009F00025492046B04740B10A22002128461E4B17
:100A00009847C1B22148104B984708490020084B2D
:100A1000984704460028C1D143B0BDE8F08300BF29
:100A2000515E4000E8EC40005D674000F0EC4000A3
:100A3000C1784000CD6140003CAD00208D78400081
:100A40008D5D4000F4EC4000295E400004ED400064
:100A500014ED400018ED400028ED40002CED400062
:100A6000814940003CED400050ED400058ED400011
:100A700068ED400074ED40005D7A400080ED40007C
:100A80009CED4000A8ED4000C0ED4000D0ED4000DE
:100A900060ED40002DE9F04F83B000AF05460C46F5
:100AA00090469B46B7F83090BE8EFF220021804BC7
:100AB0009847804B186828609B88AB803B23AB71BC
:100AC0006CB17D4B1868C5F807003A23EB72228899
:100AD000A378AA81AB733B23EB73102400E00724B7
:100AE000B8F1000F31D0C7F804D02A19734B186839
:100AF000285199889B7991809371E31DDBB23A224A
:100B0000EA540834E4B2B8F1630F92BF4FF0020A1E
:100B10004FF0030A4FF064084FEA8A030A3323F0C8
:100B20000703ADEB030D424665496846654B9847A0
:100B3000524669462819644B98475444E4B23B2313
:100B40002B550134E4B2D7F804D0BBF1000F17D015
:100B50002B195E4A1068285192889A80A31DDBB237
:100B60003A22EA54E31DDBB2BBF1000FB4BF3022DE
:100B70003122EA540834E4B23B232B550134E4B269
:100B8000B9F1000F42D0002E00F08680E8462A1905
:100B90004F4B186828511B791371631DDBB23A2241
:100BA000EA540634E4B2092E0DD9632E0ED9B6F5F7
:100BB0007A7F0ED342F20F7A564594BF4FF0040A63
:100BC0004FF0050A07E04FF0010A04E04FF0020A77
:100BD00001E04FF0030A4FEA8A030A3323F00703C8
:100BE000ADEB030D4A4636496846364B98475246A8
:100BF00069462819344B98475444E4B23B232B559B
:100C0000631CDBB2C546B14549D902E0002E46D18E
:100C100048E0E84605EB030E2E4A03CAE850CEF83A
:100C2000041013788EF8083004F10A03DBB23A227C
:100C3000EA540B34E4B2092E0DD9632E0ED9B6F561
:100C40007A7F0ED342F20F794E4594BF4FF00409DC
:100C50004FF0050907E04FF0010904E04FF00209E9
:100C600001E04FF003094FEA89030A3323F0070339
:100C7000ADEB030D324612496846124B98474A467F
:100C800069462819104B98474C44E4B23B232B5536
:100C90000134E4B2C54605E04FF0FF3003E04FF009
:100CA000FF3000E060B20C37BD46BDE8F08F00BFFA
:100CB000855F4000E4ED400060ED4000ECED400059
:100CC000F0E8400081614000515E4000F4ED4000DA
:100CD000FCED400004EE40000B2807D1022905D1AD
:100CE00008B5034B1B6803B1984708BD704700BFA8
:100CF000F40A002048B170B5044642F27C16034D58
:100D00003046A847013CFBD170BD70470100002070
:100D100038B50620084CA0471820A0476420074C8F
:100D2000A0470620064DA8470A20A0471820A8473C
:100D30000A20A04738BD00BF0D3C4000F50C400024
:100D4000F13B400038B500220E4B1A600E4D29468B
:100D500018200E4CA04729460620A04729461920F6
:100D6000A04701210B20A0470B20094B9847094BB6
:100D70001B6813F0010F1CBF064B1B68064B9847FE
:100D8000002038BDF40A002001000030293C40005A
:100D9000F13B400010E000E0110D400010B5114B98
:100DA00018600B20104B98474FF0205101200F4B3B
:100DB00098470F4C0122022120460E4B98470E4ABD
:100DC000102101200D4B984720460D4B98470221DA
:100DD00020460C4B984700220B2120460A4B98478F
:100DE00010BD00BFF40A002011414000293C400022
:100DF000000E0E40B93A4000D90C4000213F40009F
:100E0000E93B4000E13B4000A53F400010B540B148
:100E1000064C2046064B984702212046054B984732
:100E200010BD02210148044B984710BD000E0E4032
:100E3000E93B4000E13B4000E53B4000F8B5294D6F
:100E400029460C20284CA04729460D20A0472946BA
:100E50000E20A0474FF060510B20A047234E244B9B
:100E600033604FF400651D63224C2046224B9847A7
:100E70000223236080232360636843F001036360DF
:100E8000636843F010036360636823F002036360E8
:100E9000002211462046194B984701220021204686
:100EA000174B9847002211462046164B98470322BD
:100EB00000212046144B984700231A461946204625
:100EC000124FB847012323601148124B186040F2BB
:100ED0000221114B9847114B984733681D6300203E
:100EE000F8BD00BF01000008293C400044AD0020CF
:100EF000000E0E40008000400538400015384000CC
:100F0000353840005538400069384000913840007D
:100F100000810040F80A0020F5374000110D400024
:100F200010B584B003282DD14B680A890968009157
:100F300002930192039213B94FF480030293184B6A
:100F40001B684FF400625A63164C00226946206801
:100F5000154B9847002202A92068144B9847216836
:100F600040F201130B62124A136913F0400FFBD0D9
:100F70000B4B1B684FF400621A6340F202230B62B2
:100F800000200AE0D6220B490B480C4CA0470C4825
:100F9000A0470C48A0474FF0FF3004B010BD00BF81
:100FA00044AD0020F80A0020C5374000DD3740007E
:100FB000008000403CEE400010EE4000295E400002
:100FC00024EE400038EE4000002070473AB101396D
:100FD000821811F8013F00F8013B9042F9D17047A7
:100FE00022B1821800F8011B9042FBD1704700BF6C
:100FF000704700BF10B582B001A941F270000A4BE2
:101000009847044660B9019941F00201019141F20B
:101010007000064B9847044610B90120044B9847CE
:10102000204602B010BD00BF4521400051214000C4
:101030000D0E400038B50B4C0023224619460A48D5
:1010400000680A4DA8470A4A13780133DBB21370CF
:101050000020084B98472368012B01D1064B984785
:1010600038BD00BF040B002038AD0020A14A40006D
:10107000080B00200D0E40001D45400008B5114B27
:101080001B7813F0FF0F15D10F4B1B78DBB2032B2E
:1010900004D00D4B1B78DBB2042B0BD10B4B9847C4
:1010A000034668B945F2786141F27400084B9847ED
:1010B000034628B9034A13780133DBB213700023C7
:1010C000184608BD240B0020140B0020CD1C400046
:1010D0005121400000B583B01D4B1B7813F0FF0F6A
:1010E00004D01B4A1378013BDBB21370184B1B78FA
:1010F00013F0FF0F25D1174B1B78DBB2032B04D065
:10110000144B1B78DBB2042B1DD10023019344F256
:10111000213141F27400104B98470346A0B901A950
:1011200001200E4B9847034670B9019911F0020F48
:101130000AD021F0020101910120074B9847034694
:1011400002E0002300E00023184603B05DF804FB32
:10115000240B0020140B00205121400045214000A9
:101160002DE9F04F87B080460F4692469946109C75
:10117000BDF84460BDF8485001F07F038DF815308C
:101180008DF814000823ADF8163044B1BDF81630C0
:1011900016FA83F32B449BB2ADF8163006E0BDF887
:1011A000163019FA83F39BB2ADF81630574B9847B7
:1011B0008346002840F0958000230393ADF8063065
:1011C0000293029B48EA03030293029B43EA072728
:1011D0000297BDF81620029B43EA0243029302994C
:1011E00041F28C004A4B98478346002840F08A80A1
:1011F00000230293029B43F002030293029941F2FF
:101200007800434B9847834600287BD10023039303
:10121000ADF80630BDF806309BB2B3F57A7F1ED22A
:1012200041F278083B4F02A94046B847B8B9029B43
:1012300013F0020F07D103A93748364B984770B116
:10124000002303930BE0BDF8063001339BB2ADF8E9
:101250000630BDF806309BB2B3F57A7FE3D3039B2B
:10126000002B4DD0039B0493BDF816309BB2ADF814
:1012700016300498082205A9284B98478346002871
:1012800040D1049B08330493BAF1000F0AD00498AC
:101290004A465146214B98478346002832D1049B49
:1012A0004B44049374B1049BC9EB05051D4404959C
:1012B000049832462146194B9847834610BB049B3D
:1012C0001E440496039B9B000293029B43F002037F
:1012D0000293029941F26C000D4B9847834688B9FE
:1012E0000AE040F2AB120E490E480F4CA0470F48DF
:1012F000A0470F48A04705E00E4B9847834601E002
:101300006FF0020B584607B0BDE8F08F7D1040002B
:10131000512140004521400000041500BD2140003E
:10132000B4F0400010EE4000295E400064EE400042
:1013300038EE4000D51040002DE9F04387B0DFF8CB
:10134000FC92A34FDFF8F882A24E7BE199F80030BF
:10135000013BDBB289F80030B8470446002840F072
:101360001A8103A941F270009B4B9847044600285C
:1013700040F00681039B13F0010F00F0F580974BBE
:101380009847039921F00101039141F27000944BB9
:1013900098470446002840F00E810022914B1A70B5
:1013A000039DC5F38B05002D00F0D18006A941F8FF
:1013B000042D41F28400884B9847044668B14FF4ED
:1013C000ED7241463046884DA8478848A84788486E
:1013D000A8470120814B9847EBE0042204A9059817
:1013E000844B9847BDF812309BB2ADF812300446DA
:1013F00068B14FF4F172414630467B4DA8477E48B4
:10140000A8477B48A8470120744B9847D1E0BDF816
:1014100012309BB29D421ED0BDF812309BB2EB1A27
:10142000042B18DD40F2EB12414630466E4CA047CB
:10143000BDF812209DF810309DF81110009192B265
:1014400029466E48A0476A48A0470120634B984749
:101450006FF00504ADE09DF81030DBB2012B0DD12B
:10146000674B1B68002B60D09DF81100BDF812106F
:101470000839059A083289B2984756E09DF810302D
:10148000DBB2022B0DD15F4B1B68002B4DD09DF8BA
:101490001100BDF812100839059A083289B2984730
:1014A00043E09DF81030DBB2042B0DD1564B1B6886
:1014B000002B3AD09DF81100BDF812100839059A9A
:1014C000083289B2984730E09DF81030DBB2062B25
:1014D0000CD14E4B1B6843B39DF81100BDF81210A0
:1014E0000839059A083289B298471EE09DF81030F5
:1014F000DBB2072B0CD1464B1B68B3B19DF8110032
:10150000BDF812100839059A083289B298470CE0E4
:1015100040F20E2241463046334CA0473D48A0479A
:101520003348A0476FF0050443E02E4B1B7813F0BF
:10153000FF0F3BD140F21522414630462A4CA047CE
:101540003548A0472A48A047344B98472EE040F240
:101550001D2241463046244CA0473148A04724482C
:10156000A0476FF0010426E04FF40972414630466F
:101570001D4CA04703992B48A0471D48A04715E0E4
:1015800040F22A2241463046174DA8472648A84730
:101590001748A8470FE04FF40C7241463046124DF1
:1015A000A8472248A8471248A84704E0204B98477C
:1015B0000446002C46D040F24F221E4930460A4DC8
:1015C000A84721461C48A8470948A847C4E600BFC9
:1015D0007D10400010EE4000452140000D0E4000FF
:1015E000512140001C0B0020295E400084EE400089
:1015F00038EE40005D214000ACEE4000C4EE4000FB
:10160000000B0020180B0020200B0020FC0A0020FB
:10161000100B002004EF40001CEF4000F50F4000CD
:1016200040EF400054EF400070EF400094EF400066
:10163000D510400054EE4000B4EF4000080B0020ED
:101640004CEE400099F8003013F0FF0F7FF47EAEAF
:10165000002007B0BDE8F0832DE9F04383B01C46BD
:1016600020B10D461646074601B1A2B934B1012298
:10167000314B1A70314B9847034658E040F27522BF
:101680002F493048304CA0473048A0473048A04749
:101690006FF00B034BE0694641F270002D4B984709
:1016A0000346002843D1DDF8008001A941F28400FF
:1016B000284B98470346002839D1C8F38B08464584
:1016C0000ED940F286221E491E481F4CA0474246B2
:1016D00031462148A0471E48A0476FF00B0326E083
:1016E000019B9F4204D307EB0609434499450CD95B
:1016F0004FF4237212491348134CA0471748A047D0
:101700001348A0476FF00B0311E0324629463846D4
:10171000134B9847034650B9019A4244914500D073
:101720002CB10122044B1A70044B9847034618460B
:1017300003B0BDE8F08300BF1C0B0020F50F400094
:1017400098F0400010EE4000295E4000E4EF4000B9
:1017500038EE40004521400004F0400048F04000D1
:101760005D21400038B5431E062B1DD8DFE803F08D
:101770000804100C1C141800134B1960002038BD0D
:10178000124B1960002038BD114B1960002038BD84
:10179000104B1960002038BD0F4B1960002038BD78
:1017A0000E4B1960002038BD044640F2C5220C499A
:1017B0000C480D4DA84721460C48A8470C48A8479F
:1017C0006FF00B0038BD00BF180B0020000B00208D
:1017D000200B00200C0B0020FC0A0020100B002026
:1017E000A4F0400010EE4000295E40008CF0400064
:1017F00038EE400010B50024094B1C60094B1C60FA
:10180000094B1C70094B1C70094B1C7009480A4B92
:1018100098470A4903200A4B9847204610BD00BF4D
:10182000000B0020180B0020240B0020140B0020BC
:10183000080B0020351040009D0D4000F10F4000C6
:101840006517400030B59FB015462C2811D10023F4
:10185000042203A92846904CA047002840F0198193
:101860008E4B1B68002B00F0148103A92C20984795
:101870000FE104461B2811D10023082203A92846A2
:10188000854CA047002840F00481844B1B68002B46
:1018900000F0FF8003A91B209847FAE0062811D129
:1018A0000123302203A928467B4CA047002840F0A2
:1018B000F0807A4B1B68002B00F0EB8003A9062018
:1018C0009847E6E00E2800F0E480322811D100238A
:1018D000102203A92846704CA047002840F0D98068
:1018E0006E4B1B68002B00F0D48003A93220984770
:1018F000CFE02F2816D16422002103A8684B984717
:101900000023642203A92846634CA047002840F026
:10191000C080624B1B68002B00F0BB8003A92F2006
:101920009847B6E0342820D10023042203A9284692
:10193000594CA047002840F0AC805A485A4CA04768
:1019400003990B0E0093C1F30743C1F30722C9B2F9
:101950005648A0475648A047504B1B68002B00F044
:10196000988000213420984793E0112816D1002355
:10197000504A1370042203A92846474CA047002868
:1019800040F087809DF80C204B4B1A70434B1B682E
:10199000002B7ED003A9112098477AE013280FD19D
:1019A00000232C2203A928463B4CA047002870D1D5
:1019B0003A4B1B68002B6CD003A91320984768E0B2
:1019C00004280FD1002304221CA92846324CA0472A
:1019D00000285ED1314B1B68002B5AD01CA9042073
:1019E000984756E065280FD1002304221CA92846F9
:1019F000294CA04700284CD1284B1B68002B48D00D
:101A00001CA96520984744E009280FD101236422CE
:101A100003A92846204CA04700283AD11F4B1B6839
:101A2000002B36D003A90920984732E02A280DD18F
:101A30000123042203A92846174CA04748BB174B93
:101A40001B6833B303A92A20984722E0202815D128
:101A50000023082203A928460F4CA047C8B9012338
:101A6000BDF81020039905F10800A04788B90B4B79
:101A70001B6873B103A9202098470AE04FF49572C0
:101A80000E490F48084DA84721460E48A847084868
:101A9000A8471FB030BD00BF59164000280B0020DA
:101AA000E10F4000ECF04000295E4000F8F04000FB
:101AB00038EE40002C0B00202D0B0020C0F0400021
:101AC00010EE400018F14000F0B58BB001238DF806
:101AD000073000284ED00268294B1A600022294B9B
:101AE0001A700DF10700284B98470446002843D18F
:101AF000264B98470446002838D125490120254B1C
:101B0000984702A8244B98470446244F3846244D52
:101B1000A8479DF80E309DF80D209DF80C10214827
:101B2000A847214E3046A8473846A8479DF81130AF
:101B30009DF810209DF80F101C48A8473046A84774
:101B40003846A8470023032213211948A8473046E6
:101B5000A84714F10D0F0FD140F2D51215491648C0
:101B6000A8471648A8473046A84705E00020144B70
:101B7000984701E06FF00B0420460BB0F0BD00BFAA
:101B8000280B00202C0B0020C9224000F517400034
:101B900045184000651740001D224000ECF0400051
:101BA000295E4000D0F1400038EE4000ECF14000EA
:101BB00008F24000DCF0400010EE400024F240004B
:101BC0009123400008B5014B984708BD39134000E8
:101BD00010B584B0002202920192009213462B218C
:101BE0000120024CA04704B010BD00BF61114000AD
:101BF0000020704710B586B00A2812D840F2214361
:101C0000C34013F0010F0CD006AA02F8040D002304
:101C100002930193009304235B210120084CA04709
:101C20000BE04FF44B7207490748084CA04708489F
:101C3000A0470848A0476FF00B0006B010BD00BFDA
:101C400061114000CCF0400010EE4000295E4000E1
:101C500088F3400038EE400010B590B0302928BF1E
:101C600030214A1CD2B2014604A8074B98470023F2
:101C7000029301930093302304AA07210120034C0F
:101C8000A04710B010BD00BFCD0F40006111400053
:101C9000F0B583B004464FF4A5550A4E0A4F2146CD
:101CA0002846B04754B102A9002341F8043D284614
:101CB000B8470028F3D1019B9C42F0D1002003B02B
:101CC000F0BD00BF51214000452140002DE9F04FFB
:101CD00083B001203D4B984701A901203C4B984718
:101CE000824648B172223B493B483C4CA0473C48A5
:101CF000A0473C48A04764E000244FF00108DFF80B
:101D0000F890324D384F019941F002014046C847E2
:101D10004046A8476946354B18682D4B984718B977
:101D2000009B0BB1314E37E0304E0E2333604046FE
:101D3000A84769463068264B984710B9009B002B8E
:101D4000F0D12A4E132333604046A84769463068D5
:101D50001F4B984706460028E4D096221D491E488E
:101D60001E4CA0472248A0471E48A047B24628E084
:101D70000220A84769463068154B9847009B13F02E
:101D8000040F09D1AA2213491348DFF850B0D847ED
:101D90001848D8471348D847009B13F0040F10D1B8
:101DA0000134A7FB04235B0803EB43039C42DFD011
:101DB000019941F002014046C847009B13F0040F0F
:101DC000A1D0504603B0BDE8F08F00BFF50C400035
:101DD0004521400014F4400010EE4000295E400010
:101DE00024F4400038EE4000ABAAAAAA1800002054
:101DF00044F4400064F440005121400000B583B039
:101E000001A941F20840154B9847E0B9019941F406
:101E10008071019141F20840114B9847B0B901A976
:101E20004FF4D0500D4B984798B9019941F4803147
:101E300001914FF4D0500A4B9847002814BF6FF01F
:101E40000500002007E06FF0050004E06FF00500DA
:101E500001E06FF0050003B05DF804FB4521400090
:101E60005121400010B582B0244B1C68002C40D199
:101E700019464FF48050224B984718B100221F4B4F
:101E80001A6038E001A941F2F4301D4B984718B1AF
:101E900000221A4B1A602EE0184B1B68194A934215
:101EA00006D1019B012B1DD00132144B1A6019E0A1
:101EB000154A934209D1019B032B13D0042B0CBF6D
:101EC0000132124A0D4B1A600CE0114A934209D1BB
:101ED0000A494FF46C100A4B984718B10022074B7F
:101EE0001A6008E0054A136823F4702343F4A02322
:101EF0001360024B1C68204602B010BD300B00205E
:101F000045214000A0021000B0021000B2021000F3
:101F1000F0001000F8B5074641F21405244C254E98
:101F20002846A047002802DB0120B047F8E72248F6
:101F30001F4B984710F0010F09D11E4E1C4D1F4C2E
:101F40000120B0474FF00C10A847A042F8D1022F53
:101F50000AD11B491B481C4CA0474FF4801141F289
:101F60008C00A04700240FE0032F09D11449154825
:101F7000154CA047002141F28C00A047002403E04B
:101F8000042F14BF00248024104B9847C0F30B008B
:101F9000B0F5687F0CBF44F0020020460C4B984718
:101FA0000C494FF00C10084B98470020F8BD00BFBB
:101FB00039214000F50C4000BC0702009ED0AD1056
:101FC0007DD51C3CAC07020051214000651E40003D
:101FD000911C4000612F52EFF0B583B041F28C03A9
:101FE0000193184B00930238C0B2012810D8164B49
:101FF0000193A3F12253A3F51113A3F2E953009324
:1020000006E03846B0470198A847013C06D113E0E6
:102010004FF0FF34002002270C4E0D4D009B9842DC
:10202000EFD1009A074B9A4209D1002141F28C006E
:10203000084B9847002003E06FF0040000E0002008
:1020400003B0F0BD36265302AC070200F50C400089
:102050003921400051214000F0B583B002A900238E
:1020600041F8043D4FF4A050244B984748B140F24A
:102070002F2223492348244CA0472448A047244822
:10208000A047019921F4806101914FF4A050214BA8
:102090009847054658B140F23522194919481A4C5B
:1020A000A0471D48A0471A48A047284624E00A2414
:1020B000124E184F01A94FF4A050B047054658B131
:1020C0004FF40F720E490F480F4CA0471348A0471A
:1020D0000F48A04728460FE0019911F4806F0AD0FD
:1020E00021F4806101914FF4A050B847631E13F0B2
:1020F000FF04DFD100E0002003B0F0BD4521400027
:1021000044F5400010EE4000295E4000B0F440006D
:1021100038EE400051214000CCF44000E8F440008B
:1021200008B5014B984708BD3D0E400008B5014B6E
:10213000984708BDC90F400008B5014B984708BD36
:102140008929400008B5014B984708BDA1294000E6
:1021500008B5014B984708BDB92940002DE9F04763
:10216000074689461546134BB3F80080A8F10808C6
:102170001FFA88F8424508D80026AAB209EB0601E2
:1021800038460D4B9847034610E044460026DFF8DA
:1021900028A0424609EB06013846D047034628B935
:1021A0002D1B26442744A542F3D8E6E71846BDE890
:1021B000F08700BF14000020DD2A40002DE9F04721
:1021C000074689461546134BB3F80080A8F1080866
:1021D0001FFA88F8424508D80026AAB209EB060182
:1021E00038460D4B9847034610E044460026DFF87A
:1021F00028A0424609EB06013846D047034628B9D5
:102200002D1B26442744A542F3D8E6E71846BDE82F
:10221000F08700BF14000020A92B400030B583B028
:10222000044602A9002341F8043D2348234B984764
:102230000546019A224B9A4205D101A941F2480074
:102240001E4B98470546019B1A0C1112E171C2F30F
:102250000311217202F00F0262721A122271C3F38B
:102260000312627103F00F03A371164B98472060AD
:102270002279A37903F00F0343EA022263791B0159
:10228000DBB21343E179627A02F00F0242EA0121E4
:10229000227A1201D2B20A4341F230318A4288BF17
:1022A0006FF00C0541F22F3293428CBF28466FF03D
:1022B0000C0003B030BD00BFAC0702004521400058
:1022C000C3C15DD7651E400038B530B10478631EC8
:1022D000DBB2042B28BF012400E0012400201D4BA9
:1022E0009847054650B14FF492721B491B481C4C4D
:1022F000A0471C48A0471C48A04729E01B48184D90
:10230000A8471B4B984701461A48A8471648A847B4
:10231000194B98472046194B98470546B0B92046B7
:10232000174B9847054688B9023CE4B2012C0FD9F7
:10233000144B9847054658B14FF4AE72064907480A
:10234000074CA0471048A0470748A0470F4B9847A5
:10235000284638BD21214000FCF5400010EE400029
:10236000295E400050F5400038EE4000ECF040009F
:10237000651E40006CF54000D1294000151F40004B
:10238000D91F4000FD1D40007CF540002D2140007C
:1023900038B5194B984758B104464FF4BA721749EB
:1023A0001748184DA8471848A8471848A84720E0DC
:1023B0000020174B9847044650B140F27B120F495A
:1023C0000F48104DA8471348A8471048A84710E0E9
:1023D000114B9847044650B140F281120749084812
:1023E000084DA8470D48A8470848A84701E00C4BEE
:1023F0009847204638BD00BF5920400008F64000ED
:1024000010EE4000295E40009CF5400038EE400090
:10241000A1364000BCF540002D214000E0F5400011
:102420007D29400000B585B0002301930290ADF8EE
:102430000C1001A90320024B984705B05DF804FB7E
:10244000210F4000F0B583B00546CF2804D000F13D
:102450003B03DBB2012B06D801210DF10700224B13
:10246000984700283AD10B2401271F4E39460DF119
:102470000700B04758B140F227121C491C481D4CB8
:10248000A0471D48A0471D48A047002029E09DF80F
:102490000730AB4205D0631E13F0FF04E6D10B24D6
:1024A00000E00B240126104D31460DF10700A8472E
:1024B00058B140F235120D490D480E4CA0470E4858
:1024C000A0470E48A04700200BE09DF807303BB125
:1024D000631E13F0FF04E7D1012002E0002000E0BA
:1024E000012003B0F0BD00BF2524400020FB4000C8
:1024F00010EE4000295E400064F6400038EE4000D7
:102500002DE9F04F83B08246894693464FF000088C
:10251000354DB9F5005F94BF0FFA89F74FF40057B6
:102520000A24012631460DF10300A84758B140F2B4
:1025300057122E492E482F4CA0472F48A0472F480E
:10254000A04700204DE09DF803301B090F2B05D05C
:10255000013C24B2B4F1FF3FE4D101E0002C0DDCDA
:1025600040F2631221492248224CA0479DF80310F3
:102570002348A0472148A047002032E0BFB2394697
:102580000AEB0800A84758B14FF4B672174918482B
:10259000184CA0471B48A0471848A047002020E03F
:1025A000BBF1000F12D1184B1B787BB9022101A897
:1025B000A84758B140F277120C490D480D4CA0477E
:1025C0001248A0470D48A04700200AE0B8440FFA7F
:1025D00088F8C7EB09071FFA87F9B9F1000F98D1FE
:1025E000012003B0BDE8F08F2524400038FC4000F6
:1025F00010EE4000295E400098F6400038EE4000A2
:10260000CCF64000FCF64000340B002030F74000D0
:1026100000B585B0019000230293ADF80C1001A91C
:102620000320024B984705B05DF804FB210F4000E2
:1026300070B584B09DF820408DF80400C1380E2894
:1026400000F2AE80DFE800F03E3E5F12232C4D4DDD
:102650007808ACACACAC35000B0C8DF805300B0A2F
:102660008DF806308DF807100521A4E0C1F307238B
:1026700014B98DF8053003E063F07F038DF8053061
:102680008DF8061000238DF80730052193E0002314
:102690008DF805308DF806308DF8073005218AE079
:1026A00000238DF805308DF806308DF807300521B0
:1026B00081E0FF238DF805308DF806308DF8073066
:1026C000052178E00A0C8DF805200A0A8DF806200D
:1026D0008DF807101A0A8DF808208DF809300721A7
:1026E00069E00A0C8DF805200A0A8DF806208DF89D
:1026F00007101A0C8DF808201A0A8DF809208DF899
:102700000A30082157E0C1F3072314B98DF80530CA
:1027100003E063F07F038DF805308DF80610130E8B
:102720008DF80730130C8DF80830130A8DF8093036
:102730008DF80A2008213EE00B0C8DF805300B0ABD
:102740008DF806308DF80710130E8DF80830130C35
:102750008DF80930130A8DF80A308DF80B20092105
:1027600029E012F8013B83EA4003E05C9542F8D18E
:1027700004AB1E44430006F80C3C01E00139C9B229
:1027800001A8104B984768B14FF484720E490F4866
:102790000F4CA0470F48A0470F48A04700200FE06C
:1027A00000200DE001200BE04E1E01AB9D197F20A3
:1027B0001A460A4CD5E70A4B1B78002BDED1F3E70B
:1027C00004B070BD1126400018FB400010EE400020
:1027D000295E400068F7400038EE400038FB4000BA
:1027E000340B002070B582B00446312835BF012378
:1027F0000023C325C925009304230A460146284621
:10280000164EB04701280CD040F2EB12144915487F
:10281000154DA84721461548A8471548A847002048
:102820001AE02846134B9847012814D040F2F112C1
:102830000B490C480C4DA84721460F48A8470C48A7
:10284000A84700240094234622462146CF20034D6A
:10285000A847204600E0012002B070BD31264000AC
:1028600034F6400010EE4000295E400094F740002E
:1028700038EE400045244000C0F740002DE9F0410B
:1028800084B004468846B0F5807F35BF0126002617
:10289000C425CA25009604230022014628462D4F50
:1028A000B84701280CD040F245222B492B482C4D2B
:1028B000A84721462B48A8472B48A847002045E0B9
:1028C00028462A4B9847012814D040F24B2222492F
:1028D0002248234DA84721462548A8472248A84713
:1028E00000240094234622462146CF20194DA847B4
:1028F00020462BE03246042103A81E4B98470128AE
:1029000013D040F2532214491448154CA0471A48DA
:10291000A0471548A047002400942346224621469C
:10292000CF200C4DA847204610E09DF80D109DF8D3
:102930000E20130443EA01229DF80C3013439DF846
:102940000F2043EA0263C8F80030012004B0BDE85C
:10295000F08100BF3126400044F6400010EE4000F8
:10296000295E4000F8F7400038EE40004524400062
:1029700024F840000125400058F840000020014B99
:1029800018707047340B002000B583B001A9034BC9
:102990009847019803B05DF804FB00BF7D28400014
:1029A00008B5044B984701280CBF00206FF00500C4
:1029B00008BD00BF7D28400008B5044B984701289A
:1029C0000CBF00206FF0050008BD00BFE5274000E8
:1029D00030B583B0002302A941F8083D324A137094
:1029E0004EF62400314B9847F0B901222E4B1A7055
:1029F00040F2C5222E492F482F4CA0472F48A04710
:102A00002F48A04769464EF62400284B98470446B5
:102A100050B94FF4327226492648274DA847294815
:102A2000A8472748A8473CE01F4B1B78CBB9009923
:102A300021F07C0141F0500100914EF62400224B20
:102A40009847044650B940F2D222194919481A4D04
:102A5000A8471E48A8471A48A84722E00122124B5F
:102A60001A7001A94FF48050104B984760B94FF489
:102A700037720F490F48104CA0471548A04710481F
:102A8000A0476FF005040CE04EF62400114B984768
:102A900020F0700141F050014EF624000E4B984793
:102AA0000024204603B030BD340B00207D284000B8
:102AB00018F6400010EE4000295E400078F8400013
:102AC00038EE4000C8F84000E5274000F8F8400024
:102AD0002CF9400089294000B9294000F0B583B0A5
:102AE00004460F461546002200922B460146C82098
:102AF000234EB04701280BD04FF41D7221492248C4
:102B0000224DA84721462248A8472248A84732E03C
:102B1000C820214B9847012812D040F27A22194947
:102B200019481A4DA84721461C48A8471948A847E4
:102B3000002100910B460A46CF20114CA0471AE015
:102B4000002229463846164B9847012811D04FF4E9
:102B500021720C490C480D4CA0471248A0470D4863
:102B6000A047002100910B460A46CF20044CA04705
:102B700001E0002001E06FF0050003B0F0BD00BFF0
:102B8000312640002CFB400010EE4000295E400042
:102B900054F9400038EE40004524400084F94000DC
:102BA00001254000BCF940002DE9F04385B0044602
:102BB00088461546002200922B460146C7204C4EFF
:102BC000B04701280BD040F20F224A494A484B4DEA
:102BD000A84721464A48A8474A48A84782E0C72054
:102BE000494B9847012812D040F2152241494248EA
:102BF000424DA84721464548A8474248A8470021DA
:102C000000910B460A46CF20394CA0476AE00024C9
:102C1000ADF80C403E4FDFF810912E46B5F5005F41
:102C200028BF4FF400562CB9B5F5005F94BF0323BD
:102C3000012304E0B5F5005F94BF0323022363F092
:102C40000F038DF80B3001210DF10B00B84750B187
:102C50004FF4D4722F492848284CA0472E48A0474B
:102C60002848A04728E0314608EB0400B84750B197
:102C700040F2B11227492048204CA0472748A047DE
:102C80002048A04718E099F8003073B9022103A842
:102C9000B84750B140F2BB121E491748174CA04725
:102CA0001F48A0471748A04706E0344424B2AD1B94
:102CB000ADB2002DB1D113E040F226220D490E48ED
:102CC0000E4CA0471748A0470E48A0470024009488
:102CD000234622462146CF20054DA847204603E043
:102CE000002001E06FF0050005B0BDE8F08300BFF3
:102CF0003126400054F6400010EE4000295E4000AE
:102D0000E4F9400038EE40004524400014FA400049
:102D10001126400024F640004CFA400084FA40009E
:102D2000B8FA4000F0FA4000340B00202DE9F84FCB
:102D3000BDF82840002C47D081460E469246984662
:102D400003012249CB58002B3ED001EB00139B8896
:102D50009BB2002B38D001EB00139B7ADBB2012B26
:102D600032D1F48001EB0017DFF878B0BB88E31AAA
:102D70001BB2002B03DDBD88ADB2002301E0254668
:102D8000012339682A464046D847A8B93B683360D2
:102D9000B580F3885B1BF3800D4B1B682BB10C4B8C
:102DA0001B683246514648469847641BA4B2A84463
:102DB000002CDBD1BDE8F88F0648074DA847214617
:102DC0000648A8470648A847BDE8F88F4CAD002044
:102DD000FCAD0020ECF04000295E400048FC4000C3
:102DE00038EE400059164000F0B599B0144641281D
:102DF00019D10023042207A92046A24CA04700288D
:102E000040F03E819DF81D308DF80C309E4B1B68C4
:102E1000002B00F035819C4B1B6803AA01219DF912
:102E20001C0098472CE10D46422819D100230422AA
:102E300007A92046934CA047002840F021819DF827
:102E40001D308DF80C30904B1B68002B00F0188162
:102E50008D4B1B6803AA02219DF91C0098470FE1C6
:102E600043283FD100230C220DEB02012046854C64
:102E7000A047002840F004819DF91530002B19DB94
:102E8000824A02EB03120021D17201219172804922
:102E90000A88013292B20A800A8892B21AB90A8864
:102EA000013292B20A807A4A118889B2774A02EBDB
:102EB0000312D1808DF81C300223ADF82030BDF80C
:102EC0000E30ADF82230049B09936F4B1B68002B2A
:102ED00000F0D6806C4B1B6807AA04219DF91400F2
:102EE0009847CDE0442801D04B2824D10023042268
:102EF00007A92046634CA047002840F0C1809DF9F7
:102F00001C008DF80C009DF91D308DF80D303BB97B
:102F1000BDF81E30083B9BB25C4A02EB00121381E5
:102F2000594B1B68002B00F0AB80574B1B6803AA62
:102F300005219847A4E04A2813D10023442207A979
:102F40002046504CA047002840F09A80514B1B6807
:102F5000002B00F095804F4B1B68179907A89847E6
:102F60008EE0462805D0482805D04D2848D10627B0
:102F700002E0062700E009270023102203A92046CB
:102F8000404EB04700287BD19DF91800BDF81A10BB
:102F90003E4A02EB001200231373BDF914E0BDF8A2
:102FA0001630BDF80E60ADF82660049E0A96D288F1
:102FB00092B291421BD1BEF1000F0ADDAE4508DA94
:102FC0001FFA8EF2009223443A4607A9324CA047DA
:102FD00056E0ADF820E0002307932B4B1B68002B35
:102FE0004ED0294B1B6807AA3946984748E0102D58
:102FF00046D90123002211461046224CA0473FE04B
:10300000452805D0472805D04C2824D1072502E0C3
:10301000072500E008250023082207A92046194CAF
:10302000A04700282CD19DF91C00BDF82020BDF838
:103030001E30ADF80C30154B03EB0013DB889BB250
:103040009A421DD1104B1B68D3B10F4B1B6803AACA
:103050002946984714E0522812D10123142207A9C7
:103060002046084CA04758B90C4B089A1A601B68B8
:1030700033B10A4B1B689DF82C2009990798984793
:1030800019B0F0BD59164000FCAD00204CAD002039
:10309000360B002004AE00202D2D400000AE002095
:1030A00008B50A4B1B7813F0FF0F0ED1B022002198
:1030B0000748084B984708490220084B98470122C7
:1030C000024B1A700022064B1A8008BD350B0020F7
:1030D0004CAD0020E10F4000E92D40006517400095
:1030E000360B0020024B1860024B1960704700BF7E
:1030F000FCAD002004AE002070B586B002284CD193
:1031000001294DD0022918BF4FF0FF3459D14AE0B0
:10311000254600EB04139B7A13F0FF0F36D12A48A3
:1031200000EB0410164610220021284B9847264B2E
:1031300003EB051301229A72254A138801339BB2CF
:10314000138013889BB21BB9138801339BB2138081
:103150001F4B1A8892B21C4B03EB0513DA8064B242
:1031600016F0010F2DD006AA02F8044D164B03EB02
:1031700005152123EB72002302930193009304238E
:1031800050210220134DA8471BE00F480134E4B240
:103190008C42BDD34FF0FF3413E04FF0FF3410E00A
:1031A0000721002401E00B2107242546064B03EBF1
:1031B00004139B7A13F0FF0FE7D1034800EB0410D0
:1031C000B0E7204606B070BD4CAD0020E10F4000D6
:1031D000360B00206111400039B310B588B00028CB
:1031E00026DB184B03EB00139B7ADBB2012B22D1B9
:1031F00022B304468DF81C00082205A8124B9847FC
:10320000104800EB0410C388ADF81E300023029371
:10321000019300930C2305AA412102200B4CA047E7
:10322000002818BF6FF008000AE06FF00500704733
:103230006FF0050004E06FF0050001E06FF005009D
:1032400008B010BD4CAD0020CD0F40006111400012
:10325000002821DB144B03EB00139B7ADBB2012B1C
:103260001DD110B586B08DF814008DF815100E4BD9
:1032700003EB0010C388ADF81630002302930193CE
:103280000093042305AA42210220084CA0470028ED
:1032900018BF6FF0080005E06FF0050070476FF091
:1032A0000500704706B010BD4CAD00206111400014
:1032B00000280ADB064B03EB0010837ADBB2012BFC
:1032C00014BF6FF00500002070476FF005007047D5
:1032D0004CAD0020002838DB002939D0224B03EB0D
:1032E00000139B7ADBB2012B35D1002A36D030B5E2
:1032F00089B01D4B03EB0013DB7A13F0010F07D0ED
:10330000194B03EB0013DB7A8DF81D304B2500E0E1
:10331000442504468DF81C00082205A8134B984745
:10332000114800EB0410C388ADF81E30002302934F
:10333000019300930C2305AA294602200C4CA047B8
:10334000002818BF6FF008000BE06FF00500704711
:103350006FF0050070476FF0050070476FF00500D3
:10336000704709B030BD00BF4CAD0020CD0F40000C
:103370006111400000283BDB00293CD0B2F5AF6F63
:103380003CD8224B03EB00139B7ADBB2012B38D1E4
:1033900010B588B08DF81000ADF812201B4B03EB70
:1033A0000013DB88ADF81C300728B4BF5024442438
:1033B000164B03EB0013DB7A13F0010F06D0134B0F
:1033C00003EB00100489A4B24C2000E045200294D5
:1033D0000192009110230DEB030240F080010220C6
:1033E0000B4CA04700280CBF00206FF00D000BE035
:1033F0006FF0050070476FF0050070476FF0050033
:1034000070476FF00500704708B010BD4CAD00204C
:1034100061114000F0B589B00E9D00283FDB002906
:1034200040D0B2F5AF6F40D8254B03EB00139B7A29
:10343000DBB2012B3CD1224B03EB00139B7A13F040
:10344000FF0F38D0044616460F46102200210DEB20
:1034500002001C4B98478DF81040ADF812601848D8
:1034600000EB0410C388ADF81C303DB12B88ADF8DB
:1034700014306B88ADF816306B68069344230293C2
:103480000196009710230DEB0302C72102200E4C7A
:10349000A04700280CBF00206FF00D000DE06FF07A
:1034A00005000AE06FF0050007E06FF0050004E09A
:1034B0006FF0050001E06FF0050009B0F0BD00BF3E
:1034C0004CAD0020E10F40006111400000283CDBC2
:1034D00000293DD0002A3ED070B586B0224C04EBC6
:1034E0000014A47AE4B2012C38D11F4E05017419DE
:1034F0007151A280227B12F0FF0F32D106EB001235
:1035000001211173D27A0A40002A0CBF46214D21B5
:103510001BB94FF0FF33049300E004938DF81400BF
:10352000114B03EB0010C388ADF816300023029353
:1035300001930093082304AA02200C4CA047002802
:103540000CBF00206FF00D000CE06FF0050070471D
:103550006FF0050070476FF0050070476FF00500D1
:1035600000E0002006B070BD4CAD002061114000AD
:1035700030B587B000282EDB1B4B03EB00139B7A82
:10358000DBB2012B2AD104468DF81400164B03EB55
:103590000013DA88ADF8162000229A72DA80DB7AFE
:1035A00003F0010393420292019200924FF0040350
:1035B00005AA0CBF49214E2102200C4DA847051E2B
:1035C00018BF6FF0080510220021074800EB041017
:1035D000074B984704E06FF0050501E06FF0050523
:1035E000284607B030BD00BF4CAD0020611140003F
:1035F000E10F400000283EDB00293FD0002A40D0E8
:1036000070B586B0244C04EB0014A47AE4B2012C0B
:103610003AD1214C04EB0014A47A14F0FF0F36D0F9
:103620001D4E050174197151A280227B12F0FF0F0B
:103630002FD106EB0012012111731BB94FF0FF339C
:10364000049300E004938DF81400134B03EB001077
:10365000C388ADF81630002302930193009308232A
:1036600004AA482102200D4CA04700280CBF0020CE
:103670006FF00D000EE06FF0050070476FF0050071
:1036800070476FF0050070476FF0050002E0002002
:1036900000E0002006B070BD4CAD0020611140007C
:1036A00070B582B005462E4B9847C0F30B00B0F5BD
:1036B000687F50D301A941F210402A4B9847044635
:1036C000002849D1019921F0EE6121F4EE2141F069
:1036D000887141F48831019141F21040224B9847A2
:1036E000B5B100212148204DA847AB212048A8476B
:1036F00001212048A84700211F48A84781211F48D1
:10370000A8471F4E1F4D3046A8470128FBD115E0A2
:1037100000211648144DA847B9211548A847012192
:103720001448A84700211448A84781211348A847F6
:10373000134E144D3046A8470128FBD1019921F0C2
:10374000EE6121F4EE2141F48031019141F210400B
:10375000054B984700E00024204602B070BD00BF32
:10376000651E400045214000512140000802010033
:103770000C020100140201001C02010004020100FD
:10378000180201003921400090B92DE9F0410C46A2
:103790009046002A0FDD8F18084E094D30682146EB
:1037A0002B6898470134A742F8D14046BDE8F08124
:1037B0004FF0FF3070470020BDE8F08110AE0020D0
:1037C00008AE00200B4619B1096881605B68C360D0
:1037D0001AB1136883615368C36170470B4619B10E
:1037E000096801605B6843601AB11368036153683C
:1037F0004361704721F4FE7121F001018905890DB3
:103800000162704708B51520014B984708BD00BFFD
:103810001141400032B100EB8100036B43F0010322
:103820000363704700EB8100036B23F00103036324
:10383000704700BF32B100EB8100036B43F002031D
:103840000363704700EB8100036B23F00203036303
:10385000704700BF00EB81010B6B23F0F0030B639B
:103860000B6B1A430A6370476AB110B4144600EB3D
:1038700081010B6B23F47F430B630A6B42EA042242
:103880000A63002002E04FF0FF30704710BC704721
:1038900010B400EB8101086B80B208630C6B44EA42
:1038A000036343EA02420A6310BC7047436913F0A2
:1038B000020F1DBFC1F30801C16100200120704744
:1038C000436913F0010F05D08369C3F308030B604C
:1038D00000207047012070470138022815D82DE9D3
:1038E000F0410E4614469AB10D46DFF838800C4F71
:1038F000D8F8000015F8011B3B68984700280ADB40
:10390000A81B013CF4D1BDE8F0814FF0FF307047B7
:103910000020BDE8F0814FF0FF30BDE8F08100BF2E
:103920000CAE002010AE002010B4AC2303600B6876
:103930004A68B3FBF2F31B095C1E4FF6FE72944219
:103940000AD803628B68436040F20223C0F820313A
:1039500050230360002000E0012010BC704700BF2E
:10396000436913F0020F1ABFC161002001207047A4
:10397000436913F0010F1DBF83690B700020012004
:10398000704700BF10B50E480E4B98473E210020EF
:103990000D4B98470D4CA0470028FCD00C4B984786
:1039A0000C4A0D4B9A620D4CA0470028FCD0102009
:1039B0000B4B98470B4B98470148024B984710BD5B
:1039C000000E2707494340008D404000E140400081
:1039D000F1404000013F132000040E40014140002F
:1039E0002540400035424000F8B52A482A4B984708
:1039F0000B202A4CA0470C20A0470D20A047284BA5
:103A00004FF400021A631A61C3F8A020254C042564
:103A10006561C4F8A0506566C4F89050656565623C
:103A2000C4F88050226F22F004022267626F22F0F5
:103A3000040262674FF480121A631A61C3F8A0206F
:103A40004FF4803222632261C4F8A0204FF4800238
:103A50001A631A61C3F8A0204FF000620C211248CB
:103A6000124B9847124F39460320124EB047394641
:103A70002846B0476566C4F8905065656562C4F82D
:103A80008050236F23F004032367636F23F0040344
:103A90006367F8BD50140E4065414000114140007D
:103AA00000120E40000E0E4000100E404D3D400032
:103AB00001000008293C40000AB1416670470166D8
:103AC000704700BF4264B1F1C05F2FD007D8B1F199
:103AD000006F14D0B1F1805F1ED039B97047B1F1D9
:103AE000205F36D004D8B1F1005F29D04260704722
:103AF000B1F1405F2DD0B1F1605F2AD0F6E710B48C
:103B0000046F016FD343214019400167446F416F37
:103B100021400B4043671AE0036F13430367416F73
:103B2000436F0B4023EA02034367DFE7016F036F34
:103B30000B4023EA02030367436F13434367D5E750
:103B4000036F13430367436F13434367CEE742603A
:103B500010BC7047416412F0010F14BF416601664A
:103B600012F00A0F14BF0162416212F0020F02D07C
:103B7000C0F8801004E012F0080F18BFC0F88410DD
:103B800041610160704700BF10B44164019C0CB1F9
:103B9000416600E001660BB1016500E041650AB1D4
:103BA000016300E041630161016010BC704700BF28
:103BB00012F0100F10D0C0F8B01012F0200F14BF88
:103BC000C0F8D410C0F8D01012F0400F14BFC0F8E5
:103BD000C010C0F8C4107047C0F8B410704700BFE0
:103BE0000164704741647047C06C7047806C7047D7
:103BF000430903F5001303F207735B0200F01F0093
:103C0000012202FA00F01863704700BF430903F570
:103C1000001303F207735B0200F01F00012202FA97
:103C200000F05863704700BF70B582B00D4643097D
:103C300003F5001303F207735C0201F0F043B3F1E4
:103C4000005F47D009D8B3F1805F21D0B3F1C05FE6
:103C50002FD0B3F1006F6FD109E0B3F1405F55D0C1
:103C6000B3F1605F52D0B3F1205F44D064E000F064
:103C70001F000126864032464FF000612046304B3F
:103C8000984715F0010F14BF66662666012054E0C0
:103C900000F01F000126864032464FF0805120463A
:103CA000274B984715F0010F14BF66662666012062
:103CB00043E000F01F000126864032464FF0C0511D
:103CC00020461F4B984715F0010F14BF6666266605
:103CD000012032E000F01F000126864032464FF0FE
:103CE00000512046164B984715F0010F14BF666629
:103CF0002666012021E000F01F0101262A4606FA6F
:103D000001F120460F4B9847304616E005F060520F
:103D100000F01F01012605EA06030093C5F38003A6
:103D2000B2F1605F14BF0022012206FA01F12046C1
:103D3000054CA047304600E0002002B070BD00BF37
:103D4000C53A4000553B4000893B400070B582B009
:103D500005460E46144602F0F043B3F1005F38D03A
:103D600009D8B3F1805F1CD0B3F1C05F25D0B3F1A7
:103D7000006F50D109E0B3F1405F3AD0B3F1605F1A
:103D800037D0B3F1205F30D045E00A464FF00061F4
:103D9000224B984714F0010F14BF6E662E66012067
:103DA0003AE00A464FF080511C4B984714F0010F3F
:103DB00014BF6E662E6601202EE00A464FF0C051F9
:103DC000164B984714F0010F14BF6E662E66012043
:103DD00022E00A464FF00051104B984714F0010FB3
:103DE00014BF6E662E66012016E00D4B9847012029
:103DF00012E004F0605204F001030093C4F3800366
:103E0000B2F1605F14BF0022012231462846054C02
:103E1000A047012000E0002002B070BDC53A40007C
:103E2000553B4000893B4000400900F5001000F27E
:103E300007704002704700BF40090B30704700BF59
:103E400000F01F00012303FA00F070472DE9F8434A
:103E500081468846124B984705464846114B98477D
:103E6000054013D0104C04F160062368434508D187
:103E70006168294205D0E36840469847636825EAAF
:103E80000305B44202D01034002DEED1074B1B685D
:103E900023B1074B1B680BB148469847BDE8F88330
:103EA000E93B4000ED3B4000400B002014AE0020F9
:103EB0003C0B0020F8B5174C2668062E28D84FF08A
:103EC000000C6446144FA64625017D598D4204D14D
:103ED00007EB04156D68954204D00134E4B2A446A2
:103EE000A642F0D20C4D4FEA0E1E05EB0E0445F82B
:103EF0000E106260A3600699E1600136664504BF5A
:103F000004490E6011461A46044B98470020F8BD3C
:103F10000120F8BD380B0020400B0020B13B4000D1
:103F20002DE9F04182B004460F4690460A4B98476F
:103F300005462046094B984706462046084B9847B9
:103F4000CDF800803B46024631462846054CA04746
:103F500002B0BDE8F08100BF293E4000393E40007C
:103F6000413E4000B53E400008B50B210148024BE0
:103F7000984708BD000E0E404D3E400008B50C218C
:103F80000148024B984708BD00100E404D3E4000CE
:103F900008B50D210148024B984708BD00120E409C
:103FA0004D3E4000F8B505460C461746184B98475D
:103FB00006464FF0FF312846164B98472846164BC9
:103FC0009847E2B202F01F030121994063099B0068
:103FD00003F1604303F56143C3F88010C3F8801117
:103FE000002C06DA02F00F023F01FFB20B488754A3
:103FF00007E03F01FFB204F1604404F5614484F836
:104000000073196031462846054B9847F8BD00BF3C
:10401000ED3B4000E53B4000E93B400014ED00E093
:10402000E13B4000184A136B23F070031843106300
:10403000936E13F0080F03D009E0013B03D11EE09B
:104040004FF4006310498A6E12F0080FF5D00E4A43
:10405000136B23F0030343F002031363906E10F01D
:10406000080004D000207047013B03D109E04FF461
:10407000006305498A6E12F0080FF5D070470120E1
:1040800070470120704700BF00040E4038B111494D
:104090000B6A114A1A40114B13430B6270470D48CB
:1040A000026A090289B222F45C1323F0030343F489
:1040B0005C1343F001030B4303620246936E13F05B
:1040C000010FFBD0034A136A43F09B7343F4803320
:1040D0001362704700040E40FCFFC8FE0200370167
:1040E000024B986E00F48030704700BF00040E4011
:1040F0004FF00052014B9A62704700BF00040E401F
:10410000024B986E00F00200704700BF00040E40A2
:1041100022281ED81F280CD8114B9A6901238340EE
:10412000934318D0012303FA00F00D4B18610020CF
:10413000704720380A4BD3F808210123834093436A
:104140000BD0012303FA00F0054BC3F80001002057
:10415000704701207047002070470020704700BF63
:1041600000040E404FF400434360704782B042F2B7
:104170000F730193EFF305830193009B01330093C9
:10418000FBE700BF08B5204B204A9A4212D9204BCA
:104190001D4A9A421ED21146013B9B1A23F003038B
:1041A00004331A4A134452F8040B41F8040B9A42A0
:1041B000F9D10FE0144B154A9A420BD2144B124A14
:1041C0009A1A144811182AB151F8042943F8042DF9
:1041D0008142F9D100BF104B104A9A420BD2131DF5
:1041E0000F4AD21A22F003021A44043B002143F87A
:1041F000041B9A42FBD10B4B0B4A9A600B4B98471E
:104200000B4B9847FEE700BF00000020C8024100AA
:10421000D0080020C40241001CAE0020D0080020BD
:104220001FAE002000ED00E000004000D95D40001E
:10423000D15B40003D4B1B6B03F00303032B5DD8A8
:10424000DFE803F0020E2B2B394B5B6913F0800F74
:1042500014BF4FF400424FF4FA42364B1A604DE05F
:10426000324B1B6A13F0807F03D0334A314B1A6004
:1042700044E0324A2F4B1A602C4B1B6A03F0700348
:10428000102B02D0202B04D038E02D4A294B1A6085
:1042900034E0294A274B1A6030E0244B1B6A13F0A4
:1042A000807F03D0244A234B1A6012E0234A214B1B
:1042B0001A601E4B1B6A03F07003102B02D0202BD8
:1042C00004D006E01E4A1B4B1A6002E01A4A194B42
:1042D0001A60164B1B6B03F00303022B134A07BF34
:1042E000936A926AD36AD26A1248C3F30A41036896
:1042F00001FB0333D2B2B3FBF2F303600B4B1B6B36
:1043000003F07003702B07D10A4A13680D49A1FB13
:1043100003135B0813607047044B1B6B0549C3F321
:1043200002120B68D3400B60704700BF00040E40C0
:1043300010140E401C000020001BB70000093D00B7
:1043400000127A00ABAAAAAA1A4B984207D84FF0DB
:104350008063194A136002F5007213607047174BAF
:10436000984206D8164B144A136002F50072136087
:104370007047144B984206D8134B0F4A136002F54E
:10438000007213607047114B984206D8104B0A4ACE
:10439000136002F50072136070470E4B984294BF91
:1043A0004FF004230C4B044A136002F500721360B3
:1043B000704700BFFF2C3101000A0E40FF59620216
:1043C00000010004FF86930300020004FFB3C4044D
:1043D00000030004FFE0F50500050004094B1B681D
:1043E00013B9094A074B1A60064B1B681A1807498C
:1043F000914204DB1046034A1060184670474FF0A4
:10440000FF307047B00B002020DE0020FC7F022030
:104410004FF0FF30704700BF4FF400534B60002057
:10442000704700BF012070470020704700F108036B
:1044300043604FF0FF328260C3600361002303607A
:10444000704700BF00230361704700BF43685A688C
:104450004A6042688A605A689160596041600861A8
:10446000036801330360704710B40C68B4F1FF3F78
:1044700001D103690AE000F10803C268126894429E
:1044800004D35B685A6812689442FAD25A684A6048
:1044900091608B605960086103680133036010BC50
:1044A000704700BF436882689A60836842685A60B8
:1044B00003695A68904204BF82685A600022026110
:1044C0001A68013A1A601868704700BF034800680C
:1044D000006880F3088862B600DF00BF08ED00E0E6
:1044E0004FF0807340F8043C40F8081C002340F86B
:1044F0000C3C40F8202C4038704700BF064B196830
:104500000868B0E8F00F80F309884FF0000080F3EE
:1045100011884EF00D0E70477CAC00204FF0805299
:10452000014B1A60704700BF04ED00E0EFF311800B
:104530004FF0A00181F311887047002008B5034BAC
:104540009847034A13680133136008BD2D454000A6
:104550002000002080F31188704700BF08B5044A8E
:104560001368013B136013B90020024B984708BD44
:104570002000002055454000EFF309800C4B1A68DD
:1045800020E9F00F10602DE908404FF0A00080F303
:10459000118800F093FE4FF0000080F31188BDE811
:1045A000084019680868B0E8F00F80F30988704780
:1045B0007CAC002008B54FF08052054B1A60054BCB
:1045C0009847054B98470020044B984708BD00BF0B
:1045D00004ED00E02D454000CD4F40005545400022
:1045E000034A044B1A600722043B1A60704700BF5D
:1045F000BFD4010014E000E010B5094B1A6842F482
:1046000070021A601A6842F070421A60054B9847AF
:104610000024054B1C60054B9847204610BD00BF89
:1046200020ED00E0E145400020000020CD444000A6
:10463000124A00E01A4613688342FBD310B4516853
:104640005418A04203D140680144516010464168AB
:104650004418A3420CD10A4B1B689C4206D06368E5
:104660001944416013681B68036002E0046000E0C5
:104670000360904218BF106010BC7047BCAB0020B4
:10468000B8AB002038B504462B4B98472B4B1B6822
:104690009BB92B4A2B4B13600021516049F6F072F5
:1046A0009818264D286049F6F475595199505A606A
:1046B0001860254A1368103B1360002C37D004F1B2
:1046C000100212F0070F1CBF22F007020832511E21
:1046D00049F6FE73994227D819490C6801E0214632
:1046E0001C4663689A4202D92368002BF7D1134B0A
:1046F0001B689C4218D00D68103523680B606368F6
:104700009B1A202B04D9A018436062600F4B984776
:104710000D4A136861685B1A13600D4B98474DB9D9
:104720000C4B9847002505E0094B9847F8E7084BE4
:104730009847F5E7284638BD9D4F4000B8AB0020AC
:10474000BCAB0020B80B0020240000203146400004
:10475000ED504000C15B400080B110B50446084BED
:104760009847084A54F80C1C13680B441360A4F1D2
:104770001000054B9847054B984710BD704700BF88
:104780009D4F40002400002031464000ED50400085
:1047900010B50446036C3BB903681BBB4068134B60
:1047A0009847002363601DE06AB91A468068104B81
:1047B0009847A268236C1344A3606268934211D3A4
:1047C0002368A3600EE01A46C068094B9847236C23
:1047D0005B42E2681A44E26021688A4202D262685F
:1047E0001344E360A36B0133A36310BDED55400098
:1047F000515E400038B50346006858B11A6CDC6859
:104800001444DC605D68AC4228BFD8600846D968B3
:10481000014B984738BD00BF515E4000F8B50446D3
:104820001E4B9847A36C002B13DD636A1BB910E085
:10483000636A23B90DE004F12406194D194F30467F
:10484000A84700B1B847A36C013BA364A36C002B3D
:10485000EEDC4FF0FF33A364134B98470F4B9847A0
:10486000636C002B13DD23691BB910E0236923B9A6
:104870000DE004F110060A4D0A4F3046A84700B17A
:10488000B847636C013B6364636C002BEEDC4FF054
:10489000FF336364044B9847F8BD00BF3D454000BB
:1048A00005544000355540005D45400038B518B905
:1048B000174B984700BFFDE70D460446154B984738
:1048C0002268216CE36B03FB01F3D01860600020C9
:1048D000A063A2605B1A1344E3604FF0FF3363648C
:1048E000A36455B923697BB104F110000A4B9847C2
:1048F000012809D1094B984706E004F11000084D42
:10490000A84704F12400A847064B9847012038BD6A
:104910002D4540003D454000055440001D454000E8
:104920002D4440005D454000F8B5A0B10D46174646
:10493000064650200E4B9847044660B105FB06F032
:1049400001300B4B9847206040B92046094B9847EF
:1049500001E000BFFDE7084B9847FAE7E6632564EE
:1049600001212046054B984784F84D702046F8BD3C
:1049700085464000594740002D454000AD48400065
:104980002DE9F04F85B00192009318B9384B984744
:1049900000BFFDE78A46044629B9036C2BB1344BAE
:1049A000984700BFFDE7002700E00027314EDFF801
:1049B000ECB0314DB047A26BE36B9A4212D2009A31
:1049C000514620462D4B9847636A3BB104F12400C1
:1049D0002B4B9847012801D12A4B9847264B9847E3
:1049E000012042E0019B1BB9234B984700203CE08B
:1049F00017B902A8D8470127A847234B9847B047C3
:104A0000636CB3F1FF3F04BF00236364A36CB3F195
:104A1000FF3F04BF0023A364A84701A902A81B4BC2
:104A20009847E0B9B047D4F83890D4F83C80A8470C
:104A3000C1450ED1019904F11000154B984720464D
:104A4000144B9847144B98470028B3D10D4B984707
:104A5000B0E720460F4B98470F4B9847AAE72046F0
:104A60000C4B98470C4B9847002005B0BDE8F08FE1
:104A70002D4540003D4540005D45400091474000C8
:104A8000055440001D4540009D4F4000B15440007A
:104A9000615340001D484000ED50400089544000E3
:104AA0002DE9F04118B91E4B984700BFFDE70E46AF
:104AB00015469846044629B9036C1BB1184B984714
:104AC00000BFFDE7164B98470746A26BE36B9A427F
:104AD00018D2424631462046124B9847A36CB3F198
:104AE000FF3F0AD1636A7BB104F124000E4B984763
:104AF00060B16DB101242C600BE0A36C0133A364A1
:104B0000012406E0002404E0012402E0012400E086
:104B100001243846054B98472046BDE8F08100BF88
:104B20002D45400091474000055440005545400048
:104B30002DE9F04F85B0019218B9464B984700BF58
:104B4000FDE789469A46044629B9036C2BB1414BCF
:104B5000984700BFFDE7002700E000273E4EDFF842
:104B600028B13E4DB047A36B43B3E56849462046A4
:104B70003B4B9847BAF1000F12D1A36B013BA363E3
:104B8000236813B9374B98476060236993B104F1E8
:104B90001000354B984701280CD1344B984709E059
:104BA000E560636A33B104F124002F4B984708B1E4
:104BB0002E4B9847294B9847012048E0019B1BB991
:104BC000264B9847002042E017B902A8D847012792
:104BD000A847274B9847B047636CB3F1FF3F04BF2A
:104BE00000236364A36CB3F1FF3F04BF0023A364FD
:104BF000A84701A902A81F4B984710BBB047D4F89B
:104C00003880A847B8F1000F15D1236823B9B04701
:104C10006068194B9847A847019904F12400174B85
:104C200098472046164B9847164B9847002899D12D
:104C30000E4B984796E72046114B9847114B9847E3
:104C400090E720460E4B98470E4B9847002005B042
:104C5000BDE8F08F2D4540003D4540005D454000DA
:104C6000F547400041554000055440001D454000B7
:104C70009D4F4000B15440006D55400061534000CD
:104C80001D484000ED5040008954400038B50446AE
:104C90000D460D4B9847636CB3F1FF3F04BF0023F3
:104CA0006364A36CB3F1FF3F04BF0023A364074B0D
:104CB0009847A36B23B9294604F12400044B984775
:104CC0002046044B984738BD3D4540005D454000B7
:104CD000C15340001D48400010B50F4B1B68586081
:104CE0000E4B1B68984207D20D4B18680A4B196887
:104CF00004310C4B984710BD04460B4B1868064B0B
:104D000019680431074B9847084B1B689C423CBF0D
:104D1000064B1C6010BD00BF7CAC002098AC00208E
:104D20009CAC002069444000D8AB00202800002043
:104D30002DE9F04F83B00C9FDDF834800E9E01907A
:104D400018B9624B984700BFFDE7894615469B4658
:104D5000042F03D95D4B984700BFFDE74C205C4B07
:104D600098470446002800F0AB80002E40F0A58054
:104D7000A800574B9847206318B92046554B9847D1
:104D80009EE0AA00A521544B984705F18045013DBE
:104D9000236B03EB850323F007050A22494604F140
:104DA00034004E4B9847002384F83D303E46042F94
:104DB00028BF0426E662A66404F104094846DFF829
:104DC0006CA1D04704F11800D0472461C6F1050654
:104DD000A66164625A4601992846414B9847206073
:104DE00010F0070F03D0394B984700BFFDE7B8F12B
:104DF000000F01D0C8F800403A4B98473A4A136870
:104E000001331360394B1B680BBB384B1C601368B4
:104E1000012B26D1364D05F16408364E2846B047A1
:104E200014354545FAD1DFF808814046314DA84791
:104E3000314E3046A8473148A8473148A847314845
:104E4000A847314BC3F80080304B1E6009E0304B5F
:104E50001B6833B9254B1B68DB6A9F4224BF234B79
:104E60001C60E06A2B4B1B68984284BF294B18607A
:104E7000294A1368236401331360284B1B68984246
:104E800084BF264B186000EB80004946184B03EBAB
:104E90008000234B9847234B98471D4B1B6843B119
:104EA000124B1B68DB6A9F4205D91F4B98470120B4
:104EB00008E0012006E0012004E00663304660E7D8
:104EC0004FF0FF3003B0BDE8F08F00BF2D4540002C
:104ED0008546400059474000855F40003D644000E2
:104EE000E14440003D454000BCAC00207CAC0020CB
:104EF00014AC00202D444000FCAB002080AC00200E
:104F0000E8AB0020C4AB0020D8AB00209CAC002054
:104F1000E0AB0020C0AC0020A0AC002010AC002012
:104F20004D4440005D4540001D4540004544400063
:104F3000A4AC002010B584B0002303930293019326
:104F4000009382220D490E480E4CA04701280ED135
:104F50000D4B984701280AD10C4B984701220C4B66
:104F60001A6000220B4B1A600B4B984704E018B9EB
:104F7000064B984700BFFDE704B010BDB8FC4000E9
:104F800039524000314D4000E55640002D4540006B
:104F9000E0AB002098AC0020F9454000024A1368BD
:104FA00001331360704700BF78AC002010B5044B8C
:104FB0009847044B1C68044B9847204610BD00BF1F
:104FC0003D45400098AC00205D4540002DE9F04192
:104FD0003A4B1B68002B6BD1394B1A6801321A60AF
:104FE0001B6803BB374B1B681B681BB1364B9847CC
:104FF00000BFFDE7334B1968344A10681860116030
:1050000033490A6801320A601B681B6823B94FF0F4
:10501000FF32304B1A6006E02A4B1B68DB68DB6806
:105020005A682C4B1A60264B1A682A4B1B689A4206
:1050300042D3244B1B681B686BB1224B1B68DB6897
:10504000DC6863681E4A1268934213D8224E234FCD
:10505000DFF8948012E04FF0FF321E4B1A60BDE87B
:10506000F081184B1B68DB68DC686368144A1268BF
:10507000934203D9174A1360BDE8F081251D2846E5
:10508000B047A36A13B104F11800B047E06A3B6867
:10509000984288BF386000EB8000294608EB80000A
:1050A0000F4B9847074B1B681B68002BD9D1D2E7E1
:1050B0000C4A136801331360BDE8F08178AC00201E
:1050C00098AC0020D8AB00202D4540009CAC0020BF
:1050D00094AC002028000020A544400010AC002023
:1050E0004D444000DCAB002014AC00202DE9F84317
:1050F000304B1B681BB9304B984700BFFDE72F4B67
:1051000098472C4B1A68013A1A601B68002B49D14A
:105110002B4B1B6803BB002447E0D8F80C30DC683D
:1051200004F11800B84704F104094846B847E06A9A
:105130003368984288BF306000EB80004946214BBD
:1051400003EB8000204B9847204B1B68E26ADB6A28
:105150009A4228BF012504E00025DFF890801C4F0B
:105160001C4ED8F80030002BD7D11B4B1B6863B105
:10517000194B1B687BB1194D174CA8472368013B9D
:1051800023602368002BF8D105E0012D03D0144BD8
:105190001B68012B08D10022114B1A60114B984754
:1051A000012402E0002400E000240F4B9847204631
:1051B000BDE8F88378AC00202D4540003D45400017
:1051C000BCAC002014AC00204D4440007CAC00205E
:1051D000A544400010AC0020DCAB0020CD4F4000C7
:1051E000B8AC00201D4540005D45400080AC00206B
:1051F00010B580B10446094B9847094B1B681C4405
:10520000084B18680430084B98472046074B9847CE
:10521000074B984708B9074B984710BD9D4F400072
:1052200098AC00207CAC0020A5444000D94C400044
:10523000ED5040001D45400080B5154D154FDFF87D
:105240007480154E19E0C0473C68B047ACB1134BB1
:105250009847FB68DC68201D114B9847114A13687A
:10526000013B13602B68013B2B600F4B9847206B71
:10527000DFF84490C8472046C8472B68002BE2D18E
:105280000A4B1B68012BDCD9094B9847D7E700BFB5
:10529000E4AB0020E8AB0020ED5040003D4540006D
:1052A000A5444000BCAC00205D45400014AC00208B
:1052B0001D4540009D4F40005947400010B5224B0E
:1052C0001B686BB9214B1B6803EB83039B00204ACF
:1052D000D358CBB91D4B1B6843B11C4A1C4909E08C
:1052E00001221C4B1A6010BD13681BB91A4B98475A
:1052F00000BFFDE71368013B1360136803EB8303F2
:1053000051F82330002BEFD0104B1B68104A990046
:10531000C81802EB800044686468446002460832A2
:10532000944206D1606803EB8301094A02EB8102D3
:10533000506003EB8303064A02EB83035B68DA6881
:10534000064B1A6010BD00BF78AC002010AC0020E6
:1053500014AC0020B8AC00202D4540007CAC0020EF
:1053600038B518B90E4B984700BFFDE70C460D4DF8
:10537000296818310C4B9847286804300B4B984724
:10538000B4F1FF3F05D1296804310948094B98471A
:1053900038BD094B18682044084B984738BD00BFFA
:1053A0002D4540007CAC002069444000A5444000ED
:1053B000C4AB00204D44400098AC0020D94C4000C4
:1053C00038B518B9094B984700BFFDE70D46084CA2
:1053D00021681831074B984720680430064B9847DE
:1053E000064B18682844064B984738BD2D454000A9
:1053F0007CAC00204D444000A544400098AC002007
:10540000D94C400038B5C368DC681CB9164B9847C6
:1054100000BFFDE704F118052846144B9847144BCC
:105420001B689BB9251D2846104B9847E06A114B15
:105430001B68984284BF0F4B186000EB8000294620
:105440000D4B03EB80000D4B984703E029460C48B9
:105450000A4B98470B4B1B68E06ADB6A984234BFE3
:105460000020012038BD00BF2D454000A54440006C
:1054700078AC002010AC002014AC00204D4440005B
:1054800080AC00207CAC002008B518B9054B9847CB
:1054900000BFFDE7044A12680260044A12684260D5
:1054A00008BD00BF2D45400094AC002098AC002002
:1054B00038B518B9194B984700BFFDE70D460446AB
:1054C00019B9164B984700BFFDE7154B98472B6855
:1054D000B3F1FF3F18D0134A12682168914204D0FB
:1054E000114A12686168914210D90F4A11686068C8
:1054F000091A8B420CD91268121A9B1A2B6020468B
:105500000A4B9847002404E0002402E0012400E054
:105510000124074B9847204638BD00BF2D45400069
:105520003D45400094AC002098AC002089544000D8
:105530005D4540000122014B1A607047B8AC002065
:10554000014B1868704700BF7CAC0020054B1B68FE
:1055500033B1054B1B68002B0CBF012002207047A4
:1055600000207047E0AB002078AC0020002831D04C
:1055700038B5C36A18490968C96A8B4229D21649E5
:105580000968C96AC1F10501816103EB830313490D
:1055900001EB83034169994217D10546041D20465A
:1055A0000F4B98470C4B1B68D86AE8620D4B1B6881
:1055B000984284BF0B4B186000EB80002146074BDC
:1055C00003EB8000084B984738BD034B1B68DB6A30
:1055D000C36238BD704700BF7CAC002014AC002013
:1055E000A544400010AC00204D444000E8B138B55F
:1055F000C16A826C914217D00446051D28460B4BA8
:105600009847A06CE062C0F10503A361084B1B68DA
:10561000984284BF064B186000EB80002946054B7A
:1056200003EB8000044B984738BD7047A544400009
:1056300010AC002014AC00204D44400008B541607F
:10564000006191420AD8D21A83699A4211D2011D8F
:105650000A4B18680A4B9847002008BD9A4201D2AD
:10566000994208D2011D074B1868054B9847002046
:1056700008BD012008BD012008BD00BFF8AC002016
:1056800069444000C4AC002070B50D4B98470D4BE9
:105690001B688BB90C4D28460C4EB0470C4C20466D
:1056A000B0470C4B1D600C4B1C6000220C210520E8
:1056B0000A4B9847034B1860094B984770BD00BFD1
:1056C0003D454000F4AC0020C8AC00202D44400013
:1056D000DCAC0020C4AC0020F8AC0020294940001C
:1056E0005D45400010B584B00B4B98470B4B1B68D1
:1056F00063B10023039302930193042200924FF4B9
:10570000827207490748084CA04718B9074B9847C9
:1057100000BFFDE704B010BD89564000F4AC002086
:10572000C0FC400039584000314D40002D4540003C
:1057300030B585B00F4C2568CDB11C460191029261
:1057400003906CB90C4B984701284FF000030CBF35
:10575000089A1A4601A907480068084CA04707E0C4
:105760000023224601A92846054CA04700E000205E
:1057700005B030BDF4AC00204D55400081494000DB
:10578000A14A40002DE9F04782B08146224B98475C
:105790008046224B1B68984234D224E0DA68D2F863
:1057A00000A0DB68DC68251D2846B847636A2046F0
:1057B0009847E369012B18D1A36953449A4506D24F
:1057C0006360246129463068154B98470DE000213D
:1057D00000910B4652462046124CA04728B9124B66
:1057E000984700BFFDE7114E114F33681A68002A31
:1057F000D4D1104A10680D49086013600123C9F81C
:10580000003002E00023C9F80030044BC3F80080E8
:10581000404602B0BDE8F087AD4F4000F0AC00203C
:1058200069444000315740002D454000C4AC002081
:10583000A5444000F8AC00202DE9F04387B04D4D61
:10584000DFF860814C4B1B681A68002A00F08880E2
:10585000DB681E68494B984703A8494B98470746A1
:10586000039B002B30D1864224D8464B9847424BAD
:105870001B68DB68DC68201DC047E369012B14D17D
:10588000A16933463A46314420463F4FB847012884
:105890000BD1002100910B46324620463B4EB047CB
:1058A00018B93B4B984700BFFDE7636A204698470D
:1058B0000CE00026F11B2868364B9847314B98477F
:1058C00020B9354B984701E02E4B984702A82C4B46
:1058D00098470746314EDFF8B09039E0059C1CB17F
:1058E00063690BB1201DC047039B022B20D0032B03
:1058F0002BD0002B2CD10499A0690B463A460144C9
:105900002046C847012823D1636A20469847E369A7
:10591000012B1DD1A269002100910B46049802447D
:1059200020461A4CA04798B9194B984700BFFDE78D
:105930000499A16119B9164B984700BFFDE73B4692
:105940003A4639442046C84702E02046144B98475F
:1059500000231A4603A92868B0470028BED171E782
:10596000064B984703A8064B98470746039B002B16
:105970009FD0A9E7F4AC0020C4AC00209D4F4000AC
:1059800085574000ED5040003D56400031574000E3
:105990002D4540008D4C40001D454000314B4000DE
:1059A00059474000A544400008B5074C4FF4000695
:1059B000064DE36B13F4000F14BF666326634FF4C8
:1059C0007A70A847F5E700BF00120E40F151400081
:1059D00070B5C2B0174B8DF80731FF22002102A825
:1059E000154B984742F21070144B98470024144D01
:1059F000144EE4B264230193C8230093012322468A
:105A00000DF2071102A8A847B0F1FF3F02D13046BE
:105A10000D4B98470D4B196802A80D4B98470A3457
:105A200064B2642CA8BF002440F6B830034B9847FA
:105A3000DFE700BFC8FC4000855F4000F151400037
:105A4000950A4000D0FC4000295E400034AD0020A3
:105A50009502400030B585B000238DF80C308DF8EC
:105A60000D3002930193084D084C0023012203A935
:105A70002868A047012803D1029B01330293F4E771
:105A8000019B01330193F0E73CAD0020314B400016
:105A900008B5064E0024064D23464FF0FF3221463E
:105AA0003068A8472046034B9847F5E738AD0020FB
:105AB000314B4000C51B4000F0B583B005460C4695
:105AC00000230193184B984207D11F46174E2146D9
:105AD0003846B0470028FAD117E0154B984207D155
